:040500005AEF21F09D
:08050800046ED8CF05F0E0CF2E
:1005100006F00001E9CF0CF0EACF07F0E1CF08F0D8
:10052000E2CF09F0D9CF0AF0DACF0BF0F3CF12F017
:10053000F4CF13F0FACF14F0F5CF15F0F6CF16F094
:10054000F7CF17F000C00EF001C00FF002C010F09E
:1005500003C011F0F0A6B0EF02F0F0B06DEF06F0BE
:100560009DAAB6EF02F09EBA48EF06F00EC000F06A
:100570000FC001F010C002F011C003F00CC0E9FF81
:1005800007C0EAFF078E08C0E1FF09C0E2FF0AC00A
:10059000D9FF0BC0DAFF12C0F3FF13C0F4FF14C081
:1005A000FAFF15C0F5FF16C0F6FF17C0F7FF04509D
:1005B00006C0E0FF05C0D8FF1000F76ACA0FF66E4C
:1005C000050EF7220900F55012000000000000009F
:1005D000005F00000003000300143E143E14242AB0
:1005E0007F2A1243330866613649552250000503BD
:1005F0000000001C2241000041221C0014083E089B
:100600001408083E080800503000000808080808D0
:10061000006060000020100804023E5149453E0081
:1006200004027F004261514946224149493618146B
:10063000127F1027454545393E494949320101712C
:1006400009073649494936264949493E00363600A8
:10065000000056360000081422410014141414142B
:10066000004122140802015109063E4159555E7E9F
:100670000909097E7F494949363E414141227F416E
:1006800041413E7F494949417F090909013E4141B4
:10069000493A7F0808087F00417F410030404040D0
:1006A0003F7F081422417F404040407F020C027F80
:1006B0007F0204087F3E4141413E7F090909061E31
:1006C0002121215E7F0909097600F76ADA0FF66EAB
:1006D000060EF7220900F550120026494949320159
:1006E000017F01013F4040403F1F2040201F7F20ED
:1006F00010207F41221C22410708700807615149E0
:100700004543007F41000002040810200000417FA3
:100710000004020102044040404040000102040085
:1007200020545454787F4444443838444444443832
:100730004444447F385454541804047E0505085436
:1007400054543C7F0804047800447D400020404419
:100750003D007F1028440000417F40007C04780465
:10076000787C0804047838444444387C1414140811
:10077000081414147C007C080404485454542004C5
:10078000043F44443C4040207C1C2040201C3C4012
:1007900030403C44281028440C5050503C44645491
:1007A0004C44000836414100007F000041413608BA
:1007B000000201020402F76AC60FF66E070EF72266
:1007C0000900F55012004300F76AD80FF66E070EC5
:1007D000F7220900F55012004600F76AEA0FF66E9C
:1007E000070EF7220900F550120050610000F76A69
:1007F000FE0FF66E070EF7220900F55012006D424B
:100800006100F76A120FF66E080EF7220900F55024
:1008100012006D2F7300F76A260FF66E080EF7228E
:100820000900F55012006B6D2F680000F76A3C0F4D
:10083000F66E080EF7220900F55012004E7564009E
:10084000F76A500FF66E080EF7220900F5501200F5
:10085000414D0000F76A640FF66E080EF72209009A
:10086000F5501200504D0000760FF66E080EF7227C
:100870000900F55012000000000000000080C0C018
:10088000E0F0F8F8FCFEFF7F3F1F078381404060E7
:1008900020101008080406020301010101010101F2
:1008A0000101010101010101010101010101010138
:1008B0000101010101010101010101010101010128
:1008C0000101010101010101010101010101010118
:1008D0000101010101010101010101010101010108
:1008E00001010101010101010101010181C1711930
:1008F0000F0000000000E0F0F8FCFEFFFFFFFF7FAC
:100900003F1F0F070381E1388C8381C0C0406060C6
:1009100020203030101010181818080888C8C8ECAB
:10092000FCFCF8F8F8F8F8FCFCFCE8C888080808B3
:1009300008080808080808081818181818101010CF
:100940009090D0F0F0F0F0F0F8F8F8F8F8F8F8F847
:10095000F070200000000000000000000000000017
:100960008080C0C06060303010180C0E03010000A1
:10097000000000000000FFFFFF3F1F0F0301000009
:10098000000000000303030101010000000000005B
:100990000000000000000000F0FCFEFF7F3F1F0F82
:1009A0000F0F0F3FFFFFFFFFFFFFFFFFFFFFFCF0F9
:1009B000C000000000000080C0E0F0F8F8FCFEFF7E
:1009C000FFFFFFFFFFBFBF1F1F1F3F3F3F1F0F87DF
:1009D00081C0C0606020301018080C0C06060303AC
:1009E0000101000000000000000000000000000005
:1009F00000000000000007030000000000000000ED
:100A000000000000000000000000000000000000E6
:100A1000000000000000000001010150F0F0F0F0C3
:100A2000E0E0E0E0E0C3CFFFFFFFFFFFFFFFFFFFDD
:100A3000FFFFFCF8FCFEFFFFFF7F3F1F0F078381D6
:100A4000C0C0E0617133371F1F0E0E0E1E0303017D
:100A500001000080C0C0602020A0E0E0E0E00000D5
:100A60000000000080C04060606060E0E0E0606026
:100A70006020203018080000000000000000000086
:100A80000000000000000000000000000000000066
:100A900000000000000000000000000000808080D6
:100AA000C0C0E0607030B098E9F7FFFFFFFFFFFFC4
:100AB000FFFFFFFFFFFFFFFFDE0E0E1E1F1F1F1DAC
:100AC0003D3C3C3C3C3C380800000000000000007D
:100AD0000000020383E0707C2E23217FFFFFE000F3
:100AE000000002070700000000E0FEFF3F010000D9
:100AF00000000000000000000000000000000000F6
:100B00000000000000000000000000008080C0C065
:100B1000E0E0F0F0F8F8F8FCFFFF7F3F9FDFCFE761
:100B2000F3FBF9FCFEFF7F7F1F1F0F0703030F3F3F
:100B3000FFFFFFFFFFFFFFFFFFFFFCF0C000000013
:100B4000000000000080C0E0E0E0000002030606B4
:100B50000606020301000000000000000707070668
:100B6000020000000002060607070706000000005A
:100B7000000000000000000000008080C0C0E0E035
:100B8000E0F0F0F8F8FCFCFEFEFFFFFFFFFF87300F
:100B90007DF9F7F7F7F3F9FDFC7E7E3FBFBFDFDF9E
:100BA0008F8F87838180808080808080800000009C
:100BB00000030F1F7FFFFFFFFFFFFFFFFFFFFEFC94
:100BC000FCFCFEFE7F3F1F0F0703008080808080BB
:100BD0008080C0C0C0C0C0C0E0E0E0E0F0F0F0F055
:100BE000F8F8F8FCFCFEFEFE7F3F070000000080E6
:100BF000C0C0E0F0F8FEFEFEFFFFFFFFFFFFFFFFBB
:100C0000FFFFFFFFFFFFFFFFFFFFFFFFFFFFFFFFF4
:100C1000FFFEFEFEFEFEFEFEFEFEFEFFFFFFFFFFEE
:100C2000FFFFFFFFFFFFFFFFFFFFFFFFFFFFFFFFD4
:100C3000FFFFFFFFFFFFFFFFFFFFFFFFFFFFFFFFC4
:100C4000FFFFFFFFFFFFFFFFFFFFFFFFFFFFFFFFB4
:100C5000FFFFFFFFFFFF7F7F3F3F3F1F1F1F0F0F64
:100C6000070703030101000080E0F0F8FCFEFF7FAE
:100C70003F3F1F0F070732009EAAFED7ABCF19F0E8
:100C8000AECF01F019A202D0AB98AB8858EF06F0B6
:100C9000010E0601EB6F036A3A501A0FE96E000E5F
:100CA0000320EA6EEACFA7F7E9CFA6F70001E4D761
:100CB000A7C7EAFFA6C7E9FF01C0EFFF3AC0A3F745
:100CC0003A2A3A50200801E13A6A3B503A5C02E184
:100CD000A3C73AF09E9AB6EF02F0010E3F6EF09075
:100CE000B6EF02F04300460050006D006D006B004F
:100CF0004E000701835303E093908A8002D0929ABA
:100D0000898A93968A96956A84C78CFF050E006E31
:100D1000002EFED793988A881A0E006E002EFED7FA
:100D2000000093988A98929A899A93908A900001E9
:100D3000000C07014B6BEA0E4A6F020E4D6FEA0E74
:100D40004C6F4851FF0DF3CF49F74F6B4E6B4F512E
:100D500001081AE34BC703F04A514A2BD8B44B2B76
:100D6000E96E03C0EAFF49C7EFFF4DC703F04C51DE
:100D70004C2BD8B44D2BE96E03C0EAFF49C7EFFFF7
:100D80004E2BD8B44F2BE3D70001000C07017F6B2B
:100D9000EA0E7E6F020E816FEA0E806F7C6B7C51D3
:100DA00007084EE393948A94836B400E846F00018E
:100DB000A0DF010E0701836F400E846F000199DFF1
:100DC00007017C51B809826F836B846F000191DF4A
:100DD00007017C51B809826F010E836F82C784F7C7
:100DE000000187DF93948A8407017D6B7D513F0862
:100DF00025E37FC703F07E517E2BD8B47F2BE96EAD
:100E000003C0EAFFEFCF82F7836B82C784F700014C
:100E100070DF070181C703F08051802BD8B4812B8C
:100E2000E96E03C0EAFFEFCF82F7010E836F82C73E
:100E300084F700015EDF07017D2BD8D77C2BAFD76D
:100E40000001000C94908B8093988A98929A899ACA
:100E500093908A9093948A940701836BC00E846F59
:100E6000000147DF010E0701836FC00E846F000190
:100E700040DF0701836B400E846F00013ADF010EF3
:100E80000701836F400E846F000133DF0701836B1E
:100E9000B80E846F00012DDF010E0701836FB80EBD
:100EA000846F000126DF07013D2D0ED0836B3F0EBE
:100EB000846F00011EDF010E0701836F3F0E846FF8
:100EC000000117DF0DD00701836B3E0E846F000118
:100ED00010DF010E0701836F3E0E846F000109DFF2
:100EE0000701486B000125DF51DFCBEF25F007013B
:100EF000A06B9B319F6F9F339F331F0E9F179F37B0
:100F0000A0379F37A0379F37A0379F37A0379F372D
:100F1000A0379F37A037C00E9F179A519F27000E0A
:100F2000A0239A513F080DE2EA0E9F25A16F020E01
:100F3000A021A26F400EA15D9D6F000EA2599E6F71
:100F400006D0EA0E9F259D6F000EA0219E6F9C5338
:100F500015E09EC703F09DC7E9FF9EC7EAFF9B51BE
:100F6000070BA16F010E006EA151016E04E0D89035
:100F70000036012EFCD70050EF1215D09EC703F0AB
:100F80009DC7E9FF9EC7EAFF9B51070BA16F010EAA
:100F9000006EA151016E04E0D8900036012EFCD7FE
:100FA0000050FF0AEF160001000C010E0701906FC0
:100FB000916F966B8751895D976F975197AF03D06B
:100FC000000ED8809755036A8E6F03C08FF7885143
:100FD0008A5D976F975197AF03D0000ED8809755D1
:100FE000036A8C6F03C08DF78751895D02E2FF0EA3
:100FF000906F88518A5D02E2FF0E916F8D518F5D77
:101000003BE303E18C518E5D37E3D8908C378D370D
:101010008E518C5D006E8F518D5900C092F7936F89
:101020008E51925D946F8F519359956F8F5303E159
:1010300096518E5D20E387C79AF788C79BF78BC7C9
:101040009CF7000154DF070193BF01D008D08C51F9
:1010500092278D51932390518725876F0AD0945101
:1010600092279551932390518725876F9151882519
:10107000886F962BDBD736D0D8908E378F378C5130
:101080008E5D006E8D518F5900C092F7936F8C5119
:10109000925D946F8D519359956F8D5303E19651E5
:1010A0008C5D20E387C79AF788C79BF78BC79CF7AF
:1010B00000011DDF070193BF01D008D08E51922798
:1010C0008F51932391518825886F0AD0945192278C
:1010D0009551932390518725876F91518825886F6B
:1010E000962BDBD70001000C070180532EE07E51C8
:1010F0007C5D05E27CC783F77EC784F704D07EC79A
:1011000083F77CC784F77F517D5D05E27DC785F756
:101110007FC786F704D07FC785F77DC786F78351E1
:10112000845D12E385C782F78251865D0BE383C736
:101130009AF782C79BF781C79CF70001D8DE0701A9
:10114000822BF2D7832BEBD72ED07CC787F77DC7B6
:1011500088F77EC789F77DC78AF781C78BF70001BB
:1011600024DF7CC787F77FC788F77EC789F77FC7EB
:101170008AF781C78BF719DF7CC787F77DC788F7A8
:101180007CC789F77FC78AF781C78BF70EDF7EC7D9
:1011900087F77DC788F77EC789F77FC78AF781C73A
:1011A0008BF703DF07010001000C07013D51FB0F26
:1011B000D8B0ACD0050F000188EF09F007017C6BB7
:1011C0007D6B3E0E7E6F1E0E7F6F010E806F816FF6
:1011D00000018ADF07017C6B7D6B3E0E7E6F1E0E69
:1011E0007F6F806B816B00017FDF07018FD0000173
:1011F0003F0E07017C6F7D6B7F0E7E6F1E0E7F6F33
:10120000806B010E816F00016FDF07017FD000014D
:1012100007017C6B1F0E7D6F3E0E7E6F3F0E7F6F52
:10122000806B010E816F00015FDF07016FD000014D
:101230003F0E07017C6F1F0E7D6F7F0E7E6F3F0E8E
:101240007F6F010E806F816F00014EDF3F0E07013F
:101250007C6F1F0E7D6F7F0E7E6F3F0E7F6F806BEA
:10126000816B000141DF070151D0000107017C6B58
:101270007D6B3E0E7E6F1E0E7F6F010E806F816F45
:10128000000132DF07017C6B7D6B3E0E7E6F1E0E10
:101290007F6F806B816B000127DF3F0E07017C6F42
:1012A0007D6B7F0E7E6F1E0E7F6F806B010E816FD8
:1012B00000011ADF07017C6B1F0E7D6F3E0E7E6FF3
:1012C0003F0E7F6F806B010E816F00010DDF3F0EBF
:1012D00007017C6F1F0E7D6F7F0E7E6F3F0E7F6F4D
:1012E000010E806F816F0001FFDE3F0E07017C6FF2
:1012F0001F0E7D6F7F0E7E6F3F0E7F6F806B816B49
:101300000001F2DE070102D0000107010001000C1C
:10131000E824F76AF7362B0FF66E130EF7220A0051
:10132000F550FA6E0800F550F96E6C12BC11F01110
:101330001012301207019E51A019800BA26F9EAFB0
:1013400005D09D1F9E1F9D2BD8B49E2BA0AF05D00E
:101350009F1FA01F9F2BD8B4A02B9D519F03F3CF9D
:1013600001F0F4CF00F0A003F35000269E519F033C
:10137000F3500020026EA2AF05D0011E021E012A0A
:10138000D8B4022A0001000C010E0701876F886F94
:10139000926B7C517E5D996F995199AF03D0000E8D
:1013A000D8809955036AE8BE0306856F03C086F7A7
:1013B0007D517F5D996F995199AF03D0000ED88010
:1013C0009955036AE8BE0306836F03C084F7D8907B
:1013D0008031826F86C79EF785C79DF7A06B7CC75B
:1013E0009FF70001A7DF02C09AF701C099F784C7F1
:1013F0009EF783C79DF70701A06B7DC79FF700018C
:1014000099DF02C003F0015007019925016E9A513E
:1014100003220150FF0A010F8E6F000E03548F6FDD
:1014200086C79EF785C79DF7A06B7EC79FF7000113
:1014300081DF02C09AF701C099F784C79EF783C77E
:101440009DF70701A06B7FC79FF7000173DF02C004
:1014500003F0015007019925016E9A5103220150B2
:10146000FF0A010F906F000E0354916F7C517E5D57
:101470000EE28FC794F78EC793F791C78FF790C787
:101480008EF794C791F793C790F7FF0E876F7D5142
:101490007F5D0EE28FC796F78EC795F791C78FF7DE
:1014A00090C78EF796C791F795C790F7FF0E886F94
:1014B00084AF03D086AF0CD002D086BFA2D08451B7
:1014C000865DD8A09ED004E18351855DD8A099D0D7
:1014D0009E6B020E9D6F84C7A0F783C79FF7000124
:1014E00029DF07018551015C8A6F865102588B6F95
:1014F00085518A5D8C6F86518B598D6F926B86BF3B
:101500007FD0865304E19251855DD8A079D0000E3A
:10151000D8808255896F8051010B822589BF02D006
:10152000895D4DE286C79EF785C79DF7A06B7CC796
:101530009FF70001FFDE02C09AF701C099F707018B
:1015400089517D25036A006EE8BE03069B6F03C0C8
:101550009CF784C79EF783C79DF703C0A0F79F6FD2
:101560000001E8DE02C003F0015007019925016E79
:101570009A51032201C097F797518E25996F000E5B
:101580008F219A6FE8BE19D000D097519025996F9E
:10159000000E91219A6FE8BE05D09A530EE1995141
:1015A00000080BE389517D25996F7CC79AF79B6FE3
:1015B00081C79CF700019BDC0701892BACD78BBF4F
:1015C00001D012D09E6B020E9D6F84C7A0F783C717
:1015D0009FF70001AFDE015007018A2702508B23DD
:1015E00087517C257C6F0AD08C518A278D518B23A3
:1015F00087517C257C6F88517D257D6F922B7FD70D
:1016000099D09E6B020E9D6F86C7A0F785C79FF786
:10161000000190DE07018351015C8A6F84510258FA
:101620008B6F83518A5D8C6F84518B598D6F926B58
:1016300084BF80D0845304E19251835DD8A07AD0D6
:101640008BBF01D012D09E6B020E9D6F86C7A0F794
:1016500085C79FF700016EDE015007018A270250FF
:101660008B2388517D257D6F0AD08C518A278D511F
:101670008B2387517C257C6F88517D257D6F000EE3
:10168000D8808255896F8051010B822589BF02D095
:10169000895D4EE286C79EF785C79DF7A06B7CC724
:1016A0009FF7000147DE02C09AF701C099F70701D2
:1016B00089517D25036A006EE8BE03069B6F03C057
:1016C0009CF784C79EF783C79DF703C0A0F79F6F61
:1016D000000130DE02C003F0015007019925016EC0
:1016E0009A51032201C098F798518E25996F000EE8
:1016F0008F219A6FE8BE1AD000D098519025996F2B
:10170000000E91219A6FE8BE05D09A530FE19951CE
:1017100000080CE389517C25996F9A6F7DC79BF770
:1017200081C79CF7000177EC07F00701892BABD745
:10173000922B7ED70001000C7FC703F007017EC704
:10174000E9FF7FC7EAFFEF52D8B4C9D07FC703F0E3
:101750007EC7E9FF7FC7EAFFEF50520822E37FC749
:1017600003F07EC7E9FF7FC7EAFF200EEF5C050D9F
:10177000F350036A8B6F070EEA6E860EE96E8F6B6D
:101780008BC78EF7050E016EF76A8B510001DDECF9
:1017900002F00A000900F5CFEEFF012EFBD732D090
:1017A00007017FC703F07EC7E9FF7FC7EAFFEF505D
:1017B0007E0822E37FC703F07EC7E9FF7FC7EAFF09
:1017C000530EEF5C050DF350036A8B6F070EEA6E44
:1017D000860EE96E8F6B8BC78EF7050E016EF76A6A
:1017E0008B51000165EC03F00A000900F5CFEEFF14
:1017F000012EFBD707D00701866B876B886B896B3F
:101800008A6B00017FC703F007017E51E96E03C0B8
:10181000EAFFEF500A0A000103E0070A09E00BD0D3
:1018200007018051070DF350010F7D2751D00001B2
:1018300007017C6B4DD007018051050DF3507C25CD
:101840007F0806E27C6B8051070DF350010F7D2766
:10185000826B825104083CE3836B8351060834E3B6
:10186000036A8251860FE96E070E0320EA6EEFCFFE
:101870008BF78BC700F08351016E04E0D8900032E3
:10188000012EFCD700A01ED0846B8051845D1AE22B
:10189000856B8051855D14E285517C258B6F83516A
:1018A0008003F3507D2584258C6F8BC79AF79B6F3F
:1018B00081C79CF7000177EC07F00701852BE9D77A
:1018C000842BE3D7832BC9D7822B80517C27C1D7A8
:1018D0007E2BD8B47F2B7C2B00012ED70701000173
:1018E000000C07013D6B3D513E08D8A080D0D89038
:1018F0003D353E6FD8903D35010F3F6F490E406F2B
:101900006E0E416F690E426F630E436F690E446F36
:10191000610E456F6E0E466F640E476F6F0E486F17
:10192000200E496F580E4A6F2D0E4B6F570E4C6F9D
:10193000650E4D6F610E4E6F740E4F6F680E506FD7
:10194000650E516F720E526F536B490E546F6E0ECF
:10195000556F690E566F630E576F690E586F610EA3
:10196000596F6E0E5A6F640E5B6F6F0E5C6F200EB8
:101970005D6F530E5E6F650E5F6F6E0E606F730E60
:10198000616F6F0E626F720E636F650E646F730E20
:10199000656F666B3EC77CF7050E7D6F3EC77EF7B1
:1019A0000F0E7F6F010E806F816F0001EDDC3FC76E
:1019B0007CF7050E07017D6F3FC77EF70F0E7F6F27
:1019C000010E806F816F0001DFDC050E07017C6F67
:1019D000070E7D6F7F6F400E7E6F010E806F816BF3
:1019E0000001AADEC6EC06F007013D2B7CD77C6B1C
:1019F000060E7D6F7F0E7E6F0F0E7F6F010E806F64
:101A0000816F000174EC08F007013D6B3D513E0809
:101A100059E3D8903D35676FD8903D35010F686F19
:101A2000490E696F6E0E6A6F690E6B6F630E6C6F95
:101A3000690E6D6F610E6E6F6E0E6F6F640E706F5C
:101A40006F0E716F200E726F530E736F650E746F91
:101A50006E0E756F730E766F6F0E776F720E786FF6
:101A6000650E796F730E7A6F7B6B67C77CF7050E17
:101A70007D6F67C77EF70F0E7F6F010E806F816BE2
:101A8000000182DC68C77CF7050E07017D6F68C71F
:101A90007EF70F0E7F6F010E806F816B000174DC8B
:101AA000050E07017C6F070E7D6F7F6F690E7E6FDD
:101AB000010E806F816F00013FDEC6EC06F007016A
:101AC0003D2BA4D7000152EF26F007013E6B3D6B82
:101AD00041913F6B3F5107084DE393948A94836B88
:101AE000400E846F000179EC06F0010E0701836F50
:101AF000400E846F000179EC06F007013F51B809F0
:101B0000426F836B846F000179EC06F007013F514F
:101B1000B809426F010E836F42C784F7000179EC68
:101B200006F093948A840701406B40517F0820E3BC
:101B300040513F0802E3419101D04181000E41B183
:101B4000010E426F3EC703F03D513EC7F7FF000153
:101B500034EC04F00701436F42C783F7846F000140
:101B600079EC06F007013D2BD8B43E2B402BDDD796
:101B70003F2BB0D73F6B000154EF26F0070EEA6E03
:101B80003E0EE96EEF500DE0020E016E006A002E6F
:101B9000FED7012EFBD7970E006E002EFED7EF2E3C
:101BA000F3D75CEF26F0070E07014025426F7C0E4D
:101BB000876F40C788F7896F42C78AF741C78BF79D
:101BC0000001D5EC07F0010E07014025426F060E1B
:101BD0004025436F7D0E876F42C788F7896F43C7E3
:101BE0008AF741C78BF70001D5EC07F0020E070119
:101BF0004025426F050E4025436F7E0E876F42C71A
:101C000088F7896F43C78AF741C78BF70001D5EC86
:101C100007F0030E07014025426F040E4025436F75
:101C20007F0E876F42C788F7896F43C78AF741C71E
:101C30008BF70001D5EC07F0000C0701486B0001A1
:101C400099EC06F007017C6B7D6B7F6B4E0E7E6F0F
:101C5000010E806F816F00016FDD07017C6B090E43
:101C60007D6F7F0E7E6F090E7F6F020E806F010EFB
:101C7000816F0001C4EC09F007017C6B0E0E7D6FD3
:101C80007F6B5C0E7E6F010E806F816F000154DDF3
:101C90000E0E0701406F010E416F000184DF070146
:101CA0007C6B170E7D6F7F6B6A0E7E6F010E806FEF
:101CB000816F000141DD640E07017C6F170E7D6F9F
:101CC0007F6BDE0E7E6F010E806F816F000134DD51
:101CD000170E0701406F010E416F000164DF07011D
:101CE0007C6B200E7D6F7F6B900E7E6F010E806F80
:101CF000816F000121DD640E07017C6F200E7D6F76
:101D00007F6BE10E7E6F010E806F816F000114DD2D
:101D1000200E0701406F010E416F000144DF0701F3
:101D20007C6B290E7D6F7F6BAC0E7E6F010E806F1A
:101D3000816F000101DD640E07017C6F290E7D6F4C
:101D40007F6BE50E7E6F010E806F816F0001F4DC0A
:101D5000290E0701406F010E416F000124DFC6EC20
:101D600006F0000C3E5230E144C045F046C047F05A
:101D70004AC04BF04DC04CF048C049F09280446AD4
:101D800080B0442A9286466A80B6462A92824A6A7F
:101D900080B24A2A92844D6A80B44D2A9288486A59
:101DA00080B8482A4550445C0CE14750465C09E144
:101DB0004950485C06E14A504B5C03E14D504C5C95
:101DC00002E0010E3E6ECED7000C07013F51FB0F23
:101DD000D8B039D3050F000136EF12F0010E07011C
:101DE0003E5DFC0FD8B0CAD0040F000125EF12F001
:101DF00024DF07017C6B110E7D6F7F0E7E6F110E4D
:101E00007F6F090E806F010E816F0001C4EC09F035
:101E100007017C6B0E0E7D6F7F6B5C0E7E6F010E7B
:101E2000806F816B000188DC0E0E0701406F416BF3
:101E30000001B9DEC6EC06F00701A0D00001FDDE0E
:101E400007017C6B1A0E7D6F7F0E7E6F1A0E7F6FFF
:101E5000090E806F010E816F0001C4EC09F00701CB
:101E60007C6B170E7D6F7F6B6A0E7E6F010E806F2D
:101E7000816B000161DC640E07017C6F170E7D6FC2
:101E80007F6BDE0E7E6F010E806F816B000154DC74
:101E9000170E0701406F416B000185DEC6EC06F0AE
:101EA00007016CD00001C9DE07017C6B230E7D6F3A
:101EB0007F0E7E6F230E7F6F090E806F010E816F84
:101EC0000001C4EC09F007017C6B200E7D6F7F6B75
:101ED000900E7E6F010E806F816B00012DDC640E11
:101EE00007017C6F200E7D6F7F6BE10E7E6F010E10
:101EF000806F816B000120DC200E0701406F416B79
:101F0000000151DEC6EC06F0070138D0000195DE75
:101F100007017C6B2C0E7D6F7F0E7E6F2C0E7F6F0A
:101F2000090E806F010E816F0001C4EC09F00701FA
:101F30007C6B290E7D6F7F6BAC0E7E6F010E806F08
:101F4000816B00019CEC0BF0640E07017C6F290E85
:101F50007D6F7F6BE50E7E6F010E806F816B0001E0
:101F60009CEC0BF0290E0701406F416B00011BDE5A
:101F7000C6EC06F0070102D00001070164D200019F
:101F8000070161D2000107013E51010A000103E08F
:101F9000030A4DE098D00701486B000199EC06F068
:101FA00007017C6B7D6B7F6B6A0E7E6F010E806F0D
:101FB000816F00019CEC0BF007017C6B090E7D6FBB
:101FC0007F0E7E6F090E7F6F020E806F010E816F94
:101FD0000001C4EC09F007017C6B110E7D6F7F0ED0
:101FE0007E6F110E7F6F090E806F010E816F0001F1
:101FF000C4EC09F007017C6B0E0E7D6F7F6B7A0ECF
:102000007E6F010E806F816B00019CEC0BF007016D
:102010007C6B170E7D6F7F6B840E7E6F010E806F61
:10202000816F00019CEC0BF0C6EC06F04CD0070170
:10203000486B000199EC06F007017C6B7D6B7F6BB0
:102040006A0E7E6F010E806F816F00019CEC0BF0B9
:1020500007017C6B090E7D6F7F0E7E6F090E7F6F0F
:10206000020E806F010E816F0001C4EC09F00701C0
:102070007C6B0E0E7D6F7F6B7A0E7E6F010E806F14
:10208000816F00019CEC0BF007017C6B1A0E7D6FD9
:102090007F0E7E6F1A0E7F6F090E806F010E816FAB
:1020A0000001C4EC09F007017C6B170E7D6F7F6B9C
:1020B000840E7E6F010E806F816B00019CEC0BF033
:1020C000C6EC06F000D00701BED1000107013E5169
:1020D000010A000103E0030A4DE098D00701486BB4
:1020E000000199EC06F007017C6B7D6B7F6B900E15
:1020F0007E6F010E806F816F00019CEC0BF0070179
:102100007C6B090E7D6F7F0E7E6F090E7F6F020E56
:10211000806F010E816F0001C4EC09F007017C6B38
:10212000110E7D6F7F0E7E6F110E7F6F090E806F17
:10213000010E816F0001C4EC09F007017C6B0E0EEB
:102140007D6F7F6B990E7E6F010E806F816B00013A
:102150009CEC0BF007017C6B170E7D6F7F6BA20E62
:102160007E6F010E806F816F00019CEC0BF0C6EC5E
:1021700006F04CD00701486B000199EC06F007010E
:102180007C6B7D6B7F6B900E7E6F010E806F816F1D
:1021900000019CEC0BF007017C6B090E7D6F7F0E3C
:1021A0007E6F090E7F6F020E806F010E816F00013E
:1021B000C4EC09F007017C6B0E0E7D6F7F6B990EEE
:1021C0007E6F010E806F816F00019CEC0BF00701A8
:1021D0007C6B1A0E7D6F7F0E7E6F1A0E7F6F090E5D
:1021E000806F010E816F0001C4EC09F007017C6B68
:1021F000170E7D6F7F6BA20E7E6F010E806F816B5D
:1022000000019CEC0BF0C6EC06F000D007011BD1DE
:10221000000107013E51010A000106E0030A5DE0EA
:10222000010AD8B4B3D00BD10701486B000199EC77
:1022300006F007017C6B7D6B7F6BAC0E7E6F010E31
:10224000806F816F00019CEC0BF007017C6B090E25
:102250007D6F7F0E7E6F090E7F6F020E806F010E05
:10226000816F0001C4EC09F007017C6B110E7D6FDA
:102270007F0E7E6F110E7F6F090E806F010E816FD2
:102280000001C4EC09F007017C6B0E0E7D6F7F6BC3
:10229000B70E7E6F010E806F816B00019CEC0BF01E
:1022A00007017C6B170E7D6F7F6BBD0E7E6F010E7D
:1022B000806F816F00019CEC0BF007017C6B200E9E
:1022C0007D6F7F6BC40E7E6F010E806F816F00018A
:1022D0009CEC0BF0C6EC06F0B2D00701486B000195
:1022E00099EC06F007017C6B7D6B7F6BAC0E7E6F0B
:1022F000010E806F816F00019CEC0BF007017C6B7D
:10230000090E7D6F7F0E7E6F090E7F6F020E806F4C
:10231000010E816F0001C4EC09F007017C6B0E0E09
:102320007D6F7F6BB70E7E6F010E806F816F000136
:102330009CEC0BF007017C6B1A0E7D6F7F0E7E6F9D
:102340001A0E7F6F090E806F010E816F0001C4ECC1
:1023500009F007017C6B170E7D6F7F6BBD0E7E6FE2
:10236000010E806F816B00019CEC0BF007017C6B10
:10237000200E7D6F7F6BC40E7E6F010E806F816FAC
:1023800000019CEC0BF0C6EC06F059D00701486B3D
:10239000000199EC06F007017C6B7D6B7F6BAC0E46
:1023A0007E6F010E806F816F00019CEC0BF00701C6
:1023B0007C6B090E7D6F7F0E7E6F090E7F6F020EA4
:1023C000806F010E816F0001C4EC09F007017C6B86
:1023D0000E0E7D6F7F6BB70E7E6F010E806F816F6B
:1023E00000019CEC0BF007017C6B170E7D6F7F6B7F
:1023F000BD0E7E6F010E806F816F00019CEC0BF0B3
:1024000007017C6B230E7D6F7F0E7E6F230E7F6F27
:10241000090E806F010E816F0001C4EC09F0070105
:102420007C6B200E7D6F7F6BC40E7E6F010E806F04
:10243000816B00019CEC0BF0C6EC06F000D00701AC
:1024400002D0000107010001000CE824F76AF7360A
:10245000650FF66E240EF7220A00F550FA6E08009A
:10246000F550F96EF01D3E1EA61E0E1FE824F76AF9
:10247000F736870FF66E240EF7220A00F550FA6E33
:102480000800F550F96EDC1D801F861FCC2012223B
:10249000006A016A07014F51D89050B100260032FE
:1024A000013250B300260032013250B5002600320E
:1024B000013250B700260032013250B900260032F6
:1024C000013250BB00260032013250BD00260032DE
:1024D000013250BF0026003201320001DEEF12F05F
:1024E00007014D6B4B6B0A0E4C6F4A6B48514911FB
:1024F00003E1000E016EC3D04D514D2B036A4825F8
:10250000E96E49510320EA6EEFCF4EF74E512D0888
:102510000DE1010E4B6F4D514D2B036A4825E96EBD
:1025200049510320EA6EEFCF4EF70DD04E512B08E4
:102530000AE14D514D2B036A4825E96E49510320AC
:10254000EA6EEFCF4EF74E512F08D8B090D04E51D3
:102550003908D8A08CD04E51300821E1036A4D5182
:102560004825E96E49510320EA6EEF5078080AE0E9
:10257000036A4D514825E96E49510320EA6EEF5038
:1025800058080DE1100E4C6F4D2B4D514D2B036A29
:102590004825E96E49510320EA6EEFCF4EF74C51C2
:1025A0000A081DE14E512F0819E24E51390816E371
:1025B0000A0E4F6F4AC750F700016AD7300E070165
:1025C0004E5D01244A6F4D514D2B036A4825E96E3B
:1025D00049510320EA6EEFCF4EF7E4D748D04C5173
:1025E000100845E14E51600806E24E517A0803E3B7
:1025F0004E51DF0B01D04E514E6F4E512F0803E26A
:102600004E51390806E24E51400831E24E5146081B
:102610002EE34E512F080CE24E51390809E34A3996
:102620004F6FF00E4F17300E4E5D4F254A6F09D099
:102630004A394F6FF00E4F17410E4E5D0A0F4F256E
:102640004A6F4D514D2B036A4825E96E49510320CD
:10265000EA6EEFCF4EF74E51600806E24E517A080F
:1026600003E34E51DF0B01D04E514E6FC6D74B2DB9
:1026700004D04C510A0801E14A6D4AC701F000013B
:10268000000C07015F6B606B010E616FDA6AD96A3B
:10269000070E646F570E636F070EEA6E5B0EE96EEE
:1026A00064C7E2FF63C7E1FF61C762F7D890E550F6
:1026B000EE02F3505F23F4506023622FF7D75FC719
:1026C000DEFF60C75FF7606BD8B0602B632BD8B4B8
:1026D000642B612B61510508DFE1000101EF14F06B
:1026E000D8B204D0070EEA6E670EE96E0701625198
:1026F0006619800B6C6F62AF0BD05F1F601F611F8C
:10270000621F5F2BD8B4602BD8B4612BD8B4622B76
:1027100066AF0BD0631F641F651F661F632BD8B4A1
:10272000642BD8B4652BD8B4662B006A016A026AA0
:10273000036A676B686B696B6A6B6651651164113C
:1027400063112CE0200E6B6FD8905F3760376137D4
:1027500062376737683769376A3766516A5D08E1FB
:102760006551695D05E16451685D02E16351675D32
:102770000FE36351675F6451D8A0643D685F6551A2
:10278000D8A0653D695F6651D8A0663D6A5FD88074
:1027900000360136023603366B2FD6D76CAF0BD01E
:1027A000001E011E021E031E002AD8B4012AD8B43E
:1027B000022AD8B4032A67C7EFFF68C7ECFF69C7CE
:1027C000ECFF6AC7ECFF0001000C0701526B516B74
:1027D000506B010E4F6F546B556B4BBF01D01AD02D
:1027E000010E546F4BC75AF74AC759F749C758F7F4
:1027F00048C757F7FF0E5E6F5D6F5C6F5B6F000140
:1028000040D703C04BF702C04AF701C049F700C0E8
:1028100048F707014F5306E1505304E1515302E1D9
:1028200052536DE0D8924BC762F74AC761F749C768
:1028300060F748C75FF7666B656B646B4CC763F7FF
:1028400000014EDF03C052F702C051F701C050F73C
:1028500000C04FF7036A070155514D25016E4E51D7
:10286000032201C057F703C058F7EACF5AF7E9CF60
:1028700059F7D882070EEA6E5B0EE96E4BC762F716
:102880004AC761F749C760F748C75FF7666B656B72
:10289000646B4CC763F7000123DF5AC7EAFF59C7CF
:1028A000E9FF300E07015B25006E000E5C21000E73
:1028B0005D21000E5E2158C7EAFF57C7E9FF00C03F
:1028C000EFFF036A55514D25E96E4E510320EA6E24
:1028D000EF5039080AE2036A55514D25E96E4E5111
:1028E0000320EA6E070EEF24EF6E552B52C74BF70D
:1028F00051C74AF750C749F74FC748F78BD7542DF0
:102900000AD0036A55514D25E96E4E510320EA6EF7
:102910002D0EEF6E552B536BD8905531535D2FE232
:10292000036A53514D25E96E4E510320EA6EEFCFF5
:1029300056F7036A53514D25016E4E51032203C0D1
:1029400058F75351555DFF0F036A4D25E96E4E51FF
:102950000320EA6EEFCF59F758C7EAFF01C0E9FF3D
:1029600059C7EFFF5351555DFF0F036A4D25E96EBF
:102970004E510320EA6E56C7EFFF532BCDD7036AA3
:1029800055514D25E96E4E510320EA6EEF6A4DC751
:1029900001F04EC702F00001000C0701486B000176
:1029A00099EC06F007017C6B7D6B7F6B5C0E7E6F94
:1029B000010E806F816F00019CEC0BF007017C6BB6
:1029C000090E7D6F7F0E7E6F090E7F6F020E806F86
:1029D000010E816F0001C4EC09F0050E07017C6F48
:1029E000140E7D6F190E7E6F230E7F6F806B010EAC
:1029F000816F000174EC08F0090E07017C6F180E5E
:102A00007D6F7F6BCC0E7E6F010E806F816F00013A
:102A10009CEC0BF0230E07017C6F140E7D6F370EBC
:102A20007E6F230E7F6F806B010E816F000174EC4F
:102A300008F0270E07017C6F180E7D6F7F6BCF0E9D
:102A40007E6F010E806F816F00019CEC0BF0410ED8
:102A500007017C6F140E7D6F550E7E6F230E7F6F06
:102A6000806B010E816F000174EC08F0450E0701C8
:102A70007C6F180E7D6F7F6BD20E7E6F010E806FA4
:102A8000816F00019CEC0BF0050E07017C6F2D0E91
:102A90007D6F190E7E6F3C0E7F6F806B010E816F14
:102AA000000174EC08F0090E07017C6F310E7D6F98
:102AB0007F6BD50E7E6F010E806F816F00019CECE5
:102AC0000BF0230E07017C6F2D0E7D6F370E7E6F8E
:102AD0003C0E7F6F806B010E816F000174EC08F07B
:102AE000270E07017C6F310E7D6F7F6BD80E7E6FD6
:102AF000010E806F816F00019CEC0BF0410E07010D
:102B00007C6F2D0E7D6F550E7E6F3C0E7F6F806B40
:102B1000010E816F000174EC08F0450E07017C6F17
:102B2000310E7D6F7F6BDB0E7E6F010E806F816FCC
:102B300000019CEC0BF0C6EC06F0B2EC0EF04D2C54
:102B400007D0010E3D263D50060802E2010E3D6E03
:102B50004A2C06D0010E3D5E3D5202E1060E3D6E4E
:102B6000482C02D00A0E3D6E010E3D5CF60FD8B027
:102B700083EF1BF00A0F8CEF1BF0410E07017C6FF7
:102B80002D0E7D6F550E7E6F3C0E7F6F010E806F98
:102B9000816B000174EC08F0410E07017C6F2D0E73
:102BA0007D6F550E7E6F3C0E7F6F806B010E816FC7
:102BB000000174EC08F0450E07017C6F310E7D6F4B
:102BC0007F6BDB0E7E6F010E806F816F00019CECCE
:102BD0000BF0230E07017C6F140E7D6F370E7E6F96
:102BE000230E7F6F010E806F816B000174EC08F083
:102BF000230E07017C6F140E7D6F370E7E6F230E40
:102C00007F6F806B010E816F000174EC08F0270E5E
:102C100007017C6F180E7D6F7F6BCF0E7E6F010EEC
:102C2000806F816F00019CEC0BF044524FE1462C09
:102C30004DD00701496BCC0E486F000151DC01C03B
:102C40003EF7010E07013E5F3E5315E1000E026E96
:102C50000C0E016E760E006E036A0050CF0809E17B
:102C6000015207E1025205E1035203E11C0E3E6FDF
:102C700002D01F0E3E6F4B6B4A6B496B3EC748F745
:102C80000A0E4C6F4E6BCC0E4D6F00019EDD050E93
:102C900007017C6F140E7D6F190E7E6F230E7F6F00
:102CA000010E806F816F000174EC08F0090E0701BE
:102CB0007C6F180E7D6F7F6BCC0E7E6F010E806F68
:102CC000816B00019CEC0BF0C6EC06F0442C3DD06F
:102CD00046523BE10701496BCC0E486F000100DC16
:102CE00001C03FF7010E07013F273F51200802E1D5
:102CF000010E3F6F4B6B4A6B496B3FC748F70A0E9B
:102D00004C6F4E6BCC0E4D6F00015FDD050E070161
:102D10007C6F140E7D6F190E7E6F230E7F6F010E78
:102D2000806F816F000174EC08F0090E07017C6F61
:102D3000180E7D6F7F6BCC0E7E6F010E806F816BE6
:102D400000019CEC0BF0C6EC06F083EF1BF0050EC7
:102D500007017C6F140E7D6F190E7E6F230E7F6F3F
:102D6000010E806F816B000174EC08F0050E070105
:102D70007C6F140E7D6F190E7E6F230E7F6F806B3C
:102D8000010E816F000174EC08F0090E07017C6FE1
:102D9000180E7D6F7F6BCC0E7E6F010E806F816F82
:102DA00000019CEC0BF0410E07017C6F140E7D6F4F
:102DB000550E7E6F230E7F6F010E806F816B0001B9
:102DC00074EC08F0410E07017C6F140E7D6F550EF8
:102DD0007E6F230E7F6F806B010E816F000174EC9C
:102DE00008F0450E07017C6F180E7D6F7F6BD20EC9
:102DF0007E6F010E806F816F00019CEC0BF04452DE
:102E00003DE1462C3BD00701496BCF0E486F0001D6
:102E100070EC12F001C040F7010E0701405F405313
:102E200002E10C0E406F4B6B4A6B496B40C748F791
:102E30000A0E4C6F4E6BCF0E4D6F0001C6DC230E99
:102E400007017C6F140E7D6F370E7E6F230E7F6F30
:102E5000010E806F816F000174EC08F0270E0701EE
:102E60007C6F180E7D6F7F6BCF0E7E6F010E806FB3
:102E7000816B00019CEC0BF0C6EC06F0442C3ED0BC
:102E800046523CE10701496BCF0E486F000170ECE0
:102E900012F001C041F7010E0701412741510D0811
:102EA00002E1010E416F4B6B4A6B496B41C748F71A
:102EB0000A0E4C6F4E6BCF0E4D6F000186DC230E59
:102EC00007017C6F140E7D6F370E7E6F230E7F6FB0
:102ED000010E806F816F000174EC08F0270E07016E
:102EE0007C6F180E7D6F7F6BCF0E7E6F010E806F33
:102EF000816B00019CEC0BF0C6EC06F083EF1BF03D
:102F0000230E07017C6F140E7D6F370E7E6F230E2C
:102F10007F6F010E806F816B000174EC08F0230E4F
:102F200007017C6F140E7D6F370E7E6F230E7F6F4F
:102F3000806B010E816F000174EC08F0270E070111
:102F40007C6F180E7D6F7F6BCF0E7E6F010E806FD2
:102F5000816F00019CEC0BF0050E07017C6F2D0EBC
:102F60007D6F190E7E6F3C0E7F6F010E806F816B3F
:102F7000000174EC08F0050E07017C6F2D0E7D6FCB
:102F8000190E7E6F3C0E7F6F806B010E816F00010A
:102F900074EC08F0090E07017C6F310E7D6F7F6BBA
:102FA000D50E7E6F010E806F816F00019CEC0BF0DF
:102FB00044523EE1462C3CD00701496BD20E486F8B
:102FC000000170EC12F001C042F7010E0701425FF0
:102FD000425302E1630E426F4B6B4A6B496B42C72F
:102FE00048F70A0E4C6F4E6BD20E4D6F0001E5ECA8
:102FF00013F0410E07017C6F140E7D6F550E7E6F2E
:10300000230E7F6F010E806F816F000174EC08F05A
:10301000450E07017C6F180E7D6F7F6BD20E7E6FA1
:10302000010E806F816B00019CEC0BF0C6EC06F08A
:10303000442C3ED046523CE10701496BD20E486F0A
:10304000000170EC12F001C043F7010E07014327A5
:103050004351630801E1436B4B6B4A6B496B43C7B8
:1030600048F70A0E4C6F4E6BD20E4D6F0001E5EC27
:1030700013F0410E07017C6F140E7D6F550E7E6FAD
:10308000230E7F6F010E806F816F000174EC08F0DA
:10309000450E07017C6F180E7D6F7F6BD20E7E6F21
:1030A000010E806F816B00019CEC0BF0C6EC06F00A
:1030B0002AD3410E07017C6F140E7D6F550E7E6F73
:1030C000230E7F6F010E806F816B000174EC08F09E
:1030D000410E07017C6F140E7D6F550E7E6F230E1F
:1030E0007F6F806B010E816F000174EC08F0450E5C
:1030F00007017C6F180E7D6F7F6BD20E7E6F010E05
:10310000806F816F00019CEC0BF0230E07017C6F38
:103110002D0E7D6F370E7E6F3C0E7F6F010E806F20
:10312000816B000174EC08F0230E07017C6F2D0EFB
:103130007D6F370E7E6F3C0E7F6F806B010E816F4F
:10314000000174EC08F0270E07017C6F310E7D6FD3
:103150007F6BD80E7E6F010E806F816F00019CEC3B
:103160000BF044523EE1462C3CD00701496BD50E92
:10317000486F000170EC12F001C044F7010E070126
:10318000445F445302E10C0E446F4B6B4A6B496B36
:1031900044C748F70A0E4C6F4E6BD50E4D6F0001B9
:1031A000E5EC13F0050E07017C6F2D0E7D6F190EF7
:1031B0007E6F3C0E7F6F010E806F816F000174EC9B
:1031C00008F0090E07017C6F310E7D6F7F6BD50E05
:1031D0007E6F010E806F816B00019CEC0BF0C6ECE2
:1031E00006F0442C3FD046523DE10701496BD50E15
:1031F000486F000170EC12F001C045F7010E0701A5
:10320000452745510B0802E2010E456F4B6B4A6B97
:10321000496B45C748F70A0E4C6F4E6BD50E4D6F84
:103220000001E5EC13F0050E07017C6F2D0E7D6F9C
:10323000190E7E6F3C0E7F6F010E806F816F000153
:1032400074EC08F0090E07017C6F310E7D6F7F6B07
:10325000D50E7E6F010E806F816B00019CEC0BF030
:10326000C6EC06F050D2050E07017C6F2D0E7D6F67
:10327000190E7E6F3C0E7F6F010E806F816B000117
:1032800074EC08F0050E07017C6F2D0E7D6F190E92
:103290007E6F3C0E7F6F806B010E816F000174ECBE
:1032A00008F0090E07017C6F310E7D6F7F6BD50E24
:1032B0007E6F010E806F816F00019CEC0BF0410E60
:1032C00007017C6F2D0E7D6F550E7E6F3C0E7F6F5C
:1032D000010E806F816B000174EC08F0410E070154
:1032E0007C6F2D0E7D6F550E7E6F3C0E7F6F806B59
:1032F000010E816F000174EC08F0450E07017C6F30
:10330000310E7D6F7F6BDB0E7E6F010E806F816FE4
:1033100000019CEC0BF044523EE1462C3CD00701EE
:10332000496BD80E486F000170EC12F001C046F7EF
:103330000701465302E13C0E466F010E465F4B6BA0
:103340004A6B496B46C748F70A0E4C6F4E6BD80E56
:103350004D6F0001E5EC13F0230E07017C6F2D0E7D
:103360007D6F370E7E6F3C0E7F6F010E806F816F19
:10337000000174EC08F0270E07017C6F310E7D6FA1
:103380007F6BD80E7E6F010E806F816B00019CEC0D
:103390000BF0C6EC06F0442C3ED046523CE107014F
:1033A000496BD80E486F000170EC12F001C047F76E
:1033B000010E0701472747513B0801E2476B4B6B62
:1033C0004A6B496B47C748F70A0E4C6F4E6BD80ED5
:1033D0004D6F0001E5EC13F0230E07017C6F2D0EFD
:1033E0007D6F370E7E6F3C0E7F6F010E806F816F99
:1033F000000174EC08F0270E07017C6F310E7D6F21
:103400007F6BD80E7E6F010E806F816B00019CEC8C
:103410000BF0C6EC06F077D1230E07017C6F2D0E62
:103420007D6F370E7E6F3C0E7F6F010E806F816B5C
:10343000000174EC08F0230E07017C6F2D0E7D6FE8
:10344000370E7E6F3C0E7F6F806B010E816F000127
:1034500074EC08F0270E07017C6F310E7D6F7F6BD7
:10346000D80E7E6F010E806F816F00019CEC0BF017
:10347000050E07017C6F140E7D6F190E7E6F230EF3
:103480007F6F010E806F816B000174EC08F0050EF8
:1034900007017C6F140E7D6F190E7E6F230E7F6FF8
:1034A000806B010E816F000174EC08F0090E0701BA
:1034B0007C6F180E7D6F7F6BCC0E7E6F010E806F60
:1034C000816F00019CEC0BF0442C01D002D0462C03
:1034D00048D0000E026E080E016E500E006E036A98
:1034E0000050DB0813E1015211E102520FE10352D7
:1034F0000DE1EA6ADB0EE96E000E2AEC04F00A0028
:103500000900F550EE6E0009FBE10CD0EA6ADB0E13
:10351000E96E000E20EC04F00A000900F550EE6E92
:103520000009FBE1410E07017C6F2D0E7D6F550EEA
:103530007E6F3C0E7F6F010E806F816F000174EC17
:1035400008F0450E07017C6F310E7D6F7F6BDB0E3F
:103550007E6F010E806F816B00019CEC0BF0C6EC5E
:1035600006F0D1D00701486B000199EC06F0070185
:103570007C6B7D6B7F6B5C0E7E6F010E806F816F4D
:1035800000019CEC0BF007017C6B090E7D6F7F0E38
:103590007E6F090E7F6F020E806F010E816F00013A
:1035A000C4EC09F0050E07017C6F140E7D6F190E37
:1035B0007E6F230E7F6F806B010E816F000174ECB4
:1035C00008F0090E07017C6F180E7D6F7F6BCC0E23
:1035D0007E6F010E806F816F00019CEC0BF0230E5B
:1035E00007017C6F140E7D6F370E7E6F230E7F6F89
:1035F000806B010E816F000174EC08F0270E07014B
:103600007C6F180E7D6F7F6BCF0E7E6F010E806F0B
:10361000816F00019CEC0BF0410E07017C6F140ED2
:103620007D6F550E7E6F230E7F6F806B010E816F55
:10363000000174EC08F0450E07017C6F180E7D6FD9
:103640007F6BD20E7E6F010E806F816F00019CEC4C
:103650000BF0050E07017C6F2D0E7D6F190E7E6F2E
:103660003C0E7F6F806B010E816F000174EC08F0DF
:10367000090E07017C6F310E7D6F7F6BD50E7E6F5B
:10368000010E806F816F00019CEC0BF0230E07018F
:103690007C6F2D0E7D6F370E7E6F3C0E7F6F806BC3
:1036A000010E816F000174EC08F0270E07017C6F9A
:1036B000310E7D6F7F6BD80E7E6F010E806F816F34
:1036C00000019CEC0BF0410E07017C6F2D0E7D6F0D
:1036D000550E7E6F3C0E7F6F806B010E816F000177
:1036E00074EC08F0450E07017C6F310E7D6F7F6B27
:1036F000DB0E7E6F010E806F816F00019CEC0BF082
:10370000C6EC06F000D03E6A3D500A0801E102D046
:103710009DEF15F0AFEF1BF0E824F76AF736330F93
:10372000F66E370EF7220A00F550FA6E0800F550D3
:10373000F96E7A2B4E2D002FB230663218340637D0
:10374000063706376435010E07013D5DFC0FD8B022
:10375000D9D0040F000128EF1DF0CDEF14F03C6A22
:1037600075D10701CFD000010701486B000199EC2A
:1037700006F007017C6B7D6B7F6B6A0E7E6F010E1E
:10378000806F816F00019CEC0BF007017C6B090ED0
:103790007D6F7F0E7E6F090E7F6F020E806F010EB0
:1037A000816F0001C4EC09F007017C6B0E0E7D6F88
:1037B0007F6B7A0E7E6F010E806F816F00019CEC33
:1037C0000BF007017C6B170E7D6F7F6B840E7E6F95
:1037D000010E806F816F00019CEC0BF0C6EC06F0CF
:1037E0003C6A07018FD000010701486B000199EC8A
:1037F00006F007017C6B7D6B7F6B900E7E6F010E78
:10380000806F816F00019CEC0BF007017C6B090E4F
:103810007D6F7F0E7E6F090E7F6F020E806F010E2F
:10382000816F0001C4EC09F007017C6B0E0E7D6F07
:103830007F6B990E7E6F010E806F816F00019CEC93
:103840000BF007017C6B170E7D6F7F6BA20E7E6FF6
:10385000010E806F816F00019CEC0BF0C6EC06F04E
:103860003C6A07014FD000010701486B000199EC49
:1038700006F007017C6B7D6B7F6BAC0E7E6F010EDB
:10388000806F816F00019CEC0BF007017C6B090ECF
:103890007D6F7F0E7E6F090E7F6F020E806F010EAF
:1038A000816F0001C4EC09F007017C6B0E0E7D6F87
:1038B0007F6BB70E7E6F010E806F816F00019CECF5
:1038C0000BF007017C6B170E7D6F7F6BBD0E7E6F5B
:1038D000010E806F816F00019CEC0BF007017C6B87
:1038E000200E7D6F7F6BC40E7E6F010E806F816F27
:1038F00000019CEC0BF0C6EC06F03C6A070102D01C
:10390000000107010001B2EC0EF044520AE1462C1E
:1039100008D0010E3C263CC03EF73DC73FF7E5EC22
:103920000EF0442C0AD0465208E1010E3C5E3CC029
:103930003EF73DC73FF7E5EC0EF04A2C03D03C6A5A
:103940003E6A83D0482C7FD007013D51020A000116
:1039500005E0010A24E0070A43E072D03C50010A66
:1039600003E0030A0EE01AD0EA6ADE0EE96E000EEA
:10397000DBEC03F00A000900F550EE6E0009FBE1F4
:103980000DD0EA6ADE0EE96E000EE4EC03F00A00E8
:103990000900F550EE6E0009FBE100D051D03C501B
:1039A000010A03E0030A0EE01AD0EA6AE10EE96EAA
:1039B000000EEDEC03F00A000900F550EE6E000970
:1039C000FBE10DD0EA6AE10EE96E000EF7EC03F0C0
:1039D0000A000900F550EE6E0009FBE100D030D07E
:1039E0003C50010A05E0030A10E0010A1BE027D061
:1039F000EA6AE50EE96E000E01EC04F00A00090027
:103A0000F550EE6E0009FBE11AD0EA6AE50EE96EA8
:103A1000000E0BEC04F00A000900F550EE6E0009F0
:103A2000FBE10DD0EA6AE50EE96E000E16EC04F03B
:103A30000A000900F550EE6E0009FBE100D000D04D
:103A40003C6A3E6A02D03E6A5ED73E6A61EF1DF074
:103A5000E824F76AF7366B0FF66E3A0EF7220A0083
:103A6000F550FA6E0800F550F96E5A376837E837A6
:103A700068381DEC0EF0B2EC0EF0482C01D027D0C7
:103A800044520BE1462C09D0010E3C263CC03EF7C7
:103A900007013F6B0001E5EC0EF0442C0BD04652C1
:103AA00009E1010E3C5E3CC03EF707013F6B00019F
:103AB000E5EC0EF04D2C09D03C5203E03CC03DF744
:103AC00042D63C5202E11DEC0EF03E6AD4D7000C07
:103AD0003B503A5CFDE0036A3B501A0FE96E000E62
:103AE0000320EA6EEFCF3DF70701010E3B241F0BC9
:103AF0003B6E3DC701F000019EEF27F007013F6BD1
:103B00003F510E080AE3036A3F513D25E96E3E51DD
:103B10000320EA6EEF6A3F2BF3D70001000C070188
:103B2000436B416B0A0E426F406B3F6B3D513E1140
:103B300004E1000E016E026EE9D04351432B036A8B
:103B40003D25E96E3E510320EA6EEFCF44F7445124
:103B50002D080DE1010E416F4351432B036A3D25B2
:103B6000E96E3E510320EA6EEFCF44F70DD0445189
:103B70002B080AE14351432B036A3D25E96E3E5170
:103B80000320EA6EEFCF44F744512F08D8B0B0D0ED
:103B900044513908D8A0ACD04451300821E1036A1F
:103BA00043513D25E96E3E510320EA6EEF507808FF
:103BB0000AE0036A43513D25E96E3E510320EA6E57
:103BC000EF5058080DE1100E426F432B4351432B29
:103BD000036A3D25E96E3E510320EA6EEFCF44F7BC
:103BE00042510A0824E144512F0820E24451390887
:103BF0001DE39E6B0A0E9D6F40C7A0F73FC79FF75E
:103C000000019AEC09F0300E0701445D01243F6F7A
:103C1000000E0220406F4351432B036A3D25E96E9D
:103C20003E510320EA6EEFCF44F7DDD761D0425119
:103C300010085EE14451600806E244517A0803E34B
:103C40004451DF0B01D04451446F44512F0803E22B
:103C50004451390806E2445140084AE244514608BA
:103C600047E344512F0819E24451390816E33F3520
:103C7000456F4035466F45374637453746374537F8
:103C80004637F00E4517300E445D4525016E000E97
:103C9000462101C03FF7406F16D03F35456F403594
:103CA000466F453746374537463745374637F00E76
:103CB0004517410E445D0A0F4525016E000E462151
:103CC00001C03FF7406F4351432B036A3D25E96E26
:103CD0003E510320EA6EEF50446F600806E2445103
:103CE0007A0803E34451DF0B01D04451446FADD750
:103CF00042510A0807E1412D05D03F1F401F3F2BCD
:103D0000D8B4402B3FC701F040C702F00001FEEFDE
:103D100027F0D8B204D0070EEA6E520EE96E006AA0
:103D2000016A026A036A0701526B536B546B556B4D
:103D3000515150114F114E112CE0200E566FD8905A
:103D40004A374B374C374D3752375337543755373F
:103D50005151555D08E15051545D05E14F51535D9E
:103D600002E14E51525D0FE34E51525F4F51D8A0C8
:103D70004F3D535F5051D8A0503D545F5151D8A092
:103D8000513D555FD8800036013602360336562F36
:103D9000D6D752C7EFFF53C7ECFF54C7ECFF55C748
:103DA000ECFF0001000CEDC6EAFFECC6E9FF0701DD
:103DB0004AC7EFFFE92AD8B4EA2AEF6A0601EC2BDA
:103DC000D8B4ED2B0001000CE9500701426F3B0E07
:103DD000496F9A0E486FCA0E476F466B0A0E446FC2
:103DE0004151D8A44207D882070EEA6E3D0EE96E13
:103DF00040C74DF73FC74CF73EC74BF73DC74AF7A3
:103E000049C751F748C750F747C74FF746C74EF75E
:103E100000017FDF0150005213E107014129445D99
:103E2000D8A402D000010CD042510CE00F0B445D2D
:103E300001E01EE242BF1CD042BD04D0200E12D0D1
:103E40000701426B4151445D0CE100C042F72E0E68
:103E50004A6F0001A8DF070142C700F0200E421799
:103E6000000E300E002600C04AF700019CDF07015B
:103E7000D89249C74DF748C74CF747C74BF746C7D5
:103E80004AF7516B506B4F6B0A0E4E6F000141DFCA
:103E900003C049F702C048F701C047F700C046F722
:103EA0000701442FA0D70001000C3EC742F73DC7D1
:103EB00041F742C703F0070141C7E9FF42C7EAFFE4
:103EC000EF5206E0412BD8B4422B0001F2D7070194
:103ED00040C703F03FC7E9FF40C7EAFFEF5213E0D6
:103EE0003FC7E9FF40C7EAFFEFCF45F742C7EAFF08
:103EF00041C7E9FF45C7EFFF412BD8B4422B3F2B09
:103F0000D8B4402BE5D741C7E9FF42C7EAFFEF6AC3
:103F10003DC701F03EC702F00001000C0701426BF3
:103F2000010E3E5D090DF3CF42F7010E3D5DFC0F22
:103F30005DE2040F0001F8EF1FF0030E07014225B8
:103F4000436F030E7C6F43C77DF740C77FF73FC7C2
:103F50007EF7010E806F41C781F700019CEC0BF0EA
:103F6000070144D00001030E07014225436F420EB2
:103F70007C6F43C77DF740C77FF73FC77EF7010ED1
:103F8000806F41C781F700019CEC0BF007012ED038
:103F90000001220E07014225436F030E7C6F43C7C9
:103FA0007DF740C77FF73FC77EF7010E806F41C79F
:103FB00081F700019CEC0BF0070118D00001220EE4
:103FC00007014225436F420E7C6F43C77DF740C710
:103FD0007FF73FC77EF7010E806F41C781F7000171
:103FE0009CEC0BF0070102D0000107010001000C5E
:103FF000E824F76AF7360B0FF66E400EF7220A0038
:10400000F550FA6E0800F550F96E3A3F663F923F60
:10401000BE3F0701456B436B0A0E446F426B416B19
:10402000406B3F6B3D513E1105E1006A016A026A37
:10403000036A3DD14551452B036A3D25E96E3E514A
:104040000320EA6EEFCF46F746512D080DE1010E31
:10405000436F4551452B036A3D25E96E3E510320D0
:10406000EA6EEFCF46F70DD046512B080AE14551D5
:10407000452B036A3D25E96E3E510320EA6EEFCFE2
:1040800046F746512F08D8B0FAD046513908D8A083
:10409000F6D04651300821E1036A45513D25E96ECD
:1040A0003E510320EA6EEF5078080AE0036A45515A
:1040B0003D25E96E3E510320EA6EEF5058080DE1B0
:1040C000100E446F452B4551452B036A3D25E96E83
:1040D0003E510320EA6EEFCF46F744510A0844E10F
:1040E00046512F0840E2465139083DE3D8903F350C
:1040F000486F4035496F41354A6F42354B6F3F3508
:10410000006E4035016E4135026E4235036E003659
:104110000136023603360036013602360336F80E13
:10412000001648510026495101224A5102224B51A2
:10413000032203C042F702C041F701C040F700C0AC
:104140003FF7300E465D3F27000E402341234223B8
:104150004551452B036A3D25E96E3E510320EA6E29
:10416000EFCF46F7BDD78BD044511008D8A487D0E5
:104170004651600806E246517A0803E34651DF0BD8
:1041800001D04651466F46512F0803E24651390887
:1041900007E246514008D8B072D0465146086FE356
:1041A00046512F082DE2465139082AE33F35486F22
:1041B0004035496F41354A6F42354B6F4837493773
:1041C0004A374B37483749374A374B3748374937EB
:1041D0004A374B37F00E4817300E465D4825006EC3
:1041E000000E4921016E000E4A21026E000E4B2185
:1041F000426F02C041F701C040F700C03FF72AD02C
:104200003F35486F4035496F41354A6F42354B6FF6
:10421000483749374A374B37483749374A374B379A
:10422000483749374A374B37F00E4817410E465D3D
:104230000A0F4825006E000E4921016E000E4A212A
:10424000026E000E4B21426F02C041F701C040F7E1
:1042500000C03FF74551452B036A3D25E96E3E51AD
:104260000320EA6EEF50466F600806E246517A0876
:1042700003E34651DF0B01D04651466F84D74451CA
:104280000A080DE1432D0BD03F1F401F411F421F65
:104290003F2BD8B4402BD8B4412BD8B4422B3FC7C6
:1042A00000F040C701F041C702F042C703F000012F
:1042B00079EF28F0F86AD09E078EEA6AE96A196AEF
:1042C000B8960C0EAF6EA20EAC6E900EAB6E3A6A44
:1042D0003B6A3D6A3E6A3F6A010E406E0601EB6B27
:1042E000ED6BEC6BC150C00B0F09C16E070EB46EC5
:1042F000430E4E6E6F0E4F6E6E0E506E660E516E0A
:10430000690E526E670E536E750E546E720E556EB8
:10431000610E566E630E576E690E586E6F0E596EB3
:104320006E0E5A6E5B6A2D0E5C6E460E5D6E650EED
:104330005E6E630E5F6E680E0001606F610E616FEE
:10434000200E626F790E636F200E646F480E656FEA
:104350006F0E666F720E676F610E686F696B2D0E60
:104360006A6F540E6B6F650E6C6F6D0E6D6F700E15
:104370006E6F650E6F6F720E706F610E716F740EDF
:10438000726F750E736F720E746F610E756F200E03
:10439000766F776F786F796B2D0E7A6F7B6F430E28
:1043A0007C6F650E7D6F6C0E7E6F730E7F6F690E76
:1043B000806F750E816F730E826F836B2D0E846F0D
:1043C000856F460E866F610E876F720E886F650E61
:1043D000896F6E0E8A6F680E8B6F650E8C6F690E1B
:1043E0008D6F740E8E6F8F6B2D0E906F500E916FC0
:1043F000720E926F650E936F730E946F690E956FC8
:104400006F0E966F6E0E976F986B2D0E996F9A6F59
:10441000500E9B6F610E9C6F730E9D6F630E9E6FAF
:10442000610E9F6F6C0EA06FA16B2D0EA26FA36F1C
:104430004D0EA46F690EA56F6C0EA66F690EA76F67
:10444000620EA86F610EA96F720EAA6FAB6B2D0E74
:10445000AC6F560EAD6F650EAE6F6C0EAF6F6F0E1C
:10446000B06F630EB16F690EB26F640EB36F610E01
:10447000B46F640EB56FB66B2D0EB76FB86F6D0E5F
:10448000B96F2F0EBA6F730EBB6FBC6B2D0EBD6F65
:10449000BE6F6B0EBF6F6D0EC06F2F0EC16F680EBB
:1044A000C26FC36B2D0EC46FC56F4E0EC66F750EF7
:1044B000C76F640EC86F6F0EC96F730ECA6FCB6B78
:1044C000300ECC6F310ECD6FCE6B300ECF6F310E04
:1044D000D06FD16B300ED26F310ED36FD46BD56FDE
:1044E000300ED66FD76B310ED86F300ED96FDA6BB6
:1044F000410EDB6F4D0EDC6FDD6B430EDE6FDF6B4D
:10450000500EE16F610EE26F200EE36FE46B6D0EF3
:10451000E56F2F0EE66F730EE76F200EE86FE96B05
:104520000401EA6BEB6B1F0EF06FF16FF26BF36B34
:10453000F46B800EF56FF66BF76BF86BF96BFA6B3B
:10454000FB6BFC6BFD6B0C0EFE6F1E0EFF6F380ECF
:104550000501006FF00E016F026FE00E036F046B38
:10456000056B066B076B086B096BC00E0A6FE00EDC
:104570000B6F600E0C6F200E0D6F0E6B0F6B106BC0
:10458000116B126B060E136F0F0E146F2E0E156F3C
:104590001C0E166F176F3C0E186F196F380E1A6FBE
:1045A000E00E1B6F780E1C6FDC0E1D6FFC0E1E6F75
:1045B0001F6FFF0E206FDF0E216FDD0E226FFC0ECE
:1045C000236FBC0E246FFA0E256FF20E266FEE0ECF
:1045D000276F0E0E286F070E296F2A6F2B6B2C6B1F
:1045E0002D6B2E6B2F6B306B080E316F180E326FE8
:1045F000300E336F380E346F3C0E356F1C0E366F35
:10460000376F780E386F180E396F9F0E3A6FBF0EE6
:104610003B6FFF0E3C6F790E3D6FFF0E3E6FEF0E4E
:104620003F6F406F416FF70E426FFB0E436FBF0E3F
:10463000446F3F0E456F1F0E466F020E476F070E09
:10464000486F496F0F0E4A6F070E4B6F010E4C6F8C
:10465000030E4D6F060E4E6F4F6B506B516B526BCE
:10466000536B546B556B566B300E576F7C0E586FF7
:104670000F0E596F5A6F5B6F070E5C6F5D6B5E6B51
:104680005F6B030E606F070E616F0F0E626F0E0E91
:10469000636F060E646F1E0E656F1C0E666F676B90
:1046A000686B696B6A6B6B6B6C6B1F0E6D6F6E6FFB
:1046B0006F6BC00E706FE00E716F200E726F300E58
:1046C000736F100E746F756F300E766F180E776FF4
:1046D000786F780E796F700E7A6F500E7B6FD80EF0
:1046E0007C6F080E7D6F7E6F7F6F180E806F816FFD
:1046F000100E826F300E836F600E846FE00E856F38
:10470000800E866F876B886B896B8A6B8B6B8C6B6B
:104710008D6B8E6B8F6B906B010E916F926F0F0E86
:10472000936F080E946F380E956FF80E966F180EF3
:10473000976F986F080E996F0F0E9A6F030E9B6F0D
:10474000C10E9C6FE00E9D6F600E9E6F200E9F6FDE
:10475000700EA06F100EA16FA26FA36F380EA46F22
:10476000180EA56F0B0EA66F0F0EA76F380EA86F51
:10477000700EA96F400EAA6FC00EAB6F800EAC6FAB
:10478000AD6BAE6BAF6B7C0EB06FC60EB16F860EAD
:10479000B26F820EB36FB46F870EB56F010EB66F36
:1047A000070EB76F0C0EB86F080EB96F180EBA6F00
:1047B000100EBB6F310EBC6F270EBD6F260EBE6F85
:1047C000240EBF6F3C0EC06F200EC16FE00EC26F93
:1047D000C36FC46FC00EC56FC66F400EC76F600E4B
:1047E000C86F3C0EC96F040ECA6FCB6F070ECC6F3B
:1047F000CD6BCE6BCF6BD06BD16BD26BD36B030E0B
:10480000D46F0F0ED56F080ED66F180ED76F100E1F
:10481000D86FD96FDA6F300EDB6F200EDC6FDD6F73
:10482000DE6FDF6F300EE06F100EE16F1D0EE26F76
:10483000070EE36FE46BE56BE66BE76BE86BE96B28
:10484000EA6BEB6BEC6BED6BEE6B1F0EEF6FF06FCB
:10485000F16BF26BC00EF36F600EF46F300EF56FFC
:10486000100EF66F080EF76F0C0EF86F040EF96F4E
:10487000FA6F0C0EFB6F080EFC6F0C0EFD6F040E32
:10488000FE6F060EFF6F020E0601006F016F026FD2
:10489000036F046F060E056F0C0E066F180E076F80
:1048A000100E086F300E096F600E0A6FC00E0B6F8E
:1048B000800E0C6F0D6F0E6B0F6B106B1F0E116F58
:1048C000F10E126F800E136F146B156B166B176B56
:1048D000186B196B1A6B1B6B1C6B1D6B1E6B1F6BA4
:1048E000206B216B226B236B246B256B266B276B54
:1048F000286B296B2A6B2B6B030E2C6FFE0E2D6F12
:104900002E6B2F6B306B316B010E326F430E336F9A
:10491000220E346F320E356F020E366F320E376F45
:104920001A0E386F030E396FC70E3A6F4C0E3B6F7D
:10493000080E3C6F3D6F3E6F440E3F6F640E406F3C
:10494000060E416F030E426FC60E436F040E446F96
:10495000160E456F020E466F220E476FA20E486F6D
:10496000820E496F030E4A6F010E4B6F4C6F4D6BF9
:104970004E6B4F6B0C0E506F020E516F100E526F3C
:10498000180E536F546B030E556F566B080E576F0E
:104990000C0E586F040E596F5A6B5B6B030E5C6FF5
:1049A000090E5D6F5E6B0C0E5F6F606B616B626F0B
:1049B000636B030E646F180E656F080E666F010E51
:1049C000676F686B696B6A6B6B6B6C6B1F0E6D6FDF
:1049D0006E6F6F6BC00E706FE00E716F600E726F56
:1049E000200E736F746F756F780E766F0C0E776F85
:1049F000786F796F080E7A6F0C0E7B6F7C6F180ED4
:104A00007D6F1C0E7E6F040E7F6F060E806F020E90
:104A1000816F826F836F1E0E846F1C0E856FF00E88
:104A2000866FE00E876FC00E886F800E896F8A6F69
:104A30008B6F8C6B8D6B8E6B0F0E8F6F180E906F54
:104A4000300E916F200E926F936F946FE00E956F02
:104A5000966B976B986B996B9A6B9B6B9C6B9D6B32
:104A60009E6B9F6BA06BA16BA26BA36BA46BA56BE2
:104A7000A66FA00EA76F600EA86FA96F330EAA6F66
:104A80001F0EAB6FAC6BAD6B380EAE6F6C0EAF6FB5
:104A9000440EB06F680EB16FF00EB26FB36BC70EFD
:104AA000B46F6C0EB56F280EB66FB76F480EB86F47
:104AB000980EB96F180EBA6F380EBB6F300EBC6F00
:104AC000200EBD6FBE6FBF6FC06F300EC16F100E76
:104AD000C26F180EC36F8C0EC46FC70EC56F010E68
:104AE000C66FC76BC86B800EC96FCA6BCB6BCC6BC4
:104AF000CD6B0E0ECE6F0A0ECF6F0E0ED06FD16B38
:104B0000030ED26F070ED36F040ED46FD56FD66F1E
:104B1000060ED76F030ED86FD96B0E0EDA6F060E26
:104B2000DB6FDC6B1F0EDD6F110EDE6FDF6F1B0E98
:104B3000E06F0E0EE16FE26B030EE36F010EE46FA8
:104B4000E56BE66B3B0EE76F330EE86FE96BEA6BE4
:104B50009D8AF086C00EF2129698D190800ED56E86
:104B6000CD6A000ECA6E000ECB6EB16A070EB46E2F
:104B70009550956E9650966E060E006E002EFED7DE
:104B80000000B450A19CB56AC290010E07013D6FB0
:104B9000000122EF07F0F2CF3DF7F29EAA6A010E64
:104BA000A96EA69CA69EA680A85007013DBFF28EC6
:104BB0000601EE6FF2CF3DF7F29EAA6A020EA96ED1
:104BC000A69CA69EA680A85007013DBFF28E0601B6
:104BD000EF6FF2CF3DF7F29EAA6A030EA96EA69C74
:104BE000A69EA680A85007013DBFF28E0601F06F79
:104BF000EE2D04D0430E0001DE6F0601EE510208D7
:104C000004E1460E0001DE6F0601EF2D04D0500EC8
:104C10000001E16F0601EF51020804E16D0E000191
:104C2000E16F0601F02D04D06D0E0001E56F060165
:104C3000F051020804E16B0E0001E56F0601F0512E
:104C4000030804E14E0E0001E56F0601540E070152
:104C5000376F3A0E386F396B500E3A6F3A0E3B6F22
:104C60003C6B0601F46BF4510E0812E3036AF45135
:104C7000050FE96E070E0320EA6EEF6A036AF4512E
:104C8000140FE96E070E0320EA6EEF6AF42BEBD7E0
:104C900007013D6B0001D5EC08F04050470829E1C1
:104CA00071EF0CF065EF0DF0060E07013D6FFA0E87
:104CB0003E6F0001BEEF0DF007013D2FF8D7000158
:104CC00039EC1DF0406AAA6AA96A40C0A8FFA69CF8
:104CD000A69EA684F250006EF29E0F01550EA76E9E
:104CE000AA0EA76EA682A6B2FED7A6940050F21214
:104CF00000013F2C16D139EC1DF0000E026E0C0E97
:104D0000016EE40E006E036A0050DF5D1DE101528A
:104D10001BE1025219E1035217E1AA6A010EA96EC2
:104D2000A86EA69CA69EA684F250006EF29E0F016D
:104D3000550EA76EAA0EA76EA682A6B2FED7A6949F
:104D40000050F21227D00001000E026E0C0E016E10
:104D5000E60E006E036A0050DF5D1DE101521BE1AB
:104D6000025219E1035217E1AA6A010EA96E020E5E
:104D7000A86EA69CA69EA684F250006EF29E0F011D
:104D8000550EA76EAA0EA76EA682A6B2FED7A6944F
:104D90000050F2120001000E026E0C0E016EE80EC1
:104DA000006E036A0050E25D1EE101521CE10252F6
:104DB0001AE1035218E1AA6A020EA96E010EA86E4A
:104DC000A69CA69EA684F250006EF29E0F01550E80
:104DD000A76EAA0EA76EA682A6B2FED7A694005012
:104DE000F21226D00001000E026E0C0E016EEA0EC9
:104DF000006E036A0050E25D1CE101521AE10252AA
:104E000018E1035216E1AA6A020EA96EA86EA69CCA
:104E1000A69EA684F250006EF29E0F01550EA76E5C
:104E2000AA0EA76EA682A6B2FED7A6940050F212D2
:104E30000001000E026E0C0E016EEC0E006E036A95
:104E40000050E65D1EE101521CE102521AE10352DC
:104E500018E1AA6A030EA96E010EA86EA69CA69E72
:104E6000A684F250006EF29E0F01550EA76EAA0E98
:104E7000A76EA682A6B2FED7A6940050F2124ED01C
:104E80000001000E026E0C0E016EEE0E006E036A43
:104E90000050E65D1EE101521CE102521AE103528C
:104EA00018E1AA6A030EA96E020EA86EA69CA69E21
:104EB000A684F250006EF29E0F01550EA76EAA0E48
:104EC000A76EA682A6B2FED7A6940050F21226D0F4
:104ED0000001000E026E0C0E016EF00E006E036AF1
:104EE0000050E65D1CE101521AE1025218E1035242
:104EF00016E1AA6A030EA96EA86EA69CA69EA684B9
:104F0000F250006EF29E0F01550EA76EAA0EA76E0C
:104F1000A682A6B2FED7A6940050F21200013E6A05
:104F20003F6A0601EB2D03D0EB6B94948B743B50DE
:104F30003A5CD8B438D1000168EF1DF00601F26B7D
:104F400001C0F1F6F151540813E1F25311E1010EE1
:104F5000F36F3C6A3C500E080AE3036A3C50F50FBD
:104F6000E96E060E0320EA6EEF6A3C2AF3D73C6A2C
:104F7000F151500813E1F25311E1020EF36F3C6A54
:104F80003C500E080AE3036A3C50F50FE96E060E2A
:104F90000320EA6EEF6A3C2AF3D73C6AF1510D0810
:104FA00002E1F25300E0F32D77D0F1510D0802E158
:104FB000F2530FE0F151540802E1F2530AE0036AA0
:104FC0003C50F50FE96E060E0320EA6EF1C6EFFFC6
:104FD0003C2AF1510D0860E1F2535EE1070E070132
:104FE0003E6F050E3D6F00017EEC1DF0060E0701C1
:104FF0003E6FF50E3D6F00018FEF1DF002C000F710
:1050000001C0FFF6070E0601ED6F230EEC6F030ED5
:10501000E96E0701406B3F6B00C73EF7FFC63DF7E7
:10502000010E416F0001E4EC1EF0070E07013E6F18
:10503000050E3D6F070E406F370E3F6F000155ECB8
:105040001FF0070E07013E6F050E3D6F070E406F04
:10505000230E3F6F000155EC1FF0070E07013E6F56
:10506000050E3D6F406BDE0E3F6F000155EC1FF0EB
:1050700007013D6B0001D5EC08F0010E07013D6F03
:105080003E6F070E406F050E3F6F416B00018EECC7
:105090001FF0C6EC06F00601F3510208D8A47ED03A
:1050A000F1510D0802E1F2530FE0F151500802E115
:1050B000F2530AE0036A3C50F50FE96E060E032036
:1050C000EA6EF1C6EFFF3C2AF1510D0867E1F25399
:1050D00065E1070E07013E6F140E3D6F00017EEC87
:1050E0001DF0060E07013E6FF50E3D6F000109EF42
:1050F00020F003C004F702C003F701C002F700C0AC
:1051000001F7070E0601ED6F2D0EEC6F030EE96E31
:1051100004C740F703C73FF702C73EF701C73DF793
:10512000010E0701416F0001E4EC1EF0070E0701BC
:105130003E6F140E3D6F070E406F3A0E3F6F000139
:1051400055EC1FF0070E07013E6F140E3D6F070E62
:10515000406F2D0E3F6F000155EC1FF0070E070149
:105160003E6F140E3D6F406BE10E3F6F000155EC3A
:105170001FF007013D6B0001D5EC08F0010E07019F
:105180003D6F020E3E6F070E406F140E3F6F416B76
:1051900000018EEC1FF0C6EC06F006010001C6EC23
:1051A00006F00601C4D60001C6EC06F076D5030071
:020000040030CA
:0E00000000C2190E008681000FC00FE00F40F5
:00000001FF
;PIC18F4680
;CRC=9671  CREATED="11-mar-12 20:14"
