:0405000001EF10F007
:08050800046ED8CF05F0E0CF2E
:1005100006F00001E9CF0CF0EACF07F0E1CF08F0D8
:10052000E2CF09F0D9CF0AF0DACF0BF0F3CF12F017
:10053000F4CF13F0FACF14F000C00EF001C00FF0AA
:1005400002C010F003C011F0F2A8AAEF02F0F2B25C
:10055000E0EF02F09DAAB0EF02F09EBAE3EF02F0E6
:100560000EC000F00FC001F010C002F011C003F087
:100570000CC0E9FF07C0EAFF078E08C0E1FF09C011
:10058000E2FF0AC0D9FF0BC0DAFF12C0F3FF13C0AD
:10059000F4FF14C0FAFF045006C0E0FF05C0D8FF06
:1005A0001000F2CF0DF0F29EF76ABC0FF66E050E4A
:1005B000F7220900F5500DBEF28E1200280C01063C
:1005C000F292B0EF02F09E9AB0EF02F00C582D5765
:1005D00065617468657200000C582D576561746818
:1005E00065720A0054656D70000043000C582D5769
:1005F0006561746865720A0050726573000050612D
:100600000000EA6A8A0EE96EEF500DE0020E016EFC
:10061000006A002EFED7012EFBD7970E006E002E2B
:10062000FED7EF2EF3D7000C58B002D08C9801D033
:100630008C88959858B202D08C9A01D08C8A959A61
:1006400058B402D08C9C01D08C8C959C58B602D0AA
:100650008C9E01D08C8E959E00008A8E939E00D039
:1006600000D08A9E939E000C596A9588000E83B82C
:10067000010E5912958A000E83BA010E006ED890B1
:10068000003600505912958C000E83BC010E006E8E
:1006900000360036FC0E001600505912958E000EE2
:1006A00083BE010E006E003600360036F80E0016CE
:1006B0000050591259C001F0000C9588958A958C0C
:1006C000958E8A8C939C00008A8E939E0000CCDFCE
:1006D00001C058F08A9E939E00008A8E939E00D09F
:1006E000C3DF01C057F08A9E939E9598959A959C7A
:1006F000959E5838006EF00E001600505710016E8F
:1007000085EF03F08A989398D8D701C057F001BEBF
:10071000FBD7555202E18A9801D08A88939800004D
:100720008A9C939C00008A9E939E5638576E0F0EAB
:10073000571657C058F078DF56500F0B576E586E4B
:1007400073DF000C9598959A959C959E939E93982F
:10075000939C8A9893988A9C939C8A9E939E0F0E52
:100760008A6F4FDF010E436E4350030808E3030E08
:10077000586E5ADF050E8A6F44DF432AF5D7020E02
:10078000586E52DF436A435003080EE3036A435036
:10079000F2CF44F0F29E05DF44BEF28E446E556AFD
:1007A000566EB0DF432AEFD724EF10F0C69E9E9618
:1007B0008BC0C9FF020EC6BE05D09EA6FED7000E96
:1007C000C5BC010E016E000CC69CC586C5B6FED721
:1007D00000B0C59A00A0C58AC588C5B8FED7C9CFE4
:1007E00001F0000C640E8A6F0CDFC580C5B0FED727
:1007F000EE0E8B6FDBDF83C08BF0D8DFC582C5B216
:10080000FED7EF0E8B6FD2DF006ADEDF856B01C093
:1008100084F00A0E8A6FF5DEC584C5B4FED7640E77
:100820008A6FEFDEC580C5B0FED7EE0E8B6FBEDFE0
:10083000010E83258A6F8B6FB9DFC582C5B2FED7E3
:10084000EF0E8B6FB3DF006ABFDF876B01C086F0EE
:100850000A0E8A6FD6DEC584C5B4FED784C089F07F
:10086000886B865188138751891388C001F089C02D
:1008700002F0000CAA0E836FB5DF02C01AF001C0AF
:1008800019F0AC0E836FAEDF02C01CF001C01BF08C
:10089000AE0E836FA7DF02C01EF001C01DF0B00EC8
:1008A000836FA0DF02C02AF001C029F0B20E836F6F
:1008B00099DF02C02CF001C02BF0B40E836F92DFE1
:1008C00002C02EF001C02DF0B60E836F8BDF02C088
:1008D00020F001C01FF0B80E836F84DF02C022F049
:1008E00001C021F0BA0E836F7DDF02C024F001C089
:1008F00023F0BC0E836F76DF02C026F001C025F026
:10090000BE0E836F6FDF02C028F001C027F026EF14
:1009100010F0522C01D003D0400E536E01D0536A18
:10092000010E515C532653508009546E556A566E21
:10093000E9DE000C50500C0A05E0060A0BE0020A42
:100940000FE013D0556A010E566EDCDE020E8A6F80
:1009500058DE11D0010E516E020E526EDADF0BD04E
:10096000556A100E566ECEDE06D0010E556E50C082
:1009700056F0C8DE00D0000C0900F5520CE0F6CFAE
:1009800043F0F7CF44F0F5CF50F0D4DF43C0F6FF8B
:1009900044C0F7FFF1D7000C44BE0FD00F0E006E1D
:1009A000433800160A0E005C03E2300E002602D027
:1009B0004450002600C050F0BDDF0F0E43160A0E53
:1009C000435C02E2300E02D0449E4450432643C0B2
:1009D00050F0B0DF000CC580C5B0FED7EE0E8B6FB7
:1009E000E5DEF40E8B6FE2DE2E0E8B6FDFDEC5844C
:1009F000C5B4FED70A0E8A6F04DEF60E836FF2DEF0
:100A00000250000CC580C5B0FED7EE0E8B6FCEDE57
:100A1000F40E8B6FCBDE340E8B6FC8DEC584C5B48D
:100A2000FED7050E8A6FEDDDF60E836FDBDE02501A
:100A3000000CB60E006E036A026A016A83518411CB
:100A40008511861102E1006A0DD0D89001BE09D04F
:100A50008337843785378637033602360136002ED2
:100A6000F4D7019E000C8E0E006E85C001F084C08C
:100A700002F0036A015209E102C001F0026A080EA5
:100A8000005E015202E1006A08D0D89001BE04D095
:100A9000023601360006F9D7019E000C8551D8B404
:100AA00071D0006E8951D8B46DD0002604E3810E58
:100AB000002668E204D07F0E005E64E363E086C037
:100AC0008DF08A518D1B868F8A8F88518C03F4CFCD
:100AD0008FF087518B03F4CF03F0F3CF8EF08C03AC
:100AE000F3508F27F4508E23000E032288518B037E
:100AF000F3508F27F4508E23000E026A0322022245
:100B000086518C03F3508E27F4500322000E0222EC
:100B100086518B03F3500326F4500222000E016A23
:100B2000012288518A03F3508E27F4500322000ECD
:100B30000222012287518A03F3500326F450022235
:100B4000000E012286518A03F3500226F45001223E
:100B5000002A01BE05D08E37033602360136000664
:100B6000000E8EAF0AD0032A02220122015005E1B5
:100B7000025003E1035001E1002A8DBF018E8DAFC9
:100B8000019E04D0006A016A026A036A000C8B515C
:100B9000D8B4A5D0976F8F51D8B4A1D0975F05E393
:100BA0007F0E9727D8B09BD006D0810E975FD8A034
:100BB00096D0D8B494D097C000F0016A026A036A54
:100BC000966B8CC095F0958F8DC094F08EC093F08D
:100BD000190E976F9251935F0DE2010E945F0AE236
:100BE000955F08E2965F06E2962B952B942B925127
:100BF000932728D09151945F12E2010E955F0FE286
:100C0000965F0DE2962B952B915194279251932745
:100C100019E3942B17E1952B15E1962B13D09051E6
:100C20008009955F0EE2010E965F0BE2962B9051C4
:100C30008009952791519427E9E3952BE7E1962BBD
:100C4000E5D70380972F01D00BD0D89093379437F6
:100C500095379637D8900336023601369837BAD78B
:100C600098A106D0D890013202320332983302D0D4
:100C7000000635E098BF1ED0D8909337943795374B
:100C800096379251935F07E2010E945F04E2955FFD
:100C900002E2965F1AE39151945F05E2010E955FBF
:100CA00002E2965F12E390518009955F03E2010E24
:100CB000965F0BE3032A09E1022A07E1012A05E115
:100CC000002A0DE00132023203328CC097F09051BD
:100CD000971B97AF02D0018E06D0019E04D0006A08
:100CE000016A026A036A000C8E0E006E86C001F073
:100CF00085C002F0036A86AF05D0011E021E022ADB
:100D000001E1012A015209E102C001F0026A080E64
:100D1000005E015202E1006A0AD0D89001BE04D000
:100D2000023601360006F9D786BF01D0019E000CBD
:100D3000800ED8B28C1B916B926B88C090F08C5156
:100D4000901B8751D8B4DCD08F6F006E8B51D8B414
:100D5000E0D08F5FD8B481D03DE38CC095F0958F03
:100D60008DC094F08EC093F0926BD89095339433ED
:100D7000933392338F2FF8D790AF03D09181DDD08A
:100D800091918F919189EA6A8A0EE96EE9D09199E1
:100D900090BF0AD08FA113D09533943393339233FD
:100DA000002AD8B4C5D00BD095BF0CD0D8909237BC
:100DB0009337943795370006D8B4BAD0F5D7918DCC
:100DC0006BD0919D88C090F088AF02D0958FA9D04C
:100DD000959FA7D08BC08FF08BC000F087518F5F9D
:100DE00088C095F0958F89C094F08AC093F0926B7B
:100DF000D89095339433933392338F2FF8D790AFA5
:100E000003D091839AD091938F91918BEA6A8E0E41
:100E1000E96EA6D0919B90BF0AD08FA113D09533D5
:100E2000943393339233002AD8B482D00BD095BF39
:100E30000CD0D89092379337943795370006D8B4B2
:100E400077D0F5D7918F28D0919F8CC090F08CAF40
:100E500002D0958F66D0959F64D08CC095F0958F09
:100E60008DC094F08EC093F090AF04D0959F918583
:100E700064D09195926B8F91EA6A8A0EE96E70D078
:100E800090BF1CD088C090F08FA106D095339433CA
:100E900093339233002A4CE092AF0BD0932B09E1AD
:100EA000942B07E1952B05E1953394339333002A76
:100EB0003FE091BD86D791BFC7D71CD0800E951B50
:100EC00095AF04D03AD08CC090F00AD088C090F092
:100ED000955306E1945304E1935302E1006A21D053
:100EE00095BF08D0D8909237933794379537002E16
:100EF000F7D71ED090AF02D0958F13D0959F11D009
:100F00008BC000F08CC095F08DC094F08EC093F033
:100F100008D087C000F088C095F089C094F08AC0DE
:100F200093F095C001F094C002F093C003F034D068
:100F3000006A016A026A036A2FD0926B931F941FA2
:100F4000951F921F922B05E1932B03E1942B01E156
:100F5000952B91B115D791B356D791B58AD7B3D701
:100F6000EF50932705E3942B03E1952BD8B48F81A1
:100F7000ED52EF50942703E3952BD8B48F81ED52B7
:100F8000EF50EFBE01D0800A9527D8B08F8191B97C
:100F9000FED691BB3FD774D7000C8E0E006E8751E2
:100FA000005E88C002F089C001F0028E005209E0A4
:100FB000D890025202E1015204E002320132002EC6
:100FC000F7D788AF05D0011E021E012AD8B4022A25
:100FD000000C84518619800B886F84AF05D0831F65
:100FE000841F832BD8B4842B86AF05D0851F861F22
:100FF000852BD8B4862B83518503F3CF01F0F4CF32
:1010000000F08603F350002684518503F35000203E
:10101000026E88AF05D0011E021E012AD8B4022A32
:101020004AEF0AF084C08BF088518B1B8BAF05D040
:10103000D894D89084BFD8802FD084C08BF087C03C
:101040008CF083518C5F06E08BAF26D0D850010A1C
:10105000D86E22D088C08CF084518C5F06E08BAFB4
:101060001BD0D850010AD86E17D089C08CF085519A
:101070008C5F06E08BAF10D0D850010AD86E0CD030
:101080008AC08CF086518C5F06E08BAF05D0D850BB
:10109000010AD86E01D0D8904CEF0CF09CDC4A6A63
:1010A000496A02C048F001C047F095DC4A6A496AC3
:1010B00002C048F001C047F0A5DC4E6A4D6A02C08C
:1010C0004CF001C04BF09EDC4E6A4D6A02C04CF001
:1010D00001C04BF048C030F047C02FF02D50475CA6
:1010E000006E2E504858016E000E4958026E000ED8
:1010F0004A58036E866F02C085F001C084F000C0BC
:1011000083F097DC03C076F002C075F001C074F084
:1011100000C073F02CC085F02BC084F0A4DC76C036
:1011200088F075C087F074C086F073C085F003C086
:101130008CF002C08BF001C08AF000C089F0AEDCF8
:1011400003C07AF002C079F001C078F000C077F0F7
:101150007AC08EF079C08DF078C08CF077C08BF0BB
:10116000926B916B906B8E0E8F6F11DD03C052F0FE
:1011700002C051F001C050F000C04FF028C086F00E
:1011800027C085F0B1DDD89252C08AF051C089F0F5
:1011900050C088F04FC087F003C08EF002C08DF0C1
:1011A00001C08CF000C08BF0C3DD03C07EF002C034
:1011B0007DF001C07CF000C07BF026C084F025C02B
:1011C00083F026C086F025C085F08EDD03C08EF04A
:1011D00002C08DF001C08CF000C08BF07EC092F098
:1011E0007DC091F07CC090F07BC08FF0D0DC03C05C
:1011F00082F002C081F001C080F000C07FF082C0A8
:1012000088F081C087F080C086F07FC085F08C6B4D
:101210008B6B8A6B8A0E896F41DC03C056F002C06B
:1012200055F001C054F000C053F0D89252C08AF07B
:1012300051C089F050C088F04FC087F056C08EF082
:1012400055C08DF054C08CF053C08BF071DD03C0DD
:101250005AF002C059F001C058F000C057F044C025
:1012600003F043C0E9FF44C0EAFFEACF86F0E9CFCC
:1012700085F0D8925AC08AF059C089F058C088F0D9
:1012800057C087F08E6B8D6B8C6B820E8B6F50DD31
:1012900086C0EAFF85C0E9FF00C087F001C088F082
:1012A00002C089F003C08AF003C08EF002C08DF046
:1012B00001C08CF000C08BF0926B916B906B830E31
:1012C0008F6F65DC03C08AF002C089F001C088F02E
:1012D00000C087F062DE02C0ECFFED5201C0EFFFFC
:1012E000D8825AC08AF059C089F058C088F057C0D7
:1012F00087F08E6B8D6B7A0E8C6F8A0E8B6F18DD7C
:1013000003C05EF002C05DF001C05CF000C05BF0A5
:101310005EC088F05DC087F05CC086F05BC085F081
:101320005EC08CF05DC08BF05CC08AF05BC089F061
:101330004EEC05F003C076F002C075F001C074F009
:1013400000C073F076C08EF075C08DF074C08CF064
:1013500073C08BF0926B916B906B8B0E8F6F17DC61
:1013600003C07AF002C079F001C078F000C077F0D5
:1013700022C086F021C085F0B7DC7AC088F079C041
:1013800087F078C086F077C085F003C08CF002C08B
:101390008BF001C08AF000C089F04EEC05F003C06C
:1013A0007EF002C07DF001C07CF000C07BF07EC00A
:1013B0008EF07DC08DF07CC08CF07BC08BF0926B8A
:1013C000916B906B8A0E8F6FC7EC05F003C052F0E3
:1013D00002C051F001C050F000C04FF01CC084F0BA
:1013E0001BC083F01CC086F01BC085F07DDC03C0F1
:1013F00088F002C087F001C086F000C085F05EC0B2
:101400008CF05DC08BF05CC08AF05BC089F04EEC64
:1014100005F003C076F002C075F001C074F000C0A2
:1014200073F076C08EF075C08DF074C08CF073C010
:101430008BF0926B916B906B8A0E8F6FC7EC05F0FF
:1014400003C056F002C055F001C054F000C053F084
:10145000D89252C08AF051C089F050C088F04FC075
:1014600087F056C08EF055C08DF054C08CF053C03C
:101470008BF05EDC03C062F002C061F001C060F07E
:1014800000C05FF01AC084F019C083F0866B040EB0
:10149000856F9FD502C003F001C085F002C086F0C1
:1014A00023DC03C076F002C075F001C074F000C008
:1014B00073F0D89276C08AF075C089F074C088F055
:1014C00073C087F062C08EF061C08DF060C08CF098
:1014D0005FC08BF02DDC03C07AF002C079F001C050
:1014E00078F000C077F07AC08AF079C089F078C0CF
:1014F00088F077C087F051DD01C033F03350856B41
:10150000846F33EC05F003C07EF002C07DF001C0B3
:101510007CF000C07BF0D8927EC08AF07DC089F05C
:101520007CC088F07BC087F08E6B8D6B8C6B800EDF
:101530008B6F98EC06F003C082F002C081F001C00E
:1015400080F000C07FF082C08EF081C08DF080C03E
:101550008CF07FC08BF0926B916B906B810E8F6FD4
:10156000C7EC05F003C066F002C065F001C064F08E
:1015700000C063F01EC084F01DC083F01EC086F062
:101580001DC085F074EC06F003C088F002C087F03F
:1015900001C086F000C085F05EC08CF05DC08BF0AD
:1015A0005CC08AF05BC089F04EEC05F003C076F0B9
:1015B00002C075F001C074F000C073F076C08EF008
:1015C00075C08DF074C08CF073C08BF0926B916B12
:1015D000906B8C0E8F6FC7EC05F003C052F002C009
:1015E00051F001C050F000C04FF05EC088F05DC007
:1015F00087F05CC086F05BC085F05EC08CF05DC09B
:101600008BF05CC08AF05BC089F04EEC05F003C043
:1016100076F002C075F001C074F000C073F076C0BF
:101620008EF075C08DF074C08CF073C08BF0926B2F
:10163000916B906B8B0E8F6FC7EC05F003C07AF047
:1016400002C079F001C078F000C077F020C086F0C9
:101650001FC085F074EC06F07AC088F079C087F07E
:1016600078C086F077C085F003C08CF002C08BF0A4
:1016700001C08AF000C089F04EEC05F003C07EF096
:1016800002C07DF001C07CF000C07BF07EC08EF017
:101690007DC08DF07CC08CF07BC08BF0926B916B29
:1016A000906B8F0E8F6FC7EC05F003C056F002C031
:1016B00055F001C054F000C053F0D89252C08AF0E7
:1016C00051C089F050C088F04FC087F056C08EF0EE
:1016D00055C08DF054C08CF053C08BF098EC06F0E0
:1016E00000C083F001C084F002C085F003C086F022
:1016F000D89203C08AF002C089F001C088F000C00F
:1017000087F08E6B8D6B8C6B800E8B6F98EC06F078
:1017100003C076F002C075F001C074F000C073F031
:1017200076C08EF075C08DF074C08CF073C08BF0F5
:10173000926B916B906B810E8F6FC7EC05F003C0BD
:1017400062F002C061F001C060F000C05FF0D892AA
:1017500062C08AF061C089F060C088F05FC087F025
:101760008E6B8D6B8C6B8E0E8B6F98EC06F003C0BE
:1017700076F002C075F001C074F000C073F02AC0AA
:1017800085F029C084F033EC05F003C088F002C076
:1017900087F001C086F000C085F076C08CF075C07F
:1017A0008BF074C08AF073C089F04EEC05F003C072
:1017B0007AF002C079F001C078F000C077F07AC00A
:1017C0008EF079C08DF078C08CF077C08BF0926B82
:1017D000916B906B8E0E8F6FC7EC05F003C06EF0AF
:1017E00002C06DF001C06CF000C06BF04EC086F01E
:1017F0004DC085F04CC084F04BC083F019EC05F06F
:10180000D88203C08AF002C089F001C088F000C00D
:1018100087F066C08EF065C08DF064C08CF063C048
:101820008BF098EC06F003C076F002C075F001C0B2
:1018300074F000C073F07A6B500E796F430E786FBE
:101840008E0E776F76C088F075C087F074C086F012
:1018500073C085F07AC08CF079C08BF078C08AF0C4
:1018600077C089F04EEC05F003C072F002C071F051
:1018700001C070F000C06FF072C086F071C085F0DA
:1018800070C084F06FC083F08A6B896B800E886FA4
:101890009E0E876F12EF08F032E372C088F071C0BD
:1018A00087F070C086F06FC085F08C6B8B6B8A6B95
:1018B000800E896F4EEC05F003C076F002C075F023
:1018C00001C074F000C073F076C08EF075C08DF06A
:1018D00074C08CF073C08BF06EC092F06DC091F04C
:1018E0006CC090F06BC08FF0C7EC05F003C06AF0DD
:1018F00002C069F001C068F000C067F031D072C06A
:101900008EF071C08DF070C08CF06FC08BF06EC027
:1019100092F06DC091F06CC090F06BC08FF0C7EC8E
:1019200005F003C076F002C075F001C074F000C08D
:1019300073F076C088F075C087F074C086F073C00D
:1019400085F08C6B8B6B8A6B800E896F4EEC05F08B
:1019500003C06AF002C069F001C068F000C067F01F
:101960006AC08EF069C08DF068C08CF067C08BF0E3
:10197000926B916B906B870E8F6FC7EC05F003C075
:1019800076F002C075F001C074F000C073F076C04C
:1019900088F075C087F074C086F073C085F076C09B
:1019A0008CF075C08BF074C08AF073C089F04EEC77
:1019B00005F003C052F002C051F001C050F000C069
:1019C0004FF052C088F051C087F050C086F04FC031
:1019D00085F08C6BE00E8B6F3D0E8A6F8A0E896FDF
:1019E0004EEC05F003C07AF002C079F001C078F047
:1019F00000C077F07AC08EF079C08DF078C08CF09E
:101A000077C08BF0926B916B906B8F0E8F6FC7ECE2
:101A100005F003C052F002C051F001C050F000C008
:101A20004FF0886BE80E876FE50E866F8B0E856F23
:101A30006AC08CF069C08BF068C08AF067C089F01A
:101A40004EEC05F003C076F002C075F001C074F0F2
:101A500000C073F076C08EF075C08DF074C08CF04D
:101A600073C08BF0926B916B906B8F0E8F6FC7EC86
:101A700005F003C056F002C055F001C054F000C09C
:101A800053F0D89252C08AF051C089F050C088F00B
:101A90004FC087F056C08EF055C08DF054C08CF00A
:101AA00053C08BF098EC06F000C083F001C084F0C6
:101AB00002C085F003C086F0D89203C08AF002C04D
:101AC00089F001C088F000C087F08E6BF00E8D6F3A
:101AD0006C0E8C6F8A0E8B6F98EC06F003C076F05C
:101AE00002C075F001C074F000C073F076C08EF0D3
:101AF00075C08DF074C08CF073C08BF0926B916BDD
:101B0000906B830E8F6FC7EC05F003C07AF002C0B4
:101B100079F001C078F000C077F0D8926AC08AF0FE
:101B200069C089F068C088F067C087F07AC08EF01D
:101B300079C08DF078C08CF077C08BF098EC06F00F
:101B400003C06AF002C069F001C068F000C067F02D
:101B500046C003F045C0E9FF46C0EAFF6AC08AF00C
:101B600069C089F068C088F067C087F0CDEC07F0E5
:101B700002C0ECFFED5201C0EFFF48EF10F0006A29
:101B8000016A026A036A586A596A5A6A5B6A57505C
:101B90005610551054102CE0200E5C6ED890503624
:101BA000513652365336583659365A365B365750B8
:101BB0005B5C08E156505A5C05E15550595C02E106
:101BC0005450585C0FE35450585E5550D8A0553CC3
:101BD000595E5650D8A0563C5A5E5750D8A0573C34
:101BE0005B5ED88000360136023603365C2ED6D7CF
:101BF000EA6A580EE96E000CE950486E46AE0DD008
:101C00004806488A431E441E451E461E432AD8B431
:101C1000442AD8B4452AD8B4462A3B0E4F6E9A0EB1
:101C20004E6ECA0E4D6E4C6A0A0E4A6E4750D8A4CC
:101C3000480646C053F045C052F044C051F043C07E
:101C400050F04FC057F04EC056F04DC055F04CC04C
:101C500054F095DF0150EFCF43F0ECCF44F0ECCFE0
:101C600045F0ECCF46F000520FE147284A5C0CE00B
:101C700048500CE00F0B4A5C01E03BE248BE39D013
:101C800048BC04D0200E30D0200E481648AA0DD0F3
:101C9000489A4750D8A4480600C048F02D0E9EA888
:101CA000FED7AD6E48C000F0486A47504A5C0BE171
:101CB00000C048F02E0E9EA8FED7AD6E48C000F0C2
:101CC000200E4816000E300E48AA0ED0489A4750F3
:101CD000D8A4480600C048F02D0E9EA8FED7AD6ED1
:101CE00048C000F0486A300E002600509EA8FED77B
:101CF000AD6E4FC053F04EC052F04DC051F04CC0CD
:101D000050F0576A566A556A0A0E546E38DF03C09F
:101D10004FF002C04EF001C04DF000C04CF04A2E12
:101D200088D769EF10F0E950476E46AE0DD04706F0
:101D3000478A431E441E451E461E432AD8B4442AE1
:101D4000D8B4452AD8B4462A3B0E4E6E9A0E4D6E34
:101D5000CA0E4C6E4B6A0A0E496E46C053F045C01F
:101D600052F044C051F043C050F04EC057F04DC047
:101D700056F04CC055F04BC054F001DF0150EFCF8E
:101D800043F0ECCF44F0ECCF45F0ECCF46F00052FE
:101D90000FE14950010A0CE047500CE00F0B495C81
:101DA00001E027E247BE25D047BC04D0200E1CD05E
:101DB000200E471647AA0AD0479A00C047F02D0EBA
:101DC0009EA8FED7AD6E47C000F0476A300E47AA06
:101DD0000BD0479A00C047F02D0E9EA8FED7AD6EDF
:101DE00047C000F0476A300E002600509EA8FED77C
:101DF000AD6E4EC053F04DC052F04CC051F04BC0D0
:101E000050F0576A566A556A0A0E546EB8DE03C01F
:101E10004EF002C04DF001C04CF000C04BF0492E16
:101E20009CD77EEF10F0E950486E46AE0DD04806C4
:101E3000488A431E441E451E461E432AD8B4442ADF
:101E4000D8B4452AD8B4462A3B0E4F6E9A0E4E6E31
:101E5000CA0E4D6E4C6A0A0E4A6E4750D8A4480608
:101E600046C053F045C052F044C051F043C050F05A
:101E70004FC057F04EC056F04DC055F04CC054F016
:101E80007EDE0150EFCF43F0ECCF44F0ECCF45F0D5
:101E9000ECCF46F000520FE147284A5C0CE0485076
:101EA0000CE00F0B4A5C01E03BE248BE39D048BC75
:101EB00004D0200E30D0200E481648AA0DD0489AE3
:101EC0004750D8A4480600C048F02D0E506E9AEC3A
:101ED00004F048C000F0486A47504A5C0BE100C07B
:101EE00048F02E0E506E9AEC04F048C000F0200E20
:101EF0004816000E300E48AA0ED0489A4750D8A473
:101F0000480600C048F02D0E506E9AEC04F048C010
:101F100000F0486A300E002600C050F09AEC04F041
:101F20004FC053F04EC052F04DC051F04CC050F075
:101F3000576A566A556A0A0E546E21DE03C04FF086
:101F400002C04EF001C04DF000C04CF04A2E88D7C0
:101F5000A3EF10F0E950476E3B0E4E6E9A0E4D6E99
:101F6000CA0E4C6E4B6A0A0E496E46C053F045C00D
:101F700052F044C051F043C050F04EC057F04DC035
:101F800056F04CC055F04BC054F0F9DD0150EFCF86
:101F900043F0ECCF44F0ECCF45F0ECCF46F00052EC
:101FA0000FE14950010A0CE047500BE00F0B495C70
:101FB00001E00DE247BE0BD047BC03D0200E02D09B
:101FC000476A300E002600C050F09AEC04F04EC074
:101FD00053F04DC052F04CC051F04BC050F0576A16
:101FE000566A556A0A0E546ECADD03C04EF002C02E
:101FF0004DF001C04CF000C04BF0492EB6D7CEEFEB
:1020000010F0F86AD09E078EEA6AE96A700ED36E05
:10201000D350B8960C0EAF6EA20EAC6E900EAB6E97
:1020200094869488040EC86E280EC66EC79EC79C00
:10203000C150C00B0F09C16E070EB46E166A176A45
:10204000186AB16AA2EF03F03AEF04F0CC0EF66E14
:10205000050EF76EBCEC04F01AC043F0370E446E68
:10206000CCEC04F019C043F0370E446ECCEC04F015
:10207000100E436EFA0E8A6F01EC03F0432EFAD76E
:10208000446A340E436E466A380E456E4EEF08F0D1
:1020900035C03EF034C03DF03BC042F03AC041F0A4
:1020A00039C040F038C03FF0540E3C6E3C509EA802
:1020B000FED7AD6E030EE96E466A456A3EC044F037
:1020C0003DC043F044AE02D045064606010E476EC1
:1020D00093D50D0E9EA8FED7AD6E500E3C6E3C50B3
:1020E0009EA8FED7AD6E410EE96E42C046F041C0DB
:1020F00045F040C044F03FC043F015D60D0E9EA8F9
:10210000FED7AD6ED80EF66E050EF76EBCEC04F081
:10211000E40EF66E050EF76EBCEC04F0060E516E82
:10212000020E526E89EC04F0030EE96E466A456AAF
:102130003EC044F03DC043F044AE02D045064606E2
:10214000010E476E70D6EA0EF66E050EF76EBCEC09
:1021500004F0140E436EFA0E8A6F01EC03F0432E66
:10216000FAD7EC0EF66E050EF76EBCEC04F0F80E26
:10217000F66E050EF76EBCEC04F0060E516E020E04
:10218000526E89EC04F0410EE96E42C046F041C047
:1021900045F040C044F03FC043F0DCD6200E506E06
:1021A0009AEC04F0FE0EF66E050EF76EBCEC04F031
:1021B000140E436EFA0E8A6F01EC03F0432EFAD729
:0421C0005FD70300E2
:020000040030CA
:0E00000000C9190E008681000FC00FE00F40EE
:00000001FF
;PIC18F4680
;CRC=7258  CREATED="27-feb-12 11:24"
