:1000000072EF00F00D0A4170706C69636174696F82
:100010006E2070726F6772616D2076657273696FA2
:100020006E20312E3030200D0A000900F5520DE00F
:10003000F6CF06F0F7CF07F0F5509EA8FED7AD6ECD
:1000400006C0F6FF07C0F7FFF0D792EF00F00950A7
:10005000016A085C03E208C000F00CD0006A080ED8
:100060000A6E083600360950005CD8B0006E0136C2
:100070000A2EF7D7000C015006C008F0640E096E76
:10008000E6DF00C006F00150300E07E107A20DD0F8
:1000900007B60BD007B8200E03D007960798078045
:1000A000012601509EA8FED7AD6E06C008F00A0ECC
:1000B000096ECDDF00C006F00150300E06E107B634
:1000C00009D007A007D007B8200E012601509EA82E
:1000D000FED7AD6E300E062606509EA8FED7AD6E3A
:1000E00098EF00F0F86AD09EEA6AE96A046AB89666
:1000F0000C0EAF6EA20EAC6E900EAB6E9486948812
:10010000040EC86E280EC66EC79EC79CC150C00B99
:100110000F09C16E070EB46E056A040EF66E000E6E
:10012000F76E83D7052A05C006F01B0E076EA3D70E
:0C013000200E9EA8FED7AD6EF5D7030090
:020000040030CA
:0E00000000C2190E008681000FC00FE00F40F5
:00000001FF
;PIC18F4680
;CRC=A531  CREATED="03-abr-12 01:54"
