:10000000D7EF05F0F76A140FF66E000EF72209001D
:10001000F5501200000000000000005F0000000327
:10002000000300143E143E14242A7F2A124333088E
:10003000666136495522500005030000001C22412C
:10004000000041221C0014083E081408083E08085D
:100050000050300000080808080800606000002018
:10006000100804023E5149453E0004027F004261EF
:1000700051494622414949361814127F10274545F7
:1000800045393E4949493201017109073649494913
:1000900036264949493E00363600000056360000F3
:1000A00008142241001414141414004122140802EC
:1000B000015109063E4159555E7E0909097E7F4975
:1000C0004949363E414141227F4141413E7F4949B4
:1000D00049417F090909013E4141493A7F08080821
:1000E0007F00417F4100304040403F7F0814224163
:1000F0007F404040407F020C027F7F0204087F3E29
:100100004141413E7F090909061E2121215E7F09E7
:1001100009097600F76A240FF66E010EF72209002E
:10012000F5501200264949493201017F01013F4043
:1001300040403F1F2040201F7F2010207F41221C75
:10014000224107087008076151494543007F41007B
:100150000002040810200000417F00040201020494
:100160004040404040000102040020545454787F35
:10017000444444383844444444384444447F385424
:1001800054541804047E0505085454543C7F080454
:10019000047800447D40002040443D007F10284406
:1001A0000000417F40007C047804787C08040478D7
:1001B00038444444387C14141408081414147C0083
:1001C0007C080404485454542004043F44443C40F4
:1001D00040207C1C2040201C3C4030403C442810E7
:1001E00028440C5050503C4464544C440008364160
:1001F0004100007F00004141360800020102040274
:100200000401215303E093908A8002D093928A8262
:1002100093968A96956A22C48CFF050E006E002E76
:10022000FED793988A881A0E006E002EFED7000023
:1002300093988A9893928A9293908A900001000CE6
:1002400004011D6B060E1C6F020E1F6F060E1E6F43
:100250001A51FF0DF3CF1BF4216B206B21510108C4
:100260001AE31DC403F01C511C2BD8B41D2BE96EDE
:1002700003C0EAFF1BC4EFFF1FC403F01E511E2B77
:10028000D8B41F2BE96E03C0EAFF1BC4EFFF202B7D
:10029000D8B4212BE3D70001FCEF01F004011D6B62
:1002A000060E1C6F020E1F6F060E1E6F1A6B1A5180
:1002B00007084EE393948A94216B400E226F00014D
:1002C0009FDF010E0401216F400E226F000198DFB5
:1002D00004011A51B809206F216B226F000190DFD1
:1002E00004011A51B809206F010E216F20C422F4B5
:1002F000000186DF93948A8404011B6B1B513F0825
:1003000025E31DC403F01C511C2BD8B41D2BE96E32
:1003100003C0EAFFEFCF20F4216B20C422F40001D8
:100320006FDF04011FC403F01E511E2BD8B41F2B16
:10033000E96E03C0EAFFEFCF20F4010E216F20C465
:1003400022F400015DDF04011B2BD8D71A2BAFD795
:100350000001000C939A8A8A93988A9893928A92C1
:1003600093908A9093948A940401216BC00E226F1B
:10037000000146DF010E0401216FC00E226F000153
:100380003FDF0401216B400E226F000139DF010EB7
:100390000401216F400E226F000132DF0401216B46
:1003A000B80E226F00012CDF010E0401216FB80E80
:1003B000226F000125DF0401192D0ED0216B3F0EA5
:1003C000226F00011DDF010E0401216F3F0E226F1D
:1003D000000116DF0DD00401216B3E0E226F0001DB
:1003E0000FDF010E0401216F3E0E226F000108DFB6
:1003F00004011A6B000124D751DF000C040EEA6ED1
:10040000190EE96EEF500DE0020E016E006A002E2B
:10041000FED7012EFBD7970E006E002EFED7EF2ED3
:10042000F3D7FAEF05F004013A6B3531396F393300
:1004300039331F0E391739373A3739373A373937A1
:100440003A3739373A3739373A3739373A37C00ECA
:10045000391734513927000E3A2334513F080DE241
:10046000060E39253B6F020E3A213C6F400E3B5D74
:10047000376F000E3C59386F06D0060E3925376F9E
:10048000000E3A21386F365315E038C403F037C4F4
:10049000E9FF38C4EAFF3551070B3B6F010E006ED0
:1004A0003B51016E04E0D8900036012EFCD700507D
:1004B000EF1215D038C403F037C4E9FF38C4EAFF9F
:1004C0003551070B3B6F010E006E3B51016E04E08E
:1004D000D8900036012EFCD70050FF0AEF1600011D
:1004E000000C010E04012D6F2E6F336B2451265D1D
:1004F000346F345134AF03D0000ED8803455036AC2
:100500002B6F03C02CF42551275D346F345134AF69
:1005100003D0000ED8803455036A296F03C02AF433
:100520002451265D02E2FF0E2D6F2551275D02E268
:10053000FF0E2E6F2A512C5D3BE303E129512B5D09
:1005400037E3D89029372A372B51295D006E2C517B
:100550002A5900C02FF4306F2B512F5D316F2C5171
:100560003059326F2C5303E133512B5D20E324C407
:1005700034F425C435F428C436F4000154DF0401F2
:1005800030BF01D008D029512F272A5130232D51B7
:100590002425246F0AD031512F27325130232D5179
:1005A0002425246F2E512525256F332BDBD736D0FC
:1005B000D8902B372C3729512B5D006E2A512C599E
:1005C00000C02FF4306F29512F5D316F2A513059FF
:1005D000326F2A5303E13351295D20E324C434F4FC
:1005E00025C435F428C436F400011DDF040130BFF2
:1005F00001D008D02B512F272C5130232E512525E7
:10060000256F0AD031512F27325130232D51242507
:10061000246F2E512525256F332BDBD70001000CCD
:1006200004011D532EE01B51195D05E219C420F48D
:100630001BC421F404D01BC420F419C421F41C51A0
:100640001A5D05E21AC422F41CC423F404D01CC4AD
:1006500022F41AC423F42051215D12E322C41FF4B2
:100660001F51235D0BE320C434F41FC435F41EC4B2
:1006700036F40001D8DE04011F2BF2D7202BEBD774
:100680002ED019C424F41AC425F41BC426F41AC4A9
:1006900027F41EC428F4000124DF19C424F41CC468
:1006A00025F41BC426F41CC427F41EC428F419DF47
:1006B00019C424F41AC425F419C426F41CC427F45C
:1006C0001EC428F40EDF1BC424F41AC425F41BC472
:1006D00026F41CC427F41EC428F403DF040100011F
:1006E000000C0401196B1A6B3E0E1B6F1E0E1C6F63
:1006F000010E1D6F1E6F000193DF0401196B1A6B51
:100700003E0E1B6F1E0E1C6F1D6B1E6B000188DFE3
:100710003F0E0401196F1A6B7F0E1B6F1E0E1C6FAC
:100720001D6B010E1E6F00017BDF0401196B1F0E94
:100730001A6F3E0E1B6F3F0E1C6F1D6B010E1E6F5E
:1007400000016EDF3F0E0401196F1F0E1A6F7F0E3E
:100750001B6F3F0E1C6F010E1D6F1E6F000160DFCF
:100760003F0E0401196F1F0E1A6F7F0E1B6F3F0E95
:100770001C6F1D6B1E6B000153DFFBEF05F0006A61
:10078000016A026A036A04012E6B2F6B306B316BB6
:100790002D512C112B112A112CE0200E326FD890E4
:1007A00026372737283729372E372F373037313735
:1007B0002D51315D08E12C51305D05E12B512F5D4C
:1007C00002E12A512E5D0FE32A512E5F2B51D8A052
:1007D0002B3D2F5F2C51D8A02C3D305F2D51D8A040
:1007E0002D3D315FD8800036013602360336322F78
:1007F000D6D7040EEA6E2E0EE96E0001000C0DC471
:10080000EAFF0CC4E9FF040126C4EFFFE92AD8B4CB
:10081000EA2AEF6A0C2BD8B40D2B0001000CE9502A
:1008200004011E6F3B0E256F9A0E246FCA0E236FB4
:10083000226B0A0E206F1D51D8A41E071CC429F478
:100840001BC428F41AC427F419C426F425C42DF4B3
:1008500024C42CF423C42BF422C42AF400018FDF17
:100860000150EFCF19F4ECCF1AF4ECCF1BF4ECCF1E
:100870001CF4005213E104011D29205DD8A402D00C
:1008800000010CD01E510CE00F0B205D01E01EE2B8
:100890001EBF1CD01EBD04D0200E12D004011E6B42
:1008A0001D51205D0CE100C01EF42E0E266F0001CC
:1008B000A6DF04011EC400F0200E1E17000E300E2D
:1008C000002600C026F400019ADF040125C429F4A3
:1008D00024C428F423C427F422C426F42D6B2C6BE3
:1008E0002B6B0A0E2A6F00014ADF03C025F402C0F9
:1008F00024F401C023F400C022F40401202F9ED769
:1009000000010DEF06F023C403F0040122C4E9FF47
:1009100023C4EAFFEF52D8B4D0D023C403F022C4DA
:10092000E9FF23C4EAFFEF50520827E323C403F092
:1009300022C4E9FF23C4EAFF200EEF5C050DF3504B
:10094000036A2F6F040EEA6E2A0EE96E336B2FC412
:1009500032F4F2CF30F4F29E050E016EF76A2F5199
:10096000000102EC00F00A000900F5CFEEFF012EB5
:10097000FBD7040130BFF28E35D023C403F022C46C
:10098000E9FF23C4EAFFEF507E0827E323C403F006
:1009900022C4E9FF23C4EAFF530EEF5C050DF350B8
:1009A000036A2F6F040EEA6E2A0EE96E336B2FC4B2
:1009B00032F4F2CF30F4F29E050E016EF76A2F5139
:1009C00000018AEC00F00A000900F5CFEEFF012ECD
:1009D000FBD7040130BFF28E05D02A6B2B6B2C6B3A
:1009E0002D6B2E6B23C403F02251E96E03C0EAFF86
:1009F000EF500A0A000103E0070A09E00BD00401E6
:100A00002451070DF350010F212750D0000104019C
:100A1000206B4CD004012451050DF35020257F0894
:100A200006E2206B2451070DF350010F2127266B9E
:100A3000265104083BE3276B2751060833E3036A7A
:100A400026512A0FE96E040E0320EA6EEFCF2FF431
:100A50002FC400F02751016E04E0D8900032012E1F
:100A6000FCD700A01DD0286B2451285D19E2296B0A
:100A70002451295D13E2295120252F6F275124038A
:100A8000F35021252825306F2FC434F4356F25C449
:100A900036F40001C8DC0401292BEAD7282BE4D75F
:100AA000272BCAD7262B24512027C2D7222BD8B4D4
:100AB000232B202B000127D704010001000C040187
:100AC0001E6B010E1A5D090DF3CF1EF4010E195DA8
:100AD000FC0F59E2040F0001C6EF05F0030E0401FC
:100AE0001E251F6F030E206F1FC421F41CC423F4A6
:100AF0001BC422F4010E246F1DC425F4000103DF82
:100B0000040141D00001030E04011E251F6F420E97
:100B1000206F1FC421F41CC423F41BC422F4010E53
:100B2000246F1DC425F40001EEDE04012CD0000169
:100B3000220E04011E251F6F030E206F1FC421F417
:100B40001CC423F41BC422F4010E246F1DC425F41D
:100B50000001D9DE040117D00001220E04011E2578
:100B60001F6F420E206F1FC421F41CC423F41BC44A
:100B700022F4010E246F1DC425F40001C4DE04011B
:100B800002D000010401000118EF06F0E824F76A22
:100B9000F736A70FF66E0B0EF7220A00F550FA6E25
:100BA0000800F550F96EDC0A060B300B5A0BF86A98
:100BB000D09EEA6AE96AB886100EAF6E000EB06E7B
:100BC000A60EAC6E900EAB6EC150C00B0F09C16E7D
:100BD000070EB46E056A0401066B076B0C6B0D6B98
:100BE000010E196F0001AAEC01F0640E0401196FE7
:100BF000000104D476D5EA0E04010E6F040E0D6FC9
:100C00000F0E0C6F030EE96E1C6B1B6B1A6B0EC480
:100C100019F4010E1D6F000102D6010E0401196FB7
:100C20001A6F040E1C6F0F0E1B6F1D6B000147D750
:060C30004EEC01F0030090
:020000040030CA
:0E00000000C2190E008681000FC00FE00F40F5
:00000001FF
;PIC18F4680
;CRC=BD22  CREATED="03-mar-12 21:06"
