:0400000027EF2BF0CB
:08000800046ED8CF05F0E0CF33
:1000100006F00001E9CF0CF0EACF07F0E1CF08F0DD
:10002000E2CF09F0D9CF0AF0DACF0BF0F3CF12F01C
:10003000F4CF13F0FACF14F0F5CF15F0F6CF16F099
:10004000F7CF17F000C00EF001C00FF002C010F0A3
:1000500003C011F09DA030EF00F09EB0EDEF03F073
:100060009DA236EF00F09EB201EF04F0F0A63CEF47
:1000700000F0F0B0E4EF03F09DAA42EF00F09EBA6A
:10008000BFEF03F00EC000F00FC001F010C002F08F
:1000900011C003F00CC0E9FF07C0EAFF078E08C0DB
:1000A000E1FF09C0E2FF0AC0D9FF0BC0DAFF12C0AE
:1000B000F3FF13C0F4FF14C0FAFF15C0F5FF16C01C
:1000C000F6FF17C0F7FF045006C0E0FF05C0D8FFD9
:1000D0001000F76AE20FF66E000EF7220900F550E5
:1000E0001200000000000000005F00000003000399
:1000F00000143E143E14242A7F2A124333086661FA
:1001000036495522500005030000001C2241000022
:1001100041221C0014083E081408083E080800503C
:10012000300000080808080800606000002010087F
:1001300004023E5149453E0004027F00426151499C
:100140004622414949361814127F10274545453942
:100150003E49494932010171090736494949362664
:100160004949493E00363600000056360000081462
:1001700022410014141414140041221408020151E5
:1001800009063E4159555E7E0909097E7F49494964
:10019000363E414141227F4141413E7F49494941EB
:1001A0007F090909013E4141493A7F0808087F005B
:1001B000417F4100304040403F7F081422417F4052
:1001C0004040407F020C027F7F0204087F3E414195
:1001D000413E7F090909061E2121215E7F09090987
:1001E0007600F76AF20FF66E010EF7220900F5505D
:1001F0001200264949493201017F01013F40404038
:100200003F1F2040201F7F2010207F41221C2241C1
:1002100007087008076151494543007F410000020B
:10022000040810200000417F000402010204404045
:10023000404040000102040020545454787F44445C
:1002400044383844444444384444447F3854545433
:100250001804047E0505085454543C7F08040478AF
:1002600000447D40002040443D007F1028440000B1
:10027000417F40007C047804787C0804047838448A
:100280004444387C14141408081414147C007C08AA
:100290000404485454542004043F44443C40402047
:1002A0007C1C2040201C3C4030403C44281028440A
:1002B0000C5050503C4464544C44000836414100BA
:1002C000007F000041413608000201020402F76A83
:1002D000DE0FF66E020EF7220900F5501200430001
:1002E000F76AF00FF66E020EF7220900F5501200C1
:1002F0004600F76A020FF66E030EF7220900F5506A
:1003000012006D426100F76A160FF66E030EF722B7
:100310000900F550120050610000F76A2A0FF66ECE
:10032000030EF7220900F55012004E756400F76ABB
:100330003E0FF66E030EF7220900F55012006B6DAA
:100340002F680000F76A540FF66E030EF7220900BB
:10035000F55012006D2F7300660FF66E030EF72234
:100360000900F55012000000000000000080C0C02D
:10037000E0F0F8F8FCFEFF7F3F1F078381404060FC
:100380002010100808040602030101010101010107
:10039000010101010101010101010101010101014D
:1003A000010101010101010101010101010101013D
:1003B000010101010101010101010101010101012D
:1003C000010101010101010101010101010101011D
:1003D00001010101010101010101010181C1711945
:1003E0000F0000000000E0F0F8FCFEFFFFFFFF7FC1
:1003F0003F1F0F070381E1388C8381C0C0406060DC
:1004000020203030101010181818080888C8C8ECC0
:10041000FCFCF8F8F8F8F8FCFCFCE8C888080808C8
:1004200008080808080808081818181818101010E4
:100430009090D0F0F0F0F0F0F8F8F8F8F8F8F8F85C
:10044000F07020000000000000000000000000002C
:100450008080C0C06060303010180C0E03010000B6
:10046000000000000000FFFFFF3F1F0F030100001E
:100470000000000003030301010100000000000070
:100480000000000000000000F0FCFEFF7F3F1F0F97
:100490000F0F0F3FFFFFFFFFFFFFFFFFFFFFFCF00E
:1004A000C000000000000080C0E0F0F8F8FCFEFF93
:1004B000FFFFFFFFFFBFBF1F1F1F3F3F3F1F0F87F4
:1004C00081C0C0606020301018080C0C06060303C1
:1004D000010100000000000000000000000000001A
:1004E0000000000000000703000000000000000002
:1004F00000000000000000000000000000000000FC
:10050000000000000000000001010150F0F0F0F0D8
:10051000E0E0E0E0E0C3CFFFFFFFFFFFFFFFFFFFF2
:10052000FFFFFCF8FCFEFFFFFF7F3F1F0F078381EB
:10053000C0C0E0617133371F1F0E0E0E1E03030192
:1005400001000080C0C0602020A0E0E0E0E00000EA
:100550000000000080C04060606060E0E0E060603B
:10056000602020301808000000000000000000009B
:10057000000000000000000000000000000000007B
:1005800000000000000000000000000000808080EB
:10059000C0C0E0607030B098E9F7FFFFFFFFFFFFD9
:1005A000FFFFFFFFFFFFFFFFDE0E0E1E1F1F1F1DC1
:1005B0003D3C3C3C3C3C3808000000000000000092
:1005C0000000020383E0707C2E23217FFFFFE00008
:1005D000000002070700000000E0FEFF3F010000EE
:1005E000000000000000000000000000000000000B
:1005F0000000000000000000000000008080C0C07B
:10060000E0E0F0F0F8F8F8FCFFFF7F3F9FDFCFE776
:10061000F3FBF9FCFEFF7F7F1F1F0F0703030F3F54
:10062000FFFFFFFFFFFFFFFFFFFFFCF0C000000028
:10063000000000000080C0E0E0E0000002030606C9
:10064000060602030100000000000000070707067D
:10065000020000000002060607070706000000006F
:10066000000000000000000000008080C0C0E0E04A
:10067000E0F0F0F8F8FCFCFEFEFFFFFFFFFF873024
:100680007DF9F7F7F7F3F9FDFC7E7E3FBFBFDFDFB3
:100690008F8F8783818080808080808080000000B1
:1006A00000030F1F7FFFFFFFFFFFFFFFFFFFFEFCA9
:1006B000FCFCFEFE7F3F1F0F0703008080808080D0
:1006C0008080C0C0C0C0C0C0E0E0E0E0F0F0F0F06A
:1006D000F8F8F8FCFCFEFEFE7F3F070000000080FB
:1006E000C0C0E0F0F8FEFEFEFFFFFFFFFFFFFFFFD0
:1006F000FFFFFFFFFFFFFFFFFFFFFFFFFFFFFFFF0A
:10070000FFFEFEFEFEFEFEFEFEFEFEFFFFFFFFFF03
:10071000FFFFFFFFFFFFFFFFFFFFFFFFFFFFFFFFE9
:10072000FFFFFFFFFFFFFFFFFFFFFFFFFFFFFFFFD9
:10073000FFFFFFFFFFFFFFFFFFFFFFFFFFFFFFFFC9
:10074000FFFFFFFFFFFF7F7F3F3F3F1F1F1F0F0F79
:10075000070703030101000080E0F0F8FCFEFF7FC3
:100760003F3F1F0F07079EAAFED7ABCF19F0AECFB2
:1007700001F019A202D0AB98AB88CFEF03F00201D1
:10078000E56BE46B036A5A501A0FE96E000E032002
:10079000EA6EEACF48FCE9CF47FC0001E4D748CC39
:1007A000EAFF47CCE9FF01C0EFFF5AC044FC5A2AD8
:1007B0005A50400801E15A6A5B505A5C02E144CC4D
:1007C0005AF09E9A42EF00F0010E0201E16F9492FE
:1007D0008B82F090000142EF00F0010E0201E3274E
:1007E0000301DD2BD8B4DE2B0201E351190805E229
:1007F00094928B92E36BCF6ACE6A9E90000142EF97
:1008000000F00201E42BD8B4E52B9E92000142EFE8
:1008100000F00B01E06BE0510E080AE3036AE051BF
:10082000DE25E96EDF510320EA6EEF6AE02BF3D795
:100830000001000C948694885FEF30F0080E016E82
:1008400000D08B96949600D000000B01FA378B985D
:10085000D8B09488D8A09498948682A6FED7012E0A
:1008600001D002D00001ECD700D08B969496000006
:10087000948800D0000000D00000948682A6FED7A5
:10088000016A00D0000082B801808B9694968B9804
:1008900094980001000C080E0B01E36F00C0E4FB0C
:1008A000948800D00000948682A6FED782B8D880B3
:1008B00082A8D890013600D094968B96E32FF0D77B
:1008C000948800D000008B98E451D8A4949800003C
:1008D000948682A6FED700D08B96949600D0000016
:1008E0008B9894980001000CE3CBE4FBD8900B01AB
:1008F000E433780EE417E431006E00323F0E001648
:100900000050E425E56FE3510F0BE525016E000172
:10091000000CF9CBFAFB0B01FB6BFA51090805E25D
:100920000A0EFA5F100EFB2703D0FA51FB2701D005
:10093000F4D7FBCB01F00001000C0B01DE6B9488B7
:1009400000D0948600D000008B98949800D08B96AD
:100950009496D00EFA6F000171DF0B01FA6B000163
:100960006DDF948800D0948600D0000082A6FED768
:100970008B98949800D08B969496D10E0B01FA6FB9
:1009800000015CDF006A87DF01C0DFFB01C0E3FB21
:10099000ABDF01C0DEFB94980000948682A6FED7F0
:1009A00000D000D00000948800D00B01DE9F00D062
:1009B00000D000D0948800D0948600D000008B989E
:1009C000949800D08B969496D00EFA6F000136DF83
:1009D0000B01FA6B000132DFDECBF9FB9ADF01C0BD
:1009E000DFFB01C0FAFB2ADF948800D0948600D098
:1009F000000082A6FED78B98949800D08B96949690
:100A0000D00E0B01FA6F000119DF070E0B01FA6F10
:100A1000000114DF800E0B01FA6F00010FDF9498C4
:100A20000000948682A6FED700D000D000009488F3
:100A300000D061EF30F00C01245303E093908A80E2
:100A400002D0929A898A93968A96956A25CC8CFFD1
:100A5000050E006E002EFED793988A881A0E006E3F
:100A6000002EFED7000093988A98929A899A9390C4
:100A70008A900001000C040E0B01EC6F490EEB6F25
:100A8000060EEE6F490EED6FE951FF0DF3CFEAFB55
:100A9000F06BEF6BF05101081AE3ECCB03F0EB5174
:100AA000EB2BD8B4EC2BE96E03C0EAFFEACBEFFFE7
:100AB000EECB03F0ED51ED2BD8B4EE2BE96E03C075
:100AC000EAFFEACBEFFFEF2BD8B4F02BE3D700011E
:100AD000000C040E0C01206F490E1F6F060E226FD2
:100AE000490E216F1D6B1D5107084EE393948A94A4
:100AF000246B400E256F00019EDF010E0C01246F58
:100B0000400E256F000197DF0C011D51B809236FBE
:100B1000246B256F00018FDF0C011D51B809236F75
:100B2000010E246F23CC25FC000185DF93948A8479
:100B30000C011E6B1E513F0825E320CC03F01F5112
:100B40001F2BD8B4202BE96E03C0EAFFEFCF23FCA4
:100B5000246B23CC25FC00016EDF0C0122CC03F0BA
:100B60002151212BD8B4222BE96E03C0EAFFEFCF2D
:100B700023FC010E246F23CC25FC00015CDF0C015B
:100B80001E2BD8D71D2BAFD70001000C94908B8063
:100B900093988A98929A899A93908A9093948A9437
:100BA0000C01246BC00E256F000145DF010E0C0106
:100BB000246FC00E256F00013EDF0C01246B400E38
:100BC000256F000138DF010E0C01246F400E256FE8
:100BD000000131DF0C01246BB80E256F00012BDF03
:100BE000010E0C01246FB80E256F000124DF0B01EC
:100BF000DE2D0FD00C01246B3F0E256F00011BDF93
:100C0000010E0C01246F3F0E256F000114DF0ED082
:100C10000B010C01246B3E0E256F00010CDF010E51
:100C20000C01246F3E0E256F000105DF0B01E96BFF
:100C3000000121DF4EDF67EF30F0F2CFE1FBF29EE3
:100C4000AA6AA96AA69CA69EA680A8500B01E1BF2D
:100C5000F28E0201E26FF2CFE1FBF29EAA6A010E70
:100C6000A96EA69CA69EA680A8500B01E1BFF28E9D
:100C7000DE6FF2CFE1FBF29EAA6A020EA96EA69C7D
:100C8000A69EA680A850E1BFF28EDF6FF2CFE1FBF7
:100C9000F29EAA6A030EA96EA69CA69EA680A850E4
:100CA000E1BFF28EE06FDE2D04D0430E0801E26F4B
:100CB0000B01DE51020804E1460E0801E26F0B0150
:100CC000DF2D08D06D0E0801E56F420EE66F610E54
:100CD000E76F0B01DF51020808E1500E0801E56FD4
:100CE000610EE66F200EE76F0B01E02D0AD04E0E6D
:100CF0000801E96F750EEA6F640EEB6F200EEC6F62
:100D00000B01E05102080AE16B0E0801E96F6D0E5C
:100D1000EA6F2F0EEB6F680EEC6F0B01E0510308CA
:100D20000AE16D0E0801E96F2F0EEA6F730EEB6F8B
:100D3000200EEC6F0B01000169EF30F00C01416BEC
:100D40003C31406F403340331F0E4017403741372E
:100D500040374137403741374037413740374137D7
:100D600040374137C00E40173B514027000E41230A
:100D70003B513F080DE2490E4025426F060E4121CE
:100D8000436F400E425D3E6F000E43593F6F06D0E9
:100D9000490E40253E6F040E41213F6F3D5315E043
:100DA0003FCC03F03ECCE9FF3FCCEAFF3C51070BC0
:100DB000426F010E006E4251016E04E0D890003681
:100DC000012EFCD70050EF1215D03FCC03F03ECCE3
:100DD000E9FF3FCCEAFF3C51070B426F010E006E6A
:100DE0004251016E04E0D8900036012EFCD700502D
:100DF000FF0AEF160001000C010E0C01316F326F7B
:100E0000376B28512A5D386F385138AF03D0000E48
:100E1000D8803855036A2F6F03C030FC29512B5DF1
:100E2000386F385138AF03D0000ED8803855036A78
:100E30002D6F03C02EFC28512A5D02E2FF0E316F98
:100E400029512B5D02E2FF0E326F2E51305D3BE3E4
:100E500003E12D512F5D37E3D8902D372E372F51D9
:100E60002D5D006E30512E5900C033FC346F2F5170
:100E7000335D356F30513459366F305303E137519C
:100E80002F5D20E328CC3BFC29CC3CFC2CCC3DFC4A
:100E9000000154DF0C0134BF01D008D02D5133279D
:100EA0002E51342331512825286F0AD0355133274C
:100EB0003651342331512825286F32512925296F85
:100EC000372BDBD736D0D8902F3730372D512F5DC9
:100ED000006E2E51305900C033FC346F2D51335DFC
:100EE000356F2E513459366F2E5303E137512D5D36
:100EF00020E328CC3BFC29CC3CFC2CCC3DFC000165
:100F00001DDF0C0134BF01D008D02F5133273051E1
:100F1000342332512925296F0AD0355133273651D0
:100F2000342331512825286F32512925296F372B39
:100F3000DBD70001000C0C0121532EE01F511D5D79
:100F400005E21DCC24FC1FCC25FC04D01FCC24FCC6
:100F50001DCC25FC20511E5D05E21ECC26FC20CCBC
:100F600027FC04D020CC26FC1ECC27FC2451255D78
:100F700012E326CC23FC2351275D0BE324CC3BFC5E
:100F800023CC3CFC22CC3DFC0001D8DE0C01232B01
:100F9000F2D7242BEBD72ED01DCC28FC1ECC29FC5D
:100FA0001FCC2AFC1ECC2BFC22CC2CFC000124DF05
:100FB0001DCC28FC20CC29FC1FCC2AFC20CC2BFCEF
:100FC00022CC2CFC19DF1DCC28FC1ECC29FC1DCC0E
:100FD0002AFC20CC2BFC22CC2CFC0EDF1FCC28FCC6
:100FE0001ECC29FC1FCC2AFC20CC2BFC22CC2CFCB8
:100FF00003DF0C010001000C0B01DE51FB0FD8B028
:10100000C8D0050F0001CBEF08F00C011D6B1E6B63
:101010003E0E1F6F1E0E206F010E216F226F00010A
:101020008ADF0C011D6B1E6B3E0E1F6F1E0E206FA4
:10103000216B226B00017FDF0B01ABD000013F0E63
:101040000C011D6F1E6B7F0E1F6F1E0E206F216B1C
:10105000010E226F00016FDF0B019BD000010C011C
:101060001D6B1F0E1E6F3E0E1F6F3F0E206F216BFC
:10107000010E226F00015FDF0B018BD000013F0EDC
:101080000C011D6F1F0E1E6F7F0E1F6F3F0E206F16
:10109000010E216F226F00014EDF3F0E0C011D6F0C
:1010A0001F0E1E6F7F0E1F6F3F0E206F216B226B76
:1010B000000141DF0B016DD000010C011D6B1E6BA7
:1010C0003E0E1F6F1E0E206F010E216F226F00015A
:1010D00032DF0C011D6B1E6B3E0E1F6F1E0E206F4C
:1010E000216B226B000127DF3F0E0C011D6F1E6B71
:1010F0007F0E1F6F1E0E206F216B010E226F0001ED
:101100001ADF400E0C011D6F010E1E6F7E0E1F6F49
:101110001D0E206F010E216F226B00010CDF0C01F0
:101120001D6B1F0E1E6F3E0E1F6F3F0E206F216B3B
:10113000010E226F0001FFDE010E0C011D6F200E5B
:101140001E6F3D0E1F6F3E0E206F010E216F226B32
:101150000001F1DE3F0E0C011D6F1F0E1E6F7F0E92
:101160001F6F3F0E206F010E216F226F0001E3DE23
:101170003F0E0C011D6F1F0E1E6F7F0E1F6F3F0E67
:10118000206F216B226B0001D6DE0B0102D0000123
:101190000B010001000CE824F76AF736B10FF66E78
:1011A000110EF7220A00F550FA6E0800F550F96E9C
:1011B000BA100A103E105E107E100C013F5141190A
:1011C000800B436F3FAF05D03E1F3F1F3E2BD8B46F
:1011D0003F2B41AF05D0401F411F402BD8B4412BBE
:1011E0003E514003F3CF01F0F4CF00F04103F35040
:1011F00000263F514003F3500020026E43AF05D05C
:10120000011E021E012AD8B4022A0001000C010EA0
:101210000C01286F296F336B1D511F5D3A6F3A51D6
:101220003AAF03D0000ED8803A55036AE8BE0306F1
:10123000266F03C027FC1E51205D3A6F3A513AAF2A
:1012400003D0000ED8803A55036AE8BE0306246F27
:1012500003C025FCD8902131236F27CC3FFC26CC3E
:101260003EFC416B1DCC40FC0001A7DF02C03BFCF3
:1012700001C03AFC25CC3FFC24CC3EFC0C01416B68
:101280001ECC40FC000199DF02C003F001500C01AC
:101290003A25016E3B5103220150FF0A010F2F6FC7
:1012A000000E0354306F27CC3FFC26CC3EFC416B34
:1012B0001FCC40FC000181DF02C03BFC01C03AFCB6
:1012C00025CC3FFC24CC3EFC0C01416B20CC40FCE7
:1012D000000173DF02C003F001500C013A25016EDA
:1012E0003B5103220150FF0A010F316F000E0354DE
:1012F000326F1D511F5D0EE230CC35FC2FCC34FC1B
:1013000032CC30FC31CC2FFC35CC32FC34CC31FC2F
:10131000FF0E286F1E51205D0EE230CC37FC2FCC23
:1013200036FC32CC30FC31CC2FFC37CC32FC36CC06
:1013300031FCFF0E296F25AF03D027AF0CD002D0B0
:1013400027BFA2D02551275DD8A09ED004E124510B
:10135000265DD8A099D03F6B020E3E6F25CC41FC94
:1013600024CC40FC000129DF0C012651015C2B6FCD
:10137000275102582C6F26512B5D2D6F27512C5968
:101380002E6F336B27BF7FD0275304E13351265D87
:10139000D8A079D0000ED88023552A6F2151010B97
:1013A00023252ABF02D02A5D4DE227CC3FFC26CC64
:1013B0003EFC416B1DCC40FC0001FFDE02C03BFC4B
:1013C00001C03AFC0C012A511E25036A006EE8BEDA
:1013D00003063C6F03C03DFC25CC3FFC24CC3EFC07
:1013E00003C041FC406F0001E8DE02C003F0015081
:1013F0000C013A25016E3B51032201C038FC3851E3
:101400002F253A6F000E30213B6FE8BE19D000D077
:10141000385131253A6F000E32213B6FE8BE05D0BE
:101420003B530EE13A5100080BE32A511E253A6F57
:101430001DCC3BFC3C6F22CC3DFC00017FDC0C0151
:101440002A2BACD72CBF01D012D03F6B020E3E6FBF
:1014500025CC41FC24CC40FC0001AFDE01500C0146
:101460002B2702502C2328511D251D6F0AD02D51EA
:101470002B272E512C2328511D251D6F29511E2548
:101480001E6F332B7FD799D03F6B020E3E6F27CC58
:1014900041FC26CC40FC000190DE0C012451015C93
:1014A0002B6F255102582C6F24512B5D2D6F255128
:1014B0002C592E6F336B25BF80D0255304E1335157
:1014C000245DD8A07AD02CBF01D012D03F6B020E81
:1014D0003E6F27CC41FC26CC40FC00016EDE015063
:1014E0000C012B2702502C2329511E251E6F0AD0D8
:1014F0002D512B272E512C2328511D251D6F29518D
:101500001E251E6F000ED88023552A6F2151010B16
:1015100023252ABF02D02A5D4EE227CC3FFC26CCF1
:101520003EFC416B1DCC40FC000147DE02C03BFC91
:1015300001C03AFC0C012A511E25036A006EE8BE68
:1015400003063C6F03C03DFC25CC3FFC24CC3EFC95
:1015500003C041FC406F000130DE02C003F00150C7
:101560000C013A25016E3B51032201C039FC39516F
:101570002F253A6F000E30213B6FE8BE1AD000D005
:10158000395131253A6F000E32213B6FE8BE05D04C
:101590003B530FE13A5100080CE32A511D253A6FE5
:1015A0003B6F1ECC3CFC22CC3DFC00019EEC06F0C7
:1015B0000C012A2BABD7332B7ED70001000C20CC9B
:1015C00003F00C011FCCE9FF20CCEAFFEF52D8B4A6
:1015D000C9D020CC03F01FCCE9FF20CCEAFFEF50AC
:1015E000520822E320CC03F01FCCE9FF20CCEAFF15
:1015F000200EEF5C050DF350036A2C6F0C0EEA6EA3
:10160000270EE96E306B2CCC2FFC050E016EF76AAD
:101610002C51000169EC00F00A000900F5CFEEFF43
:10162000012EFBD732D00C0120CC03F01FCCE9FFF8
:1016300020CCEAFFEF507E0822E320CC03F01FCC41
:10164000E9FF20CCEAFF530EEF5C050DF350036A6F
:101650002C6F0C0EEA6E270EE96E306B2CCC2FFC33
:10166000050E016EF76A2C510001F1EC00F00A0042
:101670000900F5CFEEFF012EFBD707D00C01276B39
:10168000286B296B2A6B2B6B000120CC03F00C011B
:101690001F51E96E03C0EAFFEF500A0A000103E0A0
:1016A000070A09E00BD00C012151070DF350010F7F
:1016B0001E2751D000010C011D6B4DD00C01215192
:1016C000050DF3501D257F0806E21D6B2151070D06
:1016D000F350010F1E27236B235104083CE3246BB6
:1016E0002451060834E3036A2351270FE96E0C0ED8
:1016F0000320EA6EEFCF2CFC2CCC00F02451016EBD
:1017000004E0D8900032012EFCD700A01ED0256B3B
:101710002151255D1AE2266B2151265D14E22651E6
:101720001D252C6F24512103F3501E2525252D6FD7
:101730002CCC3BFC3C6F22CC3DFC00019EEC06F027
:101740000C01262BE9D7252BE3D7242BC9D7232B34
:1017500021511D27C1D71F2BD8B4202B1D2B0001D1
:101760002ED70C010001000C0B01DE6BDE513E0890
:10177000D8A082D0D890DE35DF6FD890DE35010F4B
:10178000E06F490EE16F6E0EE26F690EE36F630E5C
:10179000E46F690EE56F610EE66F6E0EE76F640E23
:1017A000E86F6F0EE96F200EEA6F580EEB6F2D0E8B
:1017B000EC6F570EED6F650EEE6F610EEF6F740EEE
:1017C000F06F680EF16F650EF26F720EF36FF46BCF
:1017D000490EF56F6E0EF66F690EF76F630EF86FB8
:1017E000690EF96F610EFA6F6E0EFB6F640EFC6F7F
:1017F0006F0EFD6F200EFE6F530EFF6F650E0C0116
:10180000006F6E0E016F730E026F6F0E036F720E1C
:10181000046F650E056F730E066F076BDFCB1DFC43
:10182000050E1E6FDFCB1FFC0F0E206F010E216F08
:10183000226F0001ECDCE0CB1DFC050E0C011E6FDD
:10184000E0CB1FFC0F0E206F010E216F226F0001F5
:10185000DEDC050E0C011D6F070E1E6F0B0E206FD8
:10186000E10E1F6F010E216F226B0001A8DE69ECF3
:1018700005F00B01DE2B7AD70C011D6B060E1E6FD7
:101880007F0E1F6F0F0E206F010E216F226F000160
:101890009BEC07F00B01DE6BDE513E085DE3D89058
:1018A000DE350C01086FD8900B01DE35010F0C01FD
:1018B000096F490E0A6F6E0E0B6F690E0C6F630E87
:1018C0000D6F690E0E6F610E0F6F6E0E106F640E4E
:1018D000116F6F0E126F200E136F530E146F650E83
:1018E000156F6E0E166F730E176F6F0E186F720EE8
:1018F000196F650E1A6F730E1B6F1C6B08CC1DFCE5
:10190000050E1E6F08CC1FFC0F0E206F010E216FFD
:10191000226B00017CDC09CC1DFC050E0C011E6F46
:1019200009CC1FFC0F0E206F010E216F226B0001EE
:101930006EDC050E0C011D6F070E1E6F0C0E206F66
:101940000A0E1F6F010E216F226F000138DE69EC55
:1019500005F00B01DE2BA0D7000178EF30F00B0172
:10196000DF6BDE6BE291E06BE051070851E393948B
:101970008A940C01246B400E256F00011BEC05F0CE
:10198000010E0C01246F400E256F00011BEC05F0C9
:101990000B01E051B809E36F0C01246B256F0001C6
:1019A0001BEC05F00B01E051B809E36F010E0C01CF
:1019B000246FE3CB25FC00011BEC05F093948A8493
:1019C0000B01E16BE1517F0821E3E1513F0802E3A4
:1019D000E29101D0E281000EE2B1010EE36FDFCBB4
:1019E00003F0DE51DFCBF7FF0001ACEC01F00B019F
:1019F000E46FE3CB24FCE8CF25FC00011BEC05F0F1
:101A00000B01DE2BD8B4DF2BE12BDCD7E02BACD7DE
:101A1000E06B00017AEF30F00B0EEA6EDF0EE96E3C
:101A2000EF500DE0020E016E006A002EFED7012E6F
:101A3000FBD7970E006E002EFED7EF2EF3D782EF66
:101A400030F0070E0B01E125E36F7C0E0C01286FCF
:101A5000E1CB29FC2A6FE3CB2BFCE2CB2CFC000171
:101A6000FCEC06F0010E0B01E125E36F060EE1250B
:101A7000E46F7D0E0C01286FE3CB29FC2A6FE4CBC9
:101A80002BFCE2CB2CFC0001FCEC06F0020E0B015F
:101A9000E125E36F050EE125E46F7E0E0C01286F52
:101AA000E3CB29FC2A6FE4CB2BFCE2CB2CFC00011E
:101AB000FCEC06F0030E0B01E125E36F040EE125BB
:101AC000E46F7F0E0C01286FE3CB29FC2A6FE4CB77
:101AD0002BFCE2CB2CFC0001FCEC06F0000C0B0113
:101AE000E96B00013BEC05F00C011D6B1E6B080E51
:101AF000206F4F0E1F6F010E216F226F00015FDDFF
:101B00000C011D6B090E1E6F7F0E1F6F090E206FDB
:101B1000020E216F010E226F000107EC09F00C018B
:101B20001D6B0E0E1E6F080E206F5D0E1F6F010ED7
:101B3000216F226F000143DD0E0E0B01E16F010EDC
:101B4000E26F00017EDF0C011D6B170E1E6F080E89
:101B5000206F6B0E1F6F010E216F226F00012FDDB2
:101B6000640E0C011D6F170E1E6F080E206FE20E23
:101B70001F6F010E216F226F000121DD170E0B0177
:101B8000E16F010EE26F00015CDF0C011D6B200EA6
:101B90001E6F080E206F910E1F6F010E216F226FB6
:101BA00000010DDD640E0C011D6F200E1E6F080E6E
:101BB000206FE50E1F6F010E216F226F0001FFDC09
:101BC000200E0B01E16F010EE26F00013ADF0C0104
:101BD0001D6B290E1E6F080E206FAD0E1F6F010EBC
:101BE000216F226F0001EBDC640E0C011D6F290ECA
:101BF0001E6F080E206FE90E1F6F010E216F226FFE
:101C00000001DDDC290E0B01E16F010EE26F000126
:101C100018DF69EC05F0000C0801EE5337E1F0C85D
:101C2000F1F8F2C8F3F8F6C8F7F8F9C8F8F8F4C80C
:101C3000F5F89280F06B80B0F02B9286F26B80B654
:101C4000F22B9282F66B80B2F62B9284F96B80B401
:101C5000F92B9288F46B80B8F42BF151F05D0CE114
:101C6000F351F25D09E1F551F45D06E1F651F75DDE
:101C700003E1F951F85D09E0010EEE6FCF6ACE6A1B
:101C80000201E36B94928B820801C7D70001000C1C
:101C90000B01E051FB0FD8B059D3050F0001B9EF8C
:101CA00011F0010E0B01DF5DFC0FD8B0D2D0040F94
:101CB0000001A8EF11F013DF0C011D6B110E1E6F58
:101CC0007F0E1F6F110E206F090E216F010E226F04
:101CD000000107EC09F00C011D6B0E0E1E6F080EC3
:101CE000206F5D0E1F6F010E216F226B000167DCFC
:101CF0000E0E0B01E16FE26B0001A3DE69EC05F053
:101D00000B01A7D00001EBDE0C011D6B1A0E1E6F3C
:101D10007F0E1F6F1A0E206F090E216F010E226FAA
:101D2000000107EC09F00C011D6B170E1E6F080E69
:101D3000206F6B0E1F6F010E216F226B00013FDCC5
:101D4000640E0C011D6F170E1E6F080E206FE20E41
:101D50001F6F010E216F226B000131DC170E0B018A
:101D6000E16FE26B00016DDE69EC05F00B0171D0F3
:101D70000001B5DE0C011D6B230E1E6F7F0E1F6F61
:101D8000230E206F090E216F010E226F000107EC58
:101D900009F00C011D6B200E1E6F080E206F910EB6
:101DA0001F6F010E216F226B000109DC640E0C0114
:101DB0001D6F200E1E6F080E206FE50E1F6F010EA7
:101DC000216F226B0001DFEC0AF0200E0B01E16FA6
:101DD000E26B000136DE69EC05F00B013AD0000140
:101DE0007EDE0C011D6B2C0E1E6F7F0E1F6F2C0EE6
:101DF000206F090E216F010E226F000107EC09F020
:101E00000C011D6B290E1E6F080E206FAD0E1F6F8B
:101E1000010E216F226B0001DFEC0AF0640E0C0151
:101E20001D6F290E1E6F080E206FE90E1F6F010E29
:101E3000216F226B0001DFEC0AF0290E0B01E16F2C
:101E4000E26B0001FEDD69EC05F00B0102D0000140
:101E50000B017CD200010B0179D200010B01DF5193
:101E6000010A000103E0030A50E09ED00B01E96B78
:101E700000013BEC05F00C011D6B1E6B080E206F82
:101E80006B0E1F6F010E216F226F0001DFEC0AF055
:101E90000C011D6B090E1E6F7F0E1F6F090E206F48
:101EA000020E216F010E226F000107EC09F00C01F8
:101EB0001D6B110E1E6F7F0E1F6F110E206F090E0E
:101EC000216F010E226F000107EC09F00C011D6B60
:101ED0000E0E1E6F080E206F7B0E1F6F010E216FFE
:101EE000226B0001DFEC0AF00C011D6B170E1E6F58
:101EF000080E206F850E1F6F010E216F226F0001EB
:101F0000DFEC0AF069EC05F04FD00B01E96B000142
:101F10003BEC05F00C011D6B1E6B080E206F6B0E69
:101F20001F6F010E216F226F0001DFEC0AF00C0120
:101F30001D6B090E1E6F7F0E1F6F090E206F020EA4
:101F4000216F010E226F000107EC09F00C011D6BDF
:101F50000E0E1E6F080E206F7B0E1F6F010E216F7D
:101F6000226F0001DFEC0AF00C011D6B1A0E1E6FD0
:101F70007F0E1F6F1A0E206F090E216F010E226F48
:101F8000000107EC09F00C011D6B170E1E6F080E07
:101F9000206F850E1F6F010E216F226B0001DFEC99
:101FA0000AF069EC05F000D00B01D0D100010B0163
:101FB000DF51010A000103E0030A50E09ED00B014B
:101FC000E96B00013BEC05F00C011D6B1E6B080E6C
:101FD000206F910E1F6F010E216F226F0001DFEC49
:101FE0000AF00C011D6B090E1E6F7F0E1F6F090E8C
:101FF000206F020E216F010E226F000107EC09F025
:102000000C011D6B110E1E6F7F0E1F6F110E206FC6
:10201000090E216F010E226F000107EC09F00C017F
:102020001D6B0E0E1E6F080E206F9A0E1F6F010E95
:10203000216F226B0001DFEC0AF00C011D6B170E03
:102040001E6F080E206FA40E1F6F010E216F226FEE
:102050000001DFEC0AF069EC05F04FD00B01E96BF1
:1020600000013BEC05F00C011D6B1E6B080E206F90
:10207000910E1F6F010E216F226F0001DFEC0AF03D
:102080000C011D6B090E1E6F7F0E1F6F090E206F56
:10209000020E216F010E226F000107EC09F00C0106
:1020A0001D6B0E0E1E6F080E206F9A0E1F6F010E15
:1020B000216F226F0001DFEC0AF00C011D6B1A0E7C
:1020C0001E6F7F0E1F6F1A0E206F090E216F010EFB
:1020D000226F000107EC09F00C011D6B170E1E6F3B
:1020E000080E206FA40E1F6F010E216F226B0001DE
:1020F000DFEC0AF069EC05F000D00B0127D10001FC
:102100000B01DF51010A000106E0030A61E0010A48
:10211000D8B4BBD017D10B01E96B00013BEC05F043
:102120000C011D6B1E6B080E206FAD0E1F6F010E94
:10213000216F226F0001DFEC0AF00C011D6B090E0C
:102140001E6F7F0E1F6F090E206F020E216F010E92
:10215000226F000107EC09F00C011D6B110E1E6FC0
:102160007F0E1F6F110E206F090E216F010E226F5F
:10217000000107EC09F00C011D6B0E0E1E6F080E1E
:10218000206FB80E1F6F010E216F226B0001DFEC74
:102190000AF00C011D6B170E1E6F080E206FC00E8B
:1021A0001F6F010E216F226F0001DFEC0AF00C019E
:1021B0001D6B200E1E6F080E206FC70E1F6F010EC5
:1021C000216F226F0001DFEC0AF069EC05F0BAD054
:1021D0000B01E96B00013BEC05F00C011D6B1E6B64
:1021E000080E206FAD0E1F6F010E216F226F0001D0
:1021F000DFEC0AF00C011D6B090E1E6F7F0E1F6FC6
:10220000090E206F020E216F010E226F000107ECF4
:1022100009F00C011D6B0E0E1E6F080E206FB80E1C
:102220001F6F010E216F226F0001DFEC0AF00C011D
:102230001D6B1A0E1E6F7F0E1F6F1A0E206F090E78
:10224000216F010E226F000107EC09F00C011D6BDC
:10225000170E1E6F080E206FC00E1F6F010E216F2C
:10226000226B0001DFEC0AF00C011D6B200E1E6FCB
:10227000080E206FC70E1F6F010E216F226F000125
:10228000DFEC0AF069EC05F05DD00B01E96B0001B1
:102290003BEC05F00C011D6B1E6B080E206FAD0EA4
:1022A0001F6F010E216F226F0001DFEC0AF00C019D
:1022B0001D6B090E1E6F7F0E1F6F090E206F020E21
:1022C000216F010E226F000107EC09F00C011D6B5C
:1022D0000E0E1E6F080E206FB80E1F6F010E216FBD
:1022E000226F0001DFEC0AF00C011D6B170E1E6F50
:1022F000080E206FC00E1F6F010E216F226F0001AC
:10230000DFEC0AF00C011D6B230E1E6F7F0E1F6F9A
:10231000230E206F090E216F010E226F000107ECC2
:1023200009F00C011D6B200E1E6F080E206FC70EEA
:102330001F6F010E216F226B0001DFEC0AF069ECC8
:1023400005F000D00B0102D000010B010001000CD0
:10235000E824F76AF7366B0FF66E230EF7220A00B1
:10236000F550FA6E0800F550F96EB61C061D721D88
:10237000E01DE824F76AF7368D0FF66E230EF7227C
:102380000A00F550FA6E0800F550F96EA21C561EB0
:102390005C1EAE1F0021006A016A0B01F551D89046
:1023A000F6B1002600320132F6B3002600320132C7
:1023B000F6B5002600320132F6B7002600320132AF
:1023C000F6B9002600320132F6BB00260032013297
:1023D000F6BD002600320132F6BF0026003201327F
:1023E000000161EF12F00B01F36BF16B0A0EF26F5B
:1023F000F06BEE51EF1103E1000E016EC3D0F3510B
:10240000F32B036AEE25E96EEF510320EA6EEFCF5E
:10241000F4FBF4512D080DE1010EF16FF351F32B94
:10242000036AEE25E96EEF510320EA6EEFCFF4FB6D
:102430000DD0F4512B080AE1F351F32B036AEE257A
:10244000E96EEF510320EA6EEFCFF4FBF4512F0851
:10245000D8B090D0F4513908D8A08CD0F4513008BD
:1024600021E1036AF351EE25E96EEF510320EA6E94
:10247000EF5078080AE0036AF351EE25E96EEF5158
:102480000320EA6EEF5058080DE1100EF26FF32BA7
:10249000F351F32B036AEE25E96EEF510320EA6E48
:1024A000EFCFF4FBF2510A081DE1F4512F0819E2B5
:1024B000F451390816E30A0EF56FF0CBF6FB000174
:1024C0006AD7300E0B01F45D0124F06FF351F32B4A
:1024D000036AEE25E96EEF510320EA6EEFCFF4FBBD
:1024E000E4D748D0F251100845E1F451600806E203
:1024F000F4517A0803E3F451DF0B01D0F451F46F87
:10250000F4512F0803E2F451390806E2F45140086F
:1025100031E2F45146082EE3F4512F080CE2F45155
:10252000390809E3F039F56FF00EF517300EF45D58
:10253000F525F06F09D0F039F56FF00EF517410E63
:10254000F45D0A0FF525F06FF351F32B036AEE25C6
:10255000E96EEF510320EA6EEFCFF4FBF45160080F
:1025600006E2F4517A0803E3F451DF0B01D0F45191
:10257000F46FC6D7F12D04D0F2510A0801E1F06DD5
:10258000F0CB01F00001000C0C01006B016B010E9F
:10259000026FDA6AD96A0B0E056FF80E046F0B0E24
:1025A000EA6EFC0EE96E05CCE2FF04CCE1FF02CC42
:1025B00003FCD890E550EE02F3500023F4500123C1
:1025C000032FF7D700CCDEFF01CC00FC016BD8B0A5
:1025D000012B042BD8B4052B022B02510508DFE197
:1025E0000001000CD8B204D00C0EEA6E080EE96EA1
:1025F0000C0103510719800B0D6F03AF0BD0001FA7
:10260000011F021F031F002BD8B4012BD8B4022BCB
:10261000D8B4032B07AF0BD0041F051F061F071FDD
:10262000042BD8B4052BD8B4062BD8B4072B006ADA
:10263000016A026A036A086B096B0A6B0B6B07512C
:102640000611051104112CE0200E0C6FD8900037F4
:10265000013702370337083709370A370B37075175
:102660000B5D08E106510A5D05E10551095D02E1D6
:102670000451085D0FE30451085F0551D8A0053DE2
:10268000095F0651D8A0063D0A5F0751D8A0073D53
:102690000B5FD88000360136023603360C2FD6D7B2
:1026A0000DAF0BD0001E011E021E031E002AD8B45F
:1026B000012AD8B4022AD8B4032A08CCEFFF09CCE7
:1026C000ECFF0ACCECFF0BCCECFF0001000C0B0183
:1026D000F36BF26BF16B010EF06FF56BF66BECBF09
:1026E00001D01AD0010EF56FECCBFBFBEBCBFAFB64
:1026F000EACBF9FBE9CBF8FBFF0EFF6FFE6FFD6F36
:10270000FC6F000141DF03C0ECFB02C0EBFB01C02A
:10271000EAFB00C0E9FB0B01F05306E1F15304E1D1
:10272000F25302E1F35378E0D892ECCB03FCEBCB0D
:1027300002FCEACB01FCE9CB00FC0C01076B066B49
:10274000056BEDCB04FC00014DDF03C0F3FB02C0C1
:10275000F2FB01C0F1FB00C0F0FB036A0B01F65174
:10276000EE25016EEF51032201C0F8FB03C0F9FB17
:10277000EACFFBFBE9CFFAFBD8820B0EEA6EFC0E28
:10278000E96EECCB03FCEBCB02FCEACB01FCE9CB22
:1027900000FC0C01076B066B056BEDCB04FC000124
:1027A00021DFFBCBEAFFFACBE9FFFFCB03FCFECB3B
:1027B00002FCFDCB01FCFCCB00FC300E0C01002523
:1027C000006E000E0121000E0221000E0321F9CB44
:1027D000EAFFF8CBE9FF00C0EFFF036A0B01F651F7
:1027E000EE25E96EEF510320EA6EEF5039080AE258
:1027F000036AF651EE25E96EEF510320EA6E070EEB
:10280000EF24EF6EF62BF3CBECFBF2CBEBFBF1CB33
:10281000EAFBF0CBE9FB80D7F52D0AD0036AF6512D
:10282000EE25E96EEF510320EA6E2D0EEF6EF62BCA
:10283000F46BD890F631F45D2FE2036AF451EE2583
:10284000E96EEF510320EA6EEFCFF7FB036AF45114
:10285000EE25016EEF51032203C0F9FBF451F65D42
:10286000FF0F036AEE25E96EEF510320EA6EEFCF0A
:10287000FAFBF9CBEAFF01C0E9FFFACBEFFFF45115
:10288000F65DFF0F036AEE25E96EEF510320EA6E55
:10289000F7CBEFFFF42BCDD7036AF651EE25E96EA7
:1028A000EF510320EA6EEF6AEECB01F0EFCB02F0BE
:1028B0000001000C0B01F59FF86BF3CBF9FB000155
:1028C00089EC04F001C0F8FB0B01F651410804E16A
:1028D000F75302E1F88D0FD0F651500805E1F75398
:1028E00003E1600EF81307D0F6514D0804E1F753E9
:1028F00002E13F0EF817948800D0948600D00000C3
:102900008B98949800D08B969496D00EFA6F000115
:102910001EEC04F00B01FA6B00011EEC04F0F5CB89
:10292000F9FB89EC04F001C0F9FB01C0FAFB1EECD5
:1029300004F0F4CBF9FB89EC04F001C0F9FB01C011
:10294000FAFB1EEC04F0F8CBFAFB1EEC04F0F2CB21
:10295000F9FB89EC04F001C0F9FB01C0FAFB1EECA5
:1029600004F0EFCBF9FB89EC04F001C0F9FB01C0E6
:10297000FAFB1EEC04F0F0CBF9FB89EC04F001C08B
:10298000F9FB01C0FAFB1EEC04F0F1CBF9FB89EC7A
:1029900004F001C0F9FB01C0FAFB1EEC04F0800E4C
:1029A0000B01FA6F00011EEC04F09498000094866D
:1029B00082A6FED700D000D00000948800D0B0EFEF
:1029C0001EF00B01E96B00013BEC05F00C011D6BE7
:1029D0001E6B080E206F5D0E1F6F010E216F226FA0
:1029E0000001DFEC0AF00C011D6B090E1E6F7F0E5B
:1029F0001F6F090E206F020E216F010E226F000162
:102A000007EC09F0050E0C011D6F140E1E6F190E58
:102A10001F6F230E206F216B010E226F00019BECB4
:102A200007F0090E0C011D6F180E1E6F080E206FA7
:102A3000CE0E1F6F010E216F226F0001DFEC0AF036
:102A4000230E0C011D6F140E1E6F370E1F6F230E09
:102A5000206F216B010E226F00019BEC07F0270E07
:102A60000C011D6F180E1E6F080E206FD00E1F6F09
:102A7000010E216F226F0001DFEC0AF0410E0C0104
:102A80001D6F140E1E6F550E1F6F230E206F216BCE
:102A9000010E226F00019BEC07F0450E0C011D6F2B
:102AA000180E1E6F080E206FD30E1F6F010E216FC0
:102AB000226F0001DFEC0AF05F0E0C011D6F140E97
:102AC0001E6F730E1F6F230E206F216B010E226F7E
:102AD00000019BEC07F0630E0C011D6F180E1E6FBA
:102AE000080E206FD60E1F6F010E216F226F00019E
:102AF000DFEC0AF0050E0C011D6F2D0E1E6F190E76
:102B00001F6F3C0E206F216B010E226F00019BECAA
:102B100007F0090E0C011D6F310E1E6F080E206F9D
:102B2000D90E1F6F010E216F226F0001DFEC0AF03A
:102B3000230E0C011D6F2D0E1E6F370E1F6F3C0EE6
:102B4000206F216B010E226F00019BEC07F0270E16
:102B50000C011D6F310E1E6F080E206FDC0E1F6FF3
:102B6000010E216F226F0001DFEC0AF0410E0C0113
:102B70001D6F2D0E1E6F550E1F6F3C0E206F216BAB
:102B8000010E226F00019BEC07F0450E0C011D6F3A
:102B9000310E1E6F080E206FDF0E1F6F010E216FAA
:102BA000226F0001DFEC0AF069EC05F00CEC0EF08E
:102BB0000801F92D07D0010EEF27EF51070802E2B7
:102BC000010EEF6FF62D06D0010EEF5FEF5302E11D
:102BD000070EEF6FF42D02D00A0EEF6F010EEF5DBE
:102BE000F60FD8B062EF1EF00A0F0001DEEF1EF004
:102BF000410E0C011D6F2D0E1E6F550E1F6F3C0EEA
:102C0000206F010E216F226B00019BEC07F0410E3B
:102C10000C011D6F2D0E1E6F550E1F6F3C0E206F89
:102C2000216B010E226F00019BEC07F0450E0C0199
:102C30001D6F310E1E6F080E206FDF0E1F6F010E0D
:102C4000216F226F0001DFEC0AF0050E0C011D6FF1
:102C5000140E1E6F190E1F6F230E206F010E216FB1
:102C6000226F00019BEC07F0090E0C011D6F180E7E
:102C70001E6F080E206FCE0E1F6F010E216F226B8C
:102C80000001DFEC0AF0230E0C011D6F140E1E6F05
:102C9000370E1F6F230E206F010E216F226B000174
:102CA0009BEC07F0230E0C011D6F140E1E6F370EE8
:102CB0001F6F230E206F216B010E226F00019BEC12
:102CC00007F0270E0C011D6F180E1E6F080E206FE7
:102CD000D00E1F6F010E216F226F0001DFEC0AF092
:102CE00069EC05F00801F05353E1F22D51D0CD2BE2
:102CF000CD51060801E2CD6BCD51F90F28E2070F47
:102D00000001B6EF1EF04C0E0801CE6F20D000017E
:102D10004D0E0801CE6F1BD00001490E0801CE6F89
:102D200016D000014A0E0801CE6F11D00001560ED8
:102D30000801CE6F0CD00001530E0801CE6F07D0F2
:102D40000001440E0801CE6F02D000010801050EFB
:102D50000C011D6F140E1E6F190E1F6F230E206FB6
:102D6000010E216F226F00019BEC07F0090E0C0190
:102D70001D6F180E1E6F080E206FCE0E1F6F010EF6
:102D8000216F226B0001DFEC0AF069EC05F008010D
:102D9000F02D54D0F25352E1CD07CD510A0802E292
:102DA000060ECD6FCD51F90F28E2070F0001CAEFD3
:102DB0001EF04C0E0801CE6F20D000014D0E080110
:102DC000CE6F1BD00001490E0801CE6F16D0000156
:102DD0004A0E0801CE6F11D00001560E0801CE6FC9
:102DE0000CD00001530E0801CE6F07D00001440E35
:102DF0000801CE6F02D000010801050E0C011D6F05
:102E0000140E1E6F190E1F6F230E206F010E216FFF
:102E1000226F00019BEC07F0090E0C011D6F180ECC
:102E20001E6F080E206FCE0E1F6F010E216F226BDA
:102E30000001DFEC0AF069EC05F0080162EF1EF01A
:102E40000001050E0C011D6F140E1E6F190E1F6F71
:102E5000230E206F010E216F226B00019BEC07F007
:102E6000050E0C011D6F140E1E6F190E1F6F230E21
:102E7000206F216B010E226F00019BEC07F0090E01
:102E80000C011D6F180E1E6F080E206FCE0E1F6FE7
:102E9000010E216F226F0001DFEC0AF0230E0C01FE
:102EA0001D6F140E1E6F370E1F6F230E206F010E45
:102EB000216F226F00019BEC07F0270E0C011D6FA4
:102EC000180E1E6F080E206FD00E1F6F010E216F9F
:102ED000226B0001DFEC0AF0410E0C011D6F140E95
:102EE0001E6F550E1F6F230E206F010E216F226B78
:102EF00000019BEC07F0410E0C011D6F140E1E6FBC
:102F0000550E1F6F230E206F216B010E226F0001E3
:102F10009BEC07F0450E0C011D6F180E1E6F080E7E
:102F2000206FD30E1F6F010E216F226F0001DFECA7
:102F30000AF069EC05F00801F05352E1F22D50D08F
:102F4000080E0B01EF6FD00EEE6F0001F3EC11F0E5
:102F500001C0DFFB010E0B01DF5FDF5312E1080E42
:102F6000EF6FD30EEE6F0001F3EC11F00150020889
:102F700005E11C0E0B01DF6F04D000011F0E0B01D9
:102F8000DF6FEC6BEB6BEA6BDFCBE9FB0A0EED6FEF
:102F9000080EEF6FD00EEE6F000167EC13F0230EFA
:102FA0000C011D6F140E1E6F370E1F6F230E206F46
:102FB000010E216F226F00019BEC07F0270E0C0120
:102FC0001D6F180E1E6F080E206FD00E1F6F010EA2
:102FD000216F226B0001DFEC0AF069EC05F00801BB
:102FE000F02D54D0F25352E1080E0B01EF6FD00ECA
:102FF000EE6F0001F3EC11F001C0E0FB010E0B01DC
:10300000E027080EEF6FD30EEE6F0001F3EC11F026
:103010000150020806E10B01E0511D0802E1010E1A
:10302000E06F0B01E051200802E1010EE06FEC6B54
:10303000EB6BEA6BE0CBE9FB0A0EED6F080EEF6F6E
:10304000D00EEE6F000167EC13F0230E0C011D6F24
:10305000140E1E6F370E1F6F230E206F010E216F8F
:10306000226F00019BEC07F0270E0C011D6F180E5C
:103070001E6F080E206FD00E1F6F010E216F226B86
:103080000001DFEC0AF069EC05F0080162EF1EF0C8
:103090000001230E0C011D6F140E1E6F370E1F6FE3
:1030A000230E206F010E216F226B00019BEC07F0B5
:1030B000230E0C011D6F140E1E6F370E1F6F230E93
:1030C000206F216B010E226F00019BEC07F0270E91
:1030D0000C011D6F180E1E6F080E206FD00E1F6F93
:1030E000010E216F226F0001DFEC0AF0410E0C018E
:1030F0001D6F140E1E6F550E1F6F230E206F010ED5
:10310000216F226F00019BEC07F0450E0C011D6F33
:10311000180E1E6F080E206FD30E1F6F010E216F49
:10312000226B0001DFEC0AF05F0E0C011D6F140E24
:103130001E6F730E1F6F230E206F010E216F226B07
:1031400000019BEC07F05F0E0C011D6F140E1E6F4B
:10315000730E1F6F230E206F216B010E226F000173
:103160009BEC07F0630E0C011D6F180E1E6F080E0E
:10317000206FD60E1F6F010E216F226F0001DFEC52
:103180000AF069EC05F00801F05342E1F22D40D05D
:10319000080E0B01EF6FD30EEE6F0001F3EC11F090
:1031A00001C0E1FB010E0B01E15FE15302E10C0EF6
:1031B000E16FEC6BEB6BEA6BE1CBE9FB0A0EED6FB9
:1031C000080EEF6FD30EEE6F000167EC13F0410EA7
:1031D0000C011D6F140E1E6F550E1F6F230E206FF6
:1031E000010E216F226F00019BEC07F0450E0C01D0
:1031F0001D6F180E1E6F080E206FD30E1F6F010E6D
:10320000216F226B0001DFEC0AF069EC05F0080188
:10321000F02D43D0F25341E1080E0B01EF6FD30EB6
:10322000EE6F0001F3EC11F001C0E2FB010E0B01A7
:10323000E227E2510D0802E1010EE26FEC6BEB6B4D
:10324000EA6BE2CBE9FB0A0EED6F080EEF6FD30ECF
:10325000EE6F000167EC13F0410E0C011D6F140EB0
:103260001E6F550E1F6F230E206F010E216F226FF0
:1032700000019BEC07F0450E0C011D6F180E1E6F30
:10328000080E206FD30E1F6F010E216F226B0001FD
:10329000DFEC0AF069EC05F0080162EF1EF00001B6
:1032A000410E0C011D6F140E1E6F550E1F6F230E65
:1032B000206F010E216F226B00019BEC07F0410E85
:1032C0000C011D6F140E1E6F550E1F6F230E206F05
:1032D000216B010E226F00019BEC07F0450E0C01E3
:1032E0001D6F180E1E6F080E206FD30E1F6F010E7C
:1032F000216F226F0001DFEC0AF05F0E0C011D6FE1
:10330000140E1E6F730E1F6F230E206F010E216FA0
:10331000226F00019BEC07F0630E0C011D6F180E6D
:103320001E6F080E206FD60E1F6F010E216F226BCD
:103330000001DFEC0AF0050E0C011D6F2D0E1E6F53
:10334000190E1F6F3C0E206F010E216F226B0001C2
:103350009BEC07F0050E0C011D6F2D0E1E6F190E54
:103360001F6F3C0E206F216B010E226F00019BEC42
:1033700007F0090E0C011D6F310E1E6F080E206F35
:10338000D90E1F6F010E216F226F0001DFEC0AF0D2
:1033900069EC05F00801F05342E1F22D40D0080E2F
:1033A0000B01EF6FD60EEE6F0001F3EC11F001C0D0
:1033B000E3FB010E0B01E35FE35302E1630EE36FF6
:1033C000EC6BEB6BEA6BE3CBE9FB0A0EED6F080EDF
:1033D000EF6FD60EEE6F000167EC13F05F0E0C017D
:1033E0001D6F140E1E6F730E1F6F230E206F010EC4
:1033F000216F226F00019BEC07F0630E0C011D6F23
:10340000180E1E6F080E206FD60E1F6F010E216F53
:10341000226B0001DFEC0AF069EC05F00801F02DE9
:1034200042D0F25340E1080E0B01EF6FD60EEE6F63
:103430000001F3EC11F001C0E4FB010E0B01E427E5
:10344000E451630801E1E46BEC6BEB6BEA6BE4CBFA
:10345000E9FB0A0EED6F080EEF6FD60EEE6F00015E
:1034600067EC13F05F0E0C011D6F140E1E6F730ED0
:103470001F6F230E206F010E216F226F00019BEC46
:1034800007F0630E0C011D6F180E1E6F080E206FE3
:10349000D60E1F6F010E216F226B0001DFEC0AF0C8
:1034A00069EC05F0080162EF1EF000015F0E0C01EF
:1034B0001D6F140E1E6F730E1F6F230E206F010EF3
:1034C000216F226B00019BEC07F05F0E0C011D6F5A
:1034D000140E1E6F730E1F6F230E206F216B010ED3
:1034E000226F00019BEC07F0630E0C011D6F180E9C
:1034F0001E6F080E206FD60E1F6F010E216F226FF8
:103500000001DFEC0AF0050E0C011D6F2D0E1E6F81
:10351000190E1F6F3C0E206F010E216F226F0001EC
:103520009BEC07F0090E0C011D6F310E1E6F080E8B
:10353000206FD90E1F6F010E216F226B0001DFEC8F
:103540000AF0230E0C011D6F2D0E1E6F370E1F6F1C
:103550003C0E206F010E216F226B00019BEC07F0E7
:10356000230E0C011D6F2D0E1E6F370E1F6F3C0EAC
:10357000206F216B010E226F00019BEC07F0270EDC
:103580000C011D6F310E1E6F080E206FDC0E1F6FB9
:10359000010E216F226F0001DFEC0AF069EC05F0EB
:1035A0000801F05352E1F22D50D0080E0B01EF6FDD
:1035B000D90EEE6F0001F3EC11F001C0E5FB010E36
:1035C0000B01E55F0801DF51410803E0DF515008BE
:1035D00007E10B01E55302E10C0EE56F07D008018E
:1035E0000B01E551320802E2170EE56FEC6BEB6B55
:1035F000EA6BE5CBE9FB0A0EED6F080EEF6FD90E13
:10360000EE6F000167EC13F0050E0C011D6F2D0E1F
:103610001E6F190E1F6F3C0E206F010E216F226F5F
:1036200000019BEC07F0090E0C011D6F310E1E6F9F
:10363000080E206FD90E1F6F010E216F226B000143
:10364000DFEC0AF069EC05F00801F02D52D0F253DE
:1036500050E1080E0B01EF6FD90EEE6F0001F3EC95
:1036600011F001C0E6FB010E0B01E6270801DF5156
:10367000410803E0DF51500808E10B01E6510C0856
:1036800002E2010EE66F06D008010B01E6511708B1
:1036900001E2E66BEC6BEB6BEA6BE6CBE9FB0A0E47
:1036A000ED6F080EEF6FD90EEE6F000167EC13F0AF
:1036B000050E0C011D6F2D0E1E6F190E1F6F3C0E97
:1036C000206F010E216F226F00019BEC07F0090EA5
:1036D0000C011D6F310E1E6F080E206FD90E1F6F6B
:1036E000010E216F226B0001DFEC0AF069EC05F09E
:1036F0000801E8D20001050E0C011D6F2D0E1E6F92
:10370000190E1F6F3C0E206F010E216F226B0001FE
:103710009BEC07F0050E0C011D6F2D0E1E6F190E90
:103720001F6F3C0E206F216B010E226F00019BEC7E
:1037300007F0090E0C011D6F310E1E6F080E206F71
:10374000D90E1F6F010E216F226F0001DFEC0AF00E
:10375000230E0C011D6F2D0E1E6F370E1F6F3C0EBA
:10376000206F010E216F226F00019BEC07F0270EE6
:103770000C011D6F310E1E6F080E206FDC0E1F6FC7
:10378000010E216F226B0001DFEC0AF0410E0C01EB
:103790001D6F2D0E1E6F550E1F6F3C0E206F010EFC
:1037A000216F226B00019BEC07F0410E0C011D6F95
:1037B0002D0E1E6F550E1F6F3C0E206F216B010EDC
:1037C000226F00019BEC07F0450E0C011D6F310EBE
:1037D0001E6F080E206FDF0E1F6F010E216F226F0C
:1037E0000001DFEC0AF069EC05F00801F05342E15A
:1037F000F22D40D0080E0B01EF6FDC0EEE6F0001D2
:10380000F3EC11F001C0E7FB0B01E75302E13C0EC2
:10381000E76F010EE75FEC6BEB6BEA6BE7CBE9FB65
:103820000A0EED6F080EEF6FDC0EEE6F000167EC15
:1038300013F0230E0C011D6F2D0E1E6F370E1F6F20
:103840003C0E206F010E216F226F00019BEC07F0F0
:10385000270E0C011D6F310E1E6F080E206FDC0E3F
:103860001F6F010E216F226B0001DFEC0AF069EC83
:1038700005F00801F02D42D0F25340E1080E0B0193
:10388000EF6FDC0EEE6F0001F3EC11F001C0E8FB0E
:10389000010E0B01E827E8513B0801E2E86BEC6BF5
:1038A000EB6BEA6BE8CBE9FB0A0EED6F080EEF6FEE
:1038B000DC0EEE6F000167EC13F0230E0C011D6FA0
:1038C0002D0E1E6F370E1F6F3C0E206F010E216FE5
:1038D000226F00019BEC07F0270E0C011D6F310ECB
:1038E0001E6F080E206FDC0E1F6F010E216F226B02
:1038F0000001DFEC0AF069EC05F00801E3D10001FA
:10390000230E0C011D6F2D0E1E6F370E1F6F3C0E08
:10391000206F010E216F226B00019BEC07F0230E3C
:103920000C011D6F2D0E1E6F370E1F6F3C0E206F8A
:10393000216B010E226F00019BEC07F0270E0C019A
:103940001D6F310E1E6F080E206FDC0E1F6F010EF3
:10395000216F226F0001DFEC0AF0410E0C011D6F98
:103960002D0E1E6F550E1F6F3C0E206F010E216F26
:10397000226F00019BEC07F0450E0C011D6F310E0C
:103980001E6F080E206FDF0E1F6F010E216F226B5E
:103990000001DFEC0AF0050E0C011D6F140E1E6F06
:1039A000190E1F6F230E206F010E216F226B000175
:1039B0009BEC07F0050E0C011D6F140E1E6F190E07
:1039C0001F6F230E206F216B010E226F00019BECF5
:1039D00007F0090E0C011D6F180E1E6F080E206FE8
:1039E000CE0E1F6F010E216F226F0001DFEC0AF077
:1039F00069EC05F00801F05334E1F22D32D0DF51CB
:103A0000410803E1500EDF6F0BD0DF51500803E196
:103A10004D0EDF6F05D0DF514D0802E1410EDF6F23
:103A2000410E0C011D6F2D0E1E6F550E1F6F3C0EAB
:103A3000206F010E216F226F00019BEC07F0450EF5
:103A40000C011D6F310E1E6F080E206FDF0E1F6FF1
:103A5000010E216F226B0001DFEC0AF069EC05F02A
:103A60000801F02D34D0F25332E1DF51410803E177
:103A70004D0EDF6F0BD0DF51500803E1410EDF6FB9
:103A800005D0DF514D0802E1500EDF6F410E0C01F1
:103A90001D6F2D0E1E6F550E1F6F3C0E206F010EF9
:103AA000216F226F00019BEC07F0450E0C011D6F8A
:103AB000310E1E6F080E206FDF0E1F6F010E216F7B
:103AC000226B0001DFEC0AF069EC05F00801FAD086
:103AD00000010B01E96B00013BEC05F00C011D6BD3
:103AE0001E6B080E206F5D0E1F6F010E216F226F7F
:103AF0000001DFEC0AF00C011D6B090E1E6F7F0E3A
:103B00001F6F090E206F020E216F010E226F000140
:103B100007EC09F0050E0C011D6F140E1E6F190E37
:103B20001F6F230E206F010E216F226F00019BEC8F
:103B300007F0090E0C011D6F180E1E6F080E206F86
:103B4000CE0E1F6F010E216F226B0001DFEC0AF019
:103B5000050E0C011D6F140E1E6F190E1F6F230E24
:103B6000206F216B010E226F00019BEC07F0090E04
:103B70000C011D6F180E1E6F080E206FD00E1F6FE8
:103B8000010E216F226F0001DFEC0AF0230E0C0101
:103B90001D6F140E1E6F370E1F6F230E206F216BCB
:103BA000010E226F00019BEC07F0270E0C011D6F28
:103BB000180E1E6F080E206FD30E1F6F010E216F9F
:103BC000226F0001DFEC0AF0410E0C011D6F140E94
:103BD0001E6F550E1F6F230E206F216B010E226F7B
:103BE00000019BEC07F0450E0C011D6F180E1E6FB7
:103BF000080E206FD60E1F6F010E216F226F00017D
:103C0000DFEC0AF0050E0C011D6F2D0E1E6F190E54
:103C10001F6F3C0E206F216B010E226F00019BEC89
:103C200007F0090E0C011D6F310E1E6F080E206F7C
:103C3000D90E1F6F010E216F226F0001DFEC0AF019
:103C4000230E0C011D6F2D0E1E6F370E1F6F3C0EC5
:103C5000206F216B010E226F00019BEC07F0270EF5
:103C60000C011D6F310E1E6F080E206FDC0E1F6FD2
:103C7000010E216F226F0001DFEC0AF0410E0C01F2
:103C80001D6F2D0E1E6F550E1F6F3C0E206F216B8A
:103C9000010E226F00019BEC07F0450E0C011D6F19
:103CA000310E1E6F080E206FDF0E1F6F010E216F89
:103CB000226F0001DFEC0AF069EC05F0080102D088
:103CC00000010801EE6BEF510A084BE1080E0B01F1
:103CD000EF6FD00EEE6F0001F3EC11F001C0E9FBC5
:103CE000080E0B01EF6FD30EEE6F0001F3EC11F035
:103CF00001C0EAFB080E0B01EF6FD60EEE6F00015C
:103D0000F3EC11F001C0EBFB010E0801CD250B0116
:103D1000EC6F080EEF6FD90EEE6F0001F3EC11F0AF
:103D200001C0EDFB080E0B01EF6FDC0EEE6F000122
:103D3000F3EC11F001C0EEFBE9CBEFFBEACBF0FBBB
:103D4000EBCBF1FBECCBF2FBEDCBF3FB01C0F4FBD7
:103D50000B01F56BF76BDFC8F6FB00015AEF14F0AF
:103D600003D00001D6EF15F001EF1FF0E824F76A49
:103D7000F736870FF66E3D0EF7220A00F550FA6E01
:103D80000800F550F96E062D102D1A2D242D2E2D1C
:103D9000382D422DE824F76AF736AF0FF66E3D0E48
:103DA000F7220A00F550FA6E0800F550F96EB22DB0
:103DB000BC2DC62DD02DDA2DE42DEE2DE824F76A8A
:103DC000F736D70FF66E3D0EF7220A00F550FA6E61
:103DD0000800F550F96EF02B422E9230A032AC3430
:103DE000F6360039C03CC03CD23A010E0B01DE5D14
:103DF000FC0FD8B0E7D0040F0001A4EF20F0E1EFF2
:103E000014F00201DC6B9DD10B01DCD000010B0131
:103E1000E96B00013BEC05F00C011D6B1E6B080EFD
:103E2000206F6B0E1F6F010E216F226F0001DFEC00
:103E30000AF00C011D6B090E1E6F7F0E1F6F090E1D
:103E4000206F020E216F010E226F000107EC09F0B6
:103E50000C011D6B0E0E1E6F080E206F7B0E1F6F68
:103E6000010E216F226F0001DFEC0AF00C011D6BC7
:103E7000170E1E6F080E206F850E1F6F010E216F2B
:103E8000226F0001DFEC0AF069EC05F00201DC6B47
:103E90000B0198D000010B01E96B00013BEC05F030
:103EA0000C011D6B1E6B080E206F910E1F6F010E13
:103EB000216F226F0001DFEC0AF00C011D6B090E6F
:103EC0001E6F7F0E1F6F090E206F020E216F010EF5
:103ED000226F000107EC09F00C011D6B0E0E1E6F26
:103EE000080E206F9A0E1F6F010E216F226F0001C6
:103EF000DFEC0AF00C011D6B170E1E6F080E206F11
:103F0000A40E1F6F010E216F226F0001DFEC0AF07B
:103F100069EC05F00201DC6B0B0154D000010B01D0
:103F2000E96B00013BEC05F00C011D6B1E6B080EEC
:103F3000206FAD0E1F6F010E216F226F0001DFECAD
:103F40000AF00C011D6B090E1E6F7F0E1F6F090E0C
:103F5000206F020E216F010E226F000107EC09F0A5
:103F60000C011D6B0E0E1E6F080E206FB80E1F6F1A
:103F7000010E216F226F0001DFEC0AF00C011D6BB6
:103F8000170E1E6F080E206FC00E1F6F010E216FDF
:103F9000226F0001DFEC0AF00C011D6B200E1E6F7A
:103FA000080E206FC70E1F6F010E216F226F0001D8
:103FB000DFEC0AF069EC05F00201DC6B0B0102D0CA
:103FC00000010B0100010CEC0EF00801F0530DE1B3
:103FD000F22D0BD0010E0201DC27DCC2DFFBDECBB1
:103FE000E0FB000148EC0EF00801F02D0DD0F2537B
:103FF0000BE1010E0201DC5FDCC2DFFBDECBE0FB8C
:10400000000148EC0EF00801F62D05D00201DC6B32
:104010000801EE6B94D0F42D8ED00B01DE51020A14
:10402000000105E0010A28E0070A4BE07FD0020109
:10403000DC51010A000103E0030A0FE01CD0080E66
:10404000EA6EE20EE96E000E67EC01F00A0009006C
:10405000F550EE6E0009FBE10ED0080EEA6EE20E9E
:10406000E96E000E70EC01F00A000900F550EE6EEA
:104070000009FBE100D05AD00201DC51010A000125
:1040800003E0030A0FE01CD0080EEA6EE50EE96EAD
:10409000000E79EC01F00A000900F550EE6E0009FF
:1040A000FBE10ED0080EEA6EE50EE96E000E83EC21
:1040B00001F00A000900F550EE6E0009FBE100D0A6
:1040C00035D00201DC51010A000105E0030A11E0CC
:1040D000010A1DE02AD0080EEA6EE90EE96E000E14
:1040E0008DEC01F00A000900F550EE6E0009FBE1CD
:1040F0001CD0080EEA6EE90EE96E000E97EC01F096
:104100000A000900F550EE6E0009FBE10ED0080E22
:10411000EA6EE90EE96E000EA2EC01F00A00090059
:10412000F550EE6E0009FBE100D000D00201DC6B1F
:104130000801EE6B04D0EE6B0B0144D70801EE6B67
:1041400002010001E4EF20F0E824F76AF736630F7C
:10415000F66E410EF7220A00F550FA6E0800F5508F
:10416000F96EFE3D0E3E963E1E3F6FEC0DF00CECE0
:104170000EF00801F42D01D033D0F0530DE1F22DF3
:104180000BD0010E0201DC27DCC2DFFB0B01E06B70
:10419000000148EC0EF00801F02D0DD0F2530BE1B8
:1041A000010E0201DC5FDCC2DFFB0B01E06B0001F2
:1041B00048EC0EF00801F92D0FD00201DC5305E0A8
:1041C000DCC2DEFB000111D60201DC5304E1000178
:1041D0006FEC0DF002010801EE6B0001C8D7080179
:1041E0000001000C0B01E36B010EDF5D090DF3CF45
:1041F000E3FB010EDE5DFC0F61E2040F000160EFE6
:1042000021F0030E0B01E325E46F030E0C011D6F7B
:10421000E4CB1EFCE1CB20FCE0CB1FFC010E216FA8
:10422000E2CB22FC0001DFEC0AF00B0147D00001D9
:10423000030E0B01E325E46F420E0C011D6FE4CB6E
:104240001EFCE1CB20FCE0CB1FFC010E216FE2CB7A
:1042500022FC0001DFEC0AF00B0130D00001220E3D
:104260000B01E325E46F250E0C011D6FE4CB1EFC52
:10427000E1CB20FCE0CB1FFC010E216FE2CB22FC46
:104280000001DFEC0AF00B0119D00001220E0B0136
:10429000E325E46F420E0C011D6FE4CB1EFCE1CB65
:1042A00020FCE0CB1FFC010E216FE2CB22FC0001C1
:1042B000DFEC0AF00B0102D000010B010001000C41
:1042C000E824F76AF736DB0FF66E420EF7220A0093
:1042D000F550FA6E0800F550F96E024230425E4227
:1042E0008C420B01E76B020EE66FDECBE9FFDFCB02
:1042F000EAFFEFCFE8FB010EDE25E96E000EDF21BD
:10430000EA6EEFCFE9FBE2534EE0E36BE951E35D88
:1043100049E2E46BE851E45D42E2E56BE5510708F0
:1043200039E3DE51E625E96EDF51E721EA6EEFCF92
:10433000EAFBEACB00F0E551016E04E0D8900032D0
:10434000012EFCD700B013D0E451E025EA6FE35111
:10435000E125E525EB6FEACB3BFCE8CF3CFC010E09
:104360000C013D6F00019EEC06F011D00B01E451F1
:10437000E025EA6FE351E125E525EB6FEACB3BFC55
:10438000E8CF3CFC0C013D6B00019EEC06F00B01FC
:10439000E52BC4D7E62BD8B4E72BE42BBBD7080E0C
:1043A000E327B4D73CD0E36BE951E35D38E2E46B3B
:1043B000E851E45D31E2E56BE551070828E3DE51A1
:1043C000E625E96EDF51E721EA6EEFCFEAFBEACBA3
:1043D00000F0E551016E04E0D8900032012EFCD7C8
:1043E00000A013D0E451E025EA6FE351E125E52573
:1043F000EB6FEACB3BFCE8CF3CFC010E0C013D6FC0
:1044000000019EEC06F000D00B01E52BD5D7E62B82
:10441000D8B4E72BE42BCCD7080EE327C5D700018F
:10442000000C0B01DE6B0001FCEC07F00301D12D49
:104430000BD0010E0B01DE6FDF6F030EE16FE06F3B
:10444000E26B0001CFDE0301D32D0DD0010E0B0175
:10445000DE6F020EDF6F030EE16F120EE06FE26B94
:104460000001C0DE0301D42D0CD0010E0B01DE6F64
:10447000030EDF6FE16F210EE06FE26B0001B2DE31
:104480000301D52D0ED0020E0B01DE6F010EDF6F82
:10449000030EE16F300EE06F010EE26F0001A2DE4D
:1044A0000301D92D0DD0020E0B01DE6FDF6F030E5D
:1044B000E16F5D0EE06F010EE26F000193DE03011C
:1044C000D82D1FD0410E0C011D6F150E1E6F7D0ED5
:1044D0001F6F1C0E206F216B010E226F00019BECE1
:1044E00007F0430E0C011D6F170E1E6FCCC31FFC8F
:1044F0001A0E206F010E216F226F00019BEC07F056
:104500000301DA2D5CD07651006E7751036E0350B3
:1045100005E1010E005C000117E00301035005E115
:10452000020E005C00011FE00301035005E1030ED1
:10453000005C000127E00301035005E1040E005C6C
:1045400000012FE003013BD0080E0B01DF6FFA0ED4
:10455000DE6F030EE06F200EE16FE26B0001C1DE43
:1045600003012DD00001090E0B01DF6F770EDE6F06
:10457000030EE06F200EE16FE26B0001B2DE03017B
:104580001ED00001090E0B01DF6FF90EDE6F030E66
:10459000E06F200EE16FE26B0001A3DE03010FD09C
:1045A00000010A0E0B01DF6F770EDE6F030EE06F66
:1045B000200EE16FE26B000194DE030100D0D62DE6
:1045C0000ED0030E0B01DE6F010EDF6F030EE16FE5
:1045D0003F0EE06F010EE26F000104DE0301D72DF4
:1045E0000ED0030E0B01DE6F020EDF6F030EE16FC4
:1045F0004E0EE06F010EE26F0001F4DD0301DC2DD1
:1046000076D07A51006E7B51036E035004E1005264
:1046100000011EE00301035005E1010E005C0001F2
:1046200027E00301035005E1020E005C000130E0C9
:104630000301035005E1030E005C000139E00301B2
:10464000035005E1040E005C000142E003014FD07D
:104650000A0E0B01DF6FF50EDE6F420EE06F210ECA
:10466000E16F010EE26F00013CDE030140D000016A
:104670000B0E0B01DF6F020EDE6F420EE06F210E9C
:10468000E16F010EE26F00012CDE030130D000016A
:104690000B0E0B01DF6F0F0EDE6F420EE06F210E6F
:1046A000E16F010EE26F00011CDE030120D000016A
:1046B0000B0E0B01DF6F1C0EDE6F420EE06F210E42
:1046C000E16F010EE26F00010CDE030110D000016A
:1046D0000B0E0B01DF6F290EDE6F420EE06F210E15
:1046E000E16F010EE26F0001FCDD030100D07C519F
:1046F000006E7D51036E035004E1005200011EE084
:104700000301035005E1010E005C000127E00301F5
:10471000035005E1020E005C000130E0030103508C
:1047200005E1030E005C000139E00301035005E1DF
:10473000040E005C000142E003014FD00A0E0B01A1
:10474000DF6FF50EDE6F580EE06F210EE16F010E88
:10475000E26F0001C6DD030140D000010B0E0B012A
:10476000DF6F020EDE6F580EE06F210EE16F010E5B
:10477000E26F0001B6DD030130D000010B0E0B012A
:10478000DF6F0F0EDE6F580EE06F210EE16F010E2E
:10479000E26F0001A6DD030120D000010B0E0B012A
:1047A000DF6F1C0EDE6F580EE06F210EE16F010E01
:1047B000E26F000196DD030110D000010B0E0B012A
:1047C000DF6F290EDE6F580EE06F210EE16F010ED4
:1047D000E26F000186DD030100D07851006E79514F
:1047E000036E035004E10052000109E0030103508D
:1047F00005E1010E005C000112E0030121D00B0E67
:104800000B01DF6F360EDE6F730EE06F210EE16F6E
:10481000010EE26F000165DD030112D000016E0E92
:104820000C011D6F210E1E6F030E206FCD0E1F6F2A
:10483000010E216F226B0001DFEC0AF0030100D0B2
:10484000D22D18D0040E0B01DE6F020EDF6F030EA7
:10485000E16FF00EE06FE26B0001C4DC040E0B01AF
:10486000DE6F030EDF6FE16FE60EE06FE26B0001BB
:10487000B9DC03010001000CD7CBEAFFD6CBE9FF7E
:104880000B01EBCBEFFFE92AD8B4EA2AEF6AD62B6B
:10489000D8B4D72B0001000CEF520FE0EACFDFFBBA
:1048A000E9CFDEFBEFCFEBFBE7DFDFCBEAFFDECBD1
:1048B000E9FFE92AD8B4EA2AEFD7000CDFCBE3FB03
:1048C000DECBE2FBE3CB03F00B01E2CBE9FFE3CB72
:1048D000EAFFEF5206E0E22BD8B4E32B0001F2D757
:1048E0000B01E1CB03F0E0CBE9FFE1CBEAFFEF52B4
:1048F00013E0E0CBE9FFE1CBEAFFEFCFE6FBE3CB50
:10490000EAFFE2CBE9FFE6CBEFFFE22BD8B4E32BE3
:10491000E02BD8B4E12BE5D7E2CBE9FFE3CBEAFF0C
:10492000EF6ADECB01F0DFCB02F00001000C0201E8
:10493000E55104080EE2FF0A03E1E451F00809E240
:104940000301796B786B94948B8400016ADD09D044
:1049500002010301796B010E786F94948B9400012E
:1049600060DD40EF33F092800801F06B80B0F02BF7
:104970009286F26B80B6F22B9282F66B80B2F62BA7
:104980009284F96B80B4F92B9288F46B80B8F42B85
:10499000F02D01D00BD0F22D01D008D0F42D01D094
:1049A00005D0F62D01D002D0F92D0CD0F06BF26BB2
:1049B000F66BF96BF46B0201E36B94928B82CF6A16
:1049C000CE6A0801000142EF33F05B505A5CFDE013
:1049D000036A5B501A0FE96E000E0320EA6EEFCFF8
:1049E000DEFB0B01010E5B243F0B5B6EDECB01F0A7
:1049F000000149EF33F00B01E46BE26B0A0EE36F49
:104A0000E16BE06BDE51DF1104E1000E016E026E1E
:104A1000EAD0E451E42B036ADE25E96EDF5103207E
:104A2000EA6EEFCFE5FBE5512D080DE1010EE26FD7
:104A3000E451E42B036ADE25E96EDF510320EA6EC0
:104A4000EFCFE5FB0DD0E5512B080AE1E451E42B53
:104A5000036ADE25E96EDF510320EA6EEFCFE5FB46
:104A6000E5512F08D8B0B1D0E5513908D8A0ADD064
:104A7000E551300821E1036AE451DE25E96EDF519A
:104A80000320EA6EEF5078080AE0036AE451DE255D
:104A9000E96EDF510320EA6EEF5058080DE1100E69
:104AA000E36FE42BE451E42B036ADE25E96EDF516A
:104AB0000320EA6EEFCFE5FBE3510A0825E1E5515B
:104AC0002F0821E2E55139081EE30C013F6B0A0E65
:104AD0003E6FE1CB41FCE0CB40FC0001DDEC08F097
:104AE000300E0B01E55D0124E06F000E0220E16F46
:104AF000E451E42B036ADE25E96EDF510320EA6E00
:104B0000EFCFE5FBDCD761D0E35110085EE1E55162
:104B1000600806E2E5517A0803E3E551DF0B01D0B6
:104B2000E551E56FE5512F0803E2E551390806E24A
:104B3000E55140084AE2E551460847E3E5512F08B0
:104B400019E2E551390816E3E035E66FE135E76F24
:104B5000E637E737E637E737E637E737F00EE617A9
:104B6000300EE55DE625016E000EE72101C0E0FB99
:104B7000E16F16D0E035E66FE135E76FE637E737EE
:104B8000E637E737E637E737F00EE617410EE55D23
:104B90000A0FE625016E000EE72101C0E0FBE16F80
:104BA000E451E42B036ADE25E96EDF510320EA6E4F
:104BB000EF50E56F600806E2E5517A0803E3E5513E
:104BC000DF0B01D0E551E56FADD7E3510A0807E1EE
:104BD000E22D05D0E01FE11FE02BD8B4E12BE0CBA4
:104BE00001F0E1CB02F00001000C0B01DE51E0030B
:104BF000F3CF01F0F4CF00F0E103F3500026DF51D2
:104C0000E003F3500020026E00016FEF34F0016A00
:104C1000026A006A036A0B01E35102E1E25118E003
:104C2000100EE46FD890E037E13700360336E351D9
:104C3000035C02E1E251005C07E3E251005ED8A0B0
:104C40000306E351035ED88001360236E42FEAD72B
:104C500000017EEF34F0D8B204D00B0EEA6EF30EF2
:104C6000E96E006A016A026A036A0B01F36BF46B76
:104C7000F56BF66BF251F111F011EF112CE0200EF3
:104C8000F76FD890EB37EC37ED37EE37F337F43773
:104C9000F537F637F251F65D08E1F151F55D05E1C2
:104CA000F051F45D02E1EF51F35D0FE3EF51F35F7B
:104CB000F051D8A0F03DF45FF151D8A0F13DF55F7F
:104CC000F251D8A0F23DF65FD880003601360236A8
:104CD0000336F72FD6D7F3CBEFFFF4CBECFFF5CBB2
:104CE000ECFFF6CBECFF0001000CE9500B01E36F89
:104CF0003B0EEA6F9A0EE96FCA0EE86FE76B0A0E79
:104D0000E56FE251D8A4E307D8820B0EEA6EDE0EFF
:104D1000E96EE1CBEEFBE0CBEDFBDFCBECFBDECBDA
:104D2000EBFBEACBF2FBE9CBF1FBE8CBF0FBE7CB0B
:104D3000EFFB000190DF0150005213E10B01E2296B
:104D4000E55DD8A402D000010CD0E3510CE00F0BBC
:104D5000E55D01E01EE2E3BF1CD0E3BD04D0200E00
:104D600012D00B01E36BE251E55D0CE100C0E3FB07
:104D70002E0EEB6F000180DD0B01E3CB00F0200E67
:104D8000E317000E300E002600C0EBFB000174DDBF
:104D90000B01D892EACBEEFBE9CBEDFBE8CBECFBC9
:104DA000E7CBEBFBF26BF16BF06B0A0EEF6F0001E0
:104DB00052DF03C0EAFB02C0E9FB01C0E8FB00C010
:104DC000E7FB0B01E52FA0D70001000C0B01E66B00
:104DD000E46B0A0EE56FE36BE26BE16BE06BDE51B7
:104DE000DF1105E1006A016A026A036A3DD1E651FA
:104DF000E62B036ADE25E96EDF510320EA6EEFCF72
:104E0000E7FBE7512D080DE1010EE46FE651E62BBB
:104E1000036ADE25E96EDF510320EA6EEFCFE7FB80
:104E20000DD0E7512B080AE1E651E62B036ADE2597
:104E3000E96EDF510320EA6EEFCFE7FBE7512F0861
:104E4000D8B0FAD0E7513908D8A0F6D0E7513008E9
:104E500021E1036AE651DE25E96EDF510320EA6EA7
:104E6000EF5078080AE0036AE651DE25E96EDF516B
:104E70000320EA6EEF5058080DE1100EE56FE62BA7
:104E8000E651E62B036ADE25E96EDF510320EA6E68
:104E9000EFCFE7FBE5510A0844E1E7512F0840E274
:104EA000E75139083DE3D890E035E96FE135EA6F25
:104EB000E235EB6FE335EC6FE035006EE135016E06
:104EC000E235026EE335036E0036013602360336F4
:104ED0000036013602360336F80E0016E951002678
:104EE000EA510122EB510222EC51032203C0E3FB01
:104EF00002C0E2FB01C0E1FB00C0E0FB300EE75D59
:104F0000E027000EE123E223E323E651E62B036AC8
:104F1000DE25E96EDF510320EA6EEFCFE7FBBDD758
:104F20008BD0E5511008D8A487D0E751600806E27D
:104F3000E7517A0803E3E751DF0B01D0E751E76F50
:104F4000E7512F0803E2E751390807E2E75140082B
:104F5000D8B072D0E75146086FE3E7512F082DE231
:104F6000E75139082AE3E035E96FE135EA6FE235C8
:104F7000EB6FE335EC6FE937EA37EB37EC37E937BE
:104F8000EA37EB37EC37E937EA37EB37EC37F00E37
:104F9000E917300EE75DE925006E000EEA21016E8B
:104FA000000EEB21026E000EEC21E36F02C0E2FB6B
:104FB00001C0E1FB00C0E0FB2AD0E035E96FE1353C
:104FC000EA6FE235EB6FE335EC6FE937EA37EB3741
:104FD000EC37E937EA37EB37EC37E937EA37EB37C5
:104FE000EC37F00EE917410EE75D0A0FE925006E78
:104FF000000EEA21016E000EEB21026E000EEC2184
:10500000E36F02C0E2FB01C0E1FB00C0E0FBE65140
:10501000E62B036ADE25E96EDF510320EA6EEF50CE
:10502000E76F600806E2E7517A0803E3E751DF0B18
:1050300001D0E751E76F84D7E5510A080DE1E42D6F
:105040000BD0E01FE11FE21FE31FE02BD8B4E12BE0
:10505000D8B4E22BD8B4E32BE0CB00F0E1CB01F0E5
:10506000E2CB02F0E3CB03F00001000CE9500B01AE
:10507000E26F3B0EE96F9A0EE86FCA0EE76FE66BC0
:105080000A0EE46FD8820B0EEA6EDE0EE96EE1CBFB
:10509000EEFBE0CBEDFBDFCBECFBDECBEBFBE9CBC0
:1050A000F2FBE8CBF1FBE7CBF0FBE6CBEFFB00013B
:1050B000D2DD0150005213E10B01E451010AD8A4E2
:1050C00002D000010CD0E2510CE00F0BE45D01E0D6
:1050D00010E2E2BF0ED0E2BD04D0200E03D00B01DF
:1050E000E26B300E002600C0EBFB00013CEC24F02C
:1050F0000B01D892E9CBEEFBE8CBEDFBE7CBECFB69
:10510000E6CBEBFBF26BF16BF06B0A0EEF6F00017D
:10511000A2DD03C0E9FB02C0E8FB01C0E7FB00C061
:10512000E6FB0B01E42FAED70001000C8E0E006EE3
:10513000DFCB01F0DECB02F0036A015209E102C0CD
:1051400001F0026A080E005E015202E1006A08D016
:10515000D89001BE04D0023601360006F9D7019E70
:10516000000C0B01DE51D8B471D0006EE251D8B4FE
:105170006DD0002604E3810E002668E204D07F0E85
:10518000005E64E363E0DFCBE6FBE351E61BDF8F09
:10519000E38FE151E503F4CFE8FBE051E403F4CF02
:1051A00003F0F3CFE7FBE503F350E827F450E723E0
:1051B000000E0322E151E403F350E827F450E72303
:1051C000000E026A03220222DF51E503F350E727B3
:1051D000F4500322000E0222DF51E403F3500326B1
:1051E000F4500222000E016A0122E151E303F35060
:1051F000E727F4500322000E02220122E051E303CC
:10520000F3500326F4500222000E0122DF51E30383
:10521000F3500226F4500122002A01BE05D0E737E0
:105220000336023601360006000EE7AF0AD0032A25
:1052300002220122015005E1025003E1035001E185
:10524000002AE6BF018EE6AF019E04D0006A016A23
:10525000026A036A0001000C800ED8A202D00B0182
:10526000E71B0B01EC6BED6BE3CBEBFBE751EB1BAF
:10527000E251D8B4DFD0EA6F006EE651D8B4E3D083
:10528000EA5FD8B483D03EE3E7CBF0FBF08FE8CB06
:10529000EFFBE9CBEEFBED6BD890F033EF33EE3361
:1052A000ED33EA2FF8D7EBAF03D0EC81E0D0EC91EF
:1052B000EA91EC890B0EEA6EE50EE96EEBD0EC9903
:1052C000EBBF0AD0EAA113D0F033EF33EE33ED3366
:1052D000002AD8B4C7D00BD0F0BF0CD0D890ED378F
:1052E000EE37EF37F0370006D8B4BCD0F5D7EC8DE9
:1052F0006DD0EC9DE3CBEBFBE3AF02D0F08FABD0F6
:10530000F09FA9D0E6CBEAFBE6CB00F0E251EA5FE2
:10531000E3CBF0FBF08FE4CBEFFBE5CBEEFBED6BEB
:10532000D890F033EF33EE33ED33EA2FF8D7EBAF0D
:1053300003D0EC839CD0EC93EA91EC8B0B0EEA6EDD
:10534000E90EE96EA7D0EC9BEBBF0AD0EAA113D01F
:10535000F033EF33EE33ED33002AD8B483D00BD0E3
:10536000F0BF0CD0D890ED37EE37EF37F0370006AE
:10537000D8B478D0F5D7EC8F29D0EC9FE7CBEBFBF6
:10538000E7AF02D0F08F67D0F09F65D0E7CBF0FB9E
:10539000F08FE8CBEFFBE9CBEEFBEBAF04D0F09F57
:1053A000EC8565D0EC95ED6BEA910B0EEA6EE50E9F
:1053B000E96E70D0EBBF1CD0E3CBEBFBEAA106D0CB
:1053C000F033EF33EE33ED33002A4CE0EDAF0BD08A
:1053D000EE2B09E1EF2B07E1F02B05E1F033EF3382
:1053E000EE33002A3FE0ECBD84D7ECBFC6D71CD01B
:1053F000800EF01BF0AF04D03AD0E7CBEBFB0AD025
:10540000E3CBEBFBF05306E1EF5304E1EE5302E193
:10541000006A21D0F0BF08D0D890ED37EE37EF37D3
:10542000F037002EF7D71ED0EBAF02D0F08F13D09D
:10543000F09F11D0E6CB00F0E7CBF0FBE8CBEFFB21
:10544000E9CBEEFB08D0E2CB00F0E3CBF0FBE4CB02
:10545000EFFBE5CBEEFBF0CB01F0EFCB02F0EECBB8
:1054600003F034D0006A016A026A036A2FD0ED6B40
:10547000EE1FEF1FF01FED1FED2B05E1EE2B03E1FB
:10548000EF2B01E1F02BECB112D7ECB354D7ECB514
:1054900089D7B3D7EF50EE2705E3EF2B03E1F02BCD
:1054A000D8B4EA81ED52EF50EF2703E3F02BD8B4E4
:1054B000EA81ED52EF50EFBE01D0800AF027D8B05C
:1054C000EA81ECB9FCD6ECBB3ED774D70001E7EF1C
:1054D00037F08E0E006E0B01DE51005EDFCB02F066
:1054E000E0CB01F0028E005209E0D890025202E1B6
:1054F000015204E002320132002EF7D7DFAF05D0AF
:10550000011E021E012AD8B4022A0001000C080E56
:10551000016E00008B96949600000B01EA378B9881
:10552000D8B09488D8A09498948682A6FED7012EED
:1055300001D002D00001EDD700008B9694960000B8
:10554000948800000000948682A6FED7016A0000BD
:1055500082B801808B9694968B9894980001000CE9
:10556000D8900B01DE35A00FE56F9488000094867B
:10557000000082A6FED78B98949800008B96949694
:10558000E5CBEAFB0001C3DFE0CBE8FB0B01E96BF5
:10559000E0CBEAFB0001BBDFDFCBEAFBB8DF0B01AE
:1055A000E66BE151E65D10E2036AE651E225E96E41
:1055B000E3510320EA6EEFCFE7FBE7CBEAFB000104
:1055C000A6DF0B01E62BEDD794980000948682A607
:1055D000FED7000000D000009488000094880000EE
:1055E000948600008B98949800008B969496E5CB57
:1055F000EAFB00018CDF01500B01E49101B0E48172
:10560000E4A115D0948800009486000082A6FED7FD
:105610008B98949800008B969496E5CBEAFB00015A
:1056200076DF01500B01E49101B0E481E9D700017C
:1056300025EF2BF00B01DE6BE06BDF6B800EE16F73
:10564000E36B5C0EE26F00018BD7EEEF38F0F86A87
:10565000D09E078EEA6AE96A196AB8960C0EAF6E98
:10566000A20EAC6E900EAB6E5A6A5B6A0201E06BE2
:10567000DF6BE16B010EE26FE36BE56BE46B430EF6
:105680000301CC6FDC6BDE6BDD6B0801CD6BEE6B69
:10569000EF6B0B01D56BD76BD66BC150C00B0F09ED
:1056A000C16E070EB46E4F0E0301CD6F4B0ECE6F61
:1056B000210ECF6FD06B0801496B4A6B430E4F6FC1
:1056C0006F0E506F6E0E516F660E526F690E536FF4
:1056D000670E546F750E556F720E566F610E576FD1
:1056E000630E586F690E596F6F0E5A6F6E0E5B6FB7
:1056F0005C6B2D0E5D6F460E5E6F650E5F6F630E09
:10570000606F680E616F610E626F200E636F790EBD
:10571000646F200E656F480E666F6F0E676F720EB6
:10572000686F610E696F6A6B2D0E6B6F540E6C6F34
:10573000650E6D6F6D0E6E6F700E6F6F650E706F14
:10574000720E716F610E726F740E736F750E746FDF
:10575000720E756F610E766F200E776F786F796FAE
:105760007A6B2D0E7B6F7C6F430E7D6F650E7E6FA7
:105770006C0E7F6F730E806F690E816F750E826F76
:10578000730E836F846B2D0E856F866F460E876F49
:10579000610E886F720E896F650E8A6F6E0E8B6F49
:1057A000680E8C6F650E8D6F690E8E6F740E8F6F25
:1057B000906B2D0E916F500E926F720E936F650E5F
:1057C000946F730E956F690E966F6F0E976F6E0ED6
:1057D000986F996B2D0E9A6F9B6F4D0E9C6F690E93
:1057E0009D6F6C0E9E6F690E9F6F620EA06F610EB3
:1057F000A16F720EA26FA36B2D0EA46FA56F500E3A
:10580000A66F610EA76F730EA86F630EA96F610E6E
:10581000AA6F6C0EAB6FAC6B2D0EAD6F560EAE6FEC
:10582000650EAF6F6C0EB06F6F0EB16F630EB26F1F
:10583000690EB36F640EB46F610EB56F640EB66F10
:10584000B76B2D0EB86FB96F4E0EBA6F750EBB6F7A
:10585000640EBC6F6F0EBD6F730EBE6FBF6B2D0EEF
:10586000C06FC16F6B0EC26F6D0EC36F2F0EC46F12
:10587000680EC56FC66B2D0EC76FC86F6D0EC96FF2
:105880002F0ECA6F730ECB6FCC6B4C0ECE6FCF6BDF
:10589000300ED06F310ED16FD26B300ED36F310E10
:1058A000D46FD56B300ED66F310ED76FD86BD96FE2
:1058B000300EDA6FDB6B310EDC6F300EDD6FDE6BBE
:1058C000410EDF6F4D0EE06FE16B430EE26FE36B55
:1058D0006D0EE56F420EE66F610EE76FE86B4E0EE0
:1058E000E96F750EEA6F640EEB6F200EEC6FED6BD7
:1058F0001F0EFA6FFB6FFC6BFD6BFE6B800EFF6F74
:105900000901006B016B026B036B046B056B066B8B
:10591000076B0C0E086F1E0E096F380E0A6FF00E23
:105920000B6F0C6FE00E0D6F0E6B0F6B106B116B2E
:10593000126B136BC00E146FE00E156F600E166FB6
:10594000200E176F186B196B1A6B1B6B1C6B060EF6
:105950001D6F0F0E1E6F2E0E1F6F1C0E206F216FFE
:105960003C0E226F236F380E246FE00E256F780EE9
:10597000266FDC0E276FFC0E286F296FFF0E2A6F33
:10598000DF0E2B6FDD0E2C6FFC0E2D6FBC0E2E6FFD
:10599000FA0E2F6FF20E306FEE0E316F0E0E326F69
:1059A000070E336F346F356B366B376B386B396B73
:1059B0003A6B080E3B6F180E3C6F300E3D6F380E81
:1059C0003E6F3C0E3F6F1C0E406F416F780E426F72
:1059D000180E436F9F0E446FBF0E456FFF0E466F4C
:1059E000790E476FFF0E486FEF0E496F4A6F4B6F8E
:1059F000F70E4C6FFB0E4D6FBF0E4E6F3F0E4F6F8D
:105A00001F0E506F020E516F070E526F536F0F0E25
:105A1000546F070E556F010E566F030E576F060E2B
:105A2000586F596B5A6B5B6B5C6B5D6B5E6B5F6B3E
:105A3000606B300E616F7C0E626F0F0E636F646F70
:105A4000656F070E666F676B686B696B030E6A6F35
:105A5000070E6B6F0F0E6C6F0E0E6D6F060E6E6F76
:105A60001E0E6F6F1C0E706F716B726B736B746BAD
:105A7000756B766B1F0E776F786F796BC00E7A6FD0
:105A8000E00E7B6F200E7C6F300E7D6F100E7E6FF0
:105A90007F6F300E806F180E816F826F780E836F6C
:105AA000700E846F500E856FD80E866F080E876F4C
:105AB000886F896F180E8A6F8B6F100E8C6F300E87
:105AC0008D6F600E8E6FE00E8F6F800E906F916BFA
:105AD000926B936B946B956B966B976B986B996BC2
