:04050000EBEF02F02B
:08050800046ED8CF05F0E0CF2E
:1005100006F00001E9CF0CF0EACF07F0E1CF08F0D8
:10052000E2CF09F0D9CF0AF0DACF0BF0F3CF12F017
:10053000F4CF13F0FACF14F0F5CF15F0F6CF16F094
:10054000F7CF17F000C00EF001C00FF002C010F09E
:1005500003C011F09DAAB0EF02F09EBAE3EF02F0E3
:100560000EC000F00FC001F010C002F011C003F087
:100570000CC0E9FF07C0EAFF078E08C0E1FF09C011
:10058000E2FF0AC0D9FF0BC0DAFF12C0F3FF13C0AD
:10059000F4FF14C0FAFF15C0F5FF16C0F6FF17C030
:1005A000F7FF045006C0E0FF05C0D8FF10009EAA68
:1005B000FED7ABCF19F0AECF01F019A202D0AB98A5
:1005C000AB88E4EF02F0F3D701C01BF0010E1A6E06
:1005D0009E9AB0EF02F0F86AD09E078EEA6AE96A46
:1005E000196AB8960C0EAF6EA20EAC6E900EAB6E82
:1005F0001A6AC150C00B0F09C16E070EB46E9D8AF6
:10060000C00EF2121A2C03D094948B741A6AFAD783
:020610000300E5
:020000040030CA
:0E00000000C21E1E0086B1000FC00FE00F40B0
:00000001FF
;PIC18F4680
;CRC=7656  CREATED="05-mar-12 11:41"
