:100000008AEF16F0F76A140FF66E000EF722090059
:10001000F5501200000000000000005F0000000327
:10002000000300143E143E14242A7F2A124333088E
:10003000666136495522500005030000001C22412C
:10004000000041221C0014083E081408083E08085D
:100050000050300000080808080800606000002018
:10006000100804023E5149453E0004027F004261EF
:1000700051494622414949361814127F10274545F7
:1000800045393E4949493201017109073649494913
:1000900036264949493E00363600000056360000F3
:1000A00008142241001414141414004122140802EC
:1000B000015109063E4159555E7E0909097E7F4975
:1000C0004949363E414141227F4141413E7F4949B4
:1000D00049417F090909013E4141493A7F08080821
:1000E0007F00417F4100304040403F7F0814224163
:1000F0007F404040407F020C027F7F0204087F3E29
:100100004141413E7F090909061E2121215E7F09E7
:1001100009097600F76A240FF66E010EF72209002E
:10012000F5501200264949493201017F01013F4043
:1001300040403F1F2040201F7F2010207F41221C75
:10014000224107087008076151494543007F41007B
:100150000002040810200000417F00040201020494
:100160004040404040000102040020545454787F35
:10017000444444383844444444384444447F385424
:1001800054541804047E0505085454543C7F080454
:10019000047800447D40002040443D007F10284406
:1001A0000000417F40007C047804787C08040478D7
:1001B00038444444387C14141408081414147C0083
:1001C0007C080404485454542004043F44443C40F4
:1001D00040207C1C2040201C3C4030403C442810E7
:1001E00028440C5050503C4464544C440008364160
:1001F0004100007F00004141360800020102040274
:10020000F76A100FF66E020EF7220900F550120081
:100210004300F76A220FF66E020EF7220900F5502E
:1002200012004600F76A340FF66E020EF72209003C
:10023000F550120050610000F76A480FF66E020E8A
:10024000F7220900F55012006D4261000000F76AC4
:100250005E0FF66E020EF7220900F55012006D2FA8
:100260007300F76A720FF66E020EF7220900F5505E
:1002700012006B6D2F680000F76A880FF66E020E91
:10028000F7220900F55012004E756400F76A9C0FC2
:10029000F66E020EF7220900F5501200414D0000E3
:1002A000F76AB00FF66E020EF7220900F550120041
:1002B000504D000032000401CA5303E093908A803D
:1002C00002D093928A8293968A96956ACBC48CFFC9
:1002D000050E006E002EFED793988A881A0E006EC7
:1002E000002EFED7000093988A9893928A9293905A
:1002F0008A900001000C0401C66BB20EC56F020E9D
:10030000C86FB20EC76FC351FF0DF3CFC4F4CA6BF1
:10031000C96BCA5101081AE3C6C403F0C551C52B05
:10032000D8B4C62BE96E03C0EAFFC4C4EFFFC8C44B
:1003300003F0C751C72BD8B4C82BE96E03C0EAFF3E
:10034000C4C4EFFFC92BD8B4CA2BE3D70001000CFB
:100350000401C66BB20EC56F020EC86FB20EC76F36
:10036000C36BC35107084EE393948A94CA6B400E43
:10037000CB6F0001A0DF010E0401CA6F400ECB6FEE
:10038000000199DF0401C351B809C96FCA6BCB6F73
:10039000000191DF0401C351B809C96F010ECA6F92
:1003A000C9C4CBF4000187DF93948A840401C46B31
:1003B000C4513F0825E3C6C403F0C551C52BD8B4CA
:1003C000C62BE96E03C0EAFFEFCFC9F4CA6BC9C4FC
:1003D000CBF4000170DF0401C8C403F0C751C72B80
:1003E000D8B4C82BE96E03C0EAFFEFCFC9F4010E01
:1003F000CA6FC9C4CBF400015EDF0401C42BD8D797
:10040000C32BAFD70001000C939A8A8A93988A98DD
:1004100093928A9293908A9093948A940401CA6BDF
:10042000C00ECB6F000147DF010E0401CA6FC00E82
:10043000CB6F000140DF0401CA6B400ECB6F00019F
:100440003ADF010E0401CA6F400ECB6F000133DFAB
:100450000401CA6BB80ECB6F00012DDF010E040141
:10046000CA6FB80ECB6F000126DF0401B82D0ED085
:10047000CA6B3F0ECB6F00011EDF010E0401CA6F75
:100480003F0ECB6F000117DF0DD00401CA6B3E0E8B
:10049000CB6F000110DF010E0401CA6F3E0ECB6F5F
:1004A000000109DF0401C36B000125DF51DF000CEF
:1004B000040EEA6EB80EE96EEF500DE0020E016E0A
:1004C000006A002EFED7012EFBD7970E006E002E7D
:1004D000FED7EF2EF3D7C6EF17F00401E76BE2313A
:1004E000E66FE633E6331F0EE617E637E737E63703
:1004F000E737E637E737E637E737E637E737E63710
:10050000E737C00EE617E151E627000EE723E15179
:100510003F080DE2B20EE625E86F020EE721E96F13
:10052000400EE85DE46F000EE959E56F06D0B20EAB
:10053000E625E46F000EE721E56FE35315E0E5C41F
:1005400003F0E4C4E9FFE5C4EAFFE251070BE86FFA
:10055000010E006EE851016E04E0D8900036012EC5
:10056000FCD70050EF1215D0E5C403F0E4C4E9FF56
:10057000E5C4EAFFE251070BE86F010E006EE85197
:10058000016E04E0D8900036012EFCD70050FF0A1F
:10059000EF160001000CC6C403F00401C5C4E9FF56
:1005A000C6C4EAFFEF52D8B4CED0C6C403F0C5C467
:1005B000E9FFC6C4EAFFEF50520826E3C6C403F0C1
:1005C000C5C4E9FFC6C4EAFF200EEF5C050DF35079
:1005D000036AD26F040EEA6ECD0EE96ED66BD2C4FA
:1005E000D5F4F2CFD3F4F29E050E016EF76AD25124
:1005F000000108DD0A000900F5CFEEFF012EFBD750
:100600000401D3BFF28E34D0C6C403F0C5C4E9FFE1
:10061000C6C4EAFFEF507E0826E3C6C403F0C5C493
:10062000E9FFC6C4EAFF530EEF5C050DF350036A01
:10063000D26F040EEA6ECD0EE96ED66BD2C4D5F43D
:10064000F2CFD3F4F29E050E016EF76AD25100018B
:1006500061DD0A000900F5CFEEFF012EFBD7040192
:10066000D3BFF28E05D0CD6BCE6BCF6BD06BD16B81
:10067000C6C403F0C551E96E03C0EAFFEF500A0A91
:10068000000103E0070A09E00BD00401C751070D80
:10069000F350010FC42750D000010401C36B4CD0AC
:1006A0000401C751050DF350C3257F0806E2C36B53
:1006B000C751070DF350010FC427C96BC951040876
:1006C0003BE3CA6BCA51060833E3036AC951CD0F35
:1006D000E96E040E0320EA6EEFCFD2F4D2C400F02C
:1006E000CA51016E04E0D8900032012EFCD700A060
:1006F0001DD0CB6BC751CB5D19E2CC6BC751CC5D24
:1007000013E2CC51C325D26FCA51C703F350C4259D
:10071000CB25D36FD2C4E1F4E26FC8C4E3F4000187
:10072000DCDE0401CC2BEAD7CB2BE4D7CA2BCAD70B
:10073000C92BC751C327C2D7C52BD8B4C62BC32BCF
:10074000000129D704010001000C0401E551E7195B
:10075000800BE96FE5AF05D0E41FE51FE42BD8B4AB
:10076000E52BE7AF05D0E61FE71FE62BD8B4E72B54
:10077000E451E603F3CF01F0F4CF00F0E703F350C8
:100780000026E551E603F3500020026EE9AF05D0E4
:10079000011E021E012AD8B4022A0001000C010E1B
:1007A0000401CE6FCF6FD96BC351C55DE06FE051CF
:1007B000E0AF03D0000ED880E055036AE8BE030620
:1007C000CC6F03C0CDF4C451C65DE06FE051E0AF23
:1007D00003D0000ED880E055036AE8BE0306CA6F56
:1007E00003C0CBF4D890C731C96FCDC4E5F4CCC4F5
:1007F000E4F4E76BC3C4E6F40001A7DF02C0E1F450
:1008000001C0E0F4CBC4E5F4CAC4E4F40401E76B2E
:10081000C4C4E6F4000199DF02C003F001500401F2
:10082000E025016EE15103220150FF0A010FD56F4F
:10083000000E0354D66FCDC4E5F4CCC4E4F4E76BEA
:10084000C5C4E6F4000181DF02C0E1F401C0E0F4B8
:10085000CBC4E5F4CAC4E4F40401E76BC6C4E6F40F
:10086000000173DF02C003F001500401E025016EB6
:10087000E15103220150FF0A010FD76F000E03540C
:10088000D86FC351C55D0EE2D6C4DBF4D5C4DAF42B
:10089000D8C4D6F4D7C4D5F4DBC4D8F4DAC4D7F4BA
:1008A000FF0ECE6FC451C65D0EE2D6C4DDF4D5C4D2
:1008B000DCF4D8C4D6F4D7C4D5F4DDC4D8F4DCC491
:1008C000D7F4FF0ECF6FCBAF03D0CDAF0CD002D09B
:1008D000CDBFA2D0CB51CD5DD8A09ED004E1CA51EE
:1008E000CC5DD8A099D0E56B020EE46FCBC4E7F4E1
:1008F000CAC4E6F4000129DF0401CC51015CD16FC8
:10090000CD510258D26FCC51D15DD36FCD51D25958
:10091000D46FD96BCDBF7FD0CD5304E1D951CC5D1D
:10092000D8A079D0000ED880C955D06FC751010B1F
:10093000C925D0BF02D0D05D4DE2CDC4E5F4CCC412
:10094000E4F4E76BC3C4E6F40001FFDE02C0E1F4A7
:1009500001C0E0F40401D051C425036A006EE8BE72
:100960000306E26F03C0E3F4CBC4E5F4CAC4E4F4C5
:1009700003C0E7F4E66F0001E8DE02C003F00150B7
:100980000401E025016EE151032201C0DEF4DE51D5
:10099000D525E06F000ED621E16FE8BE19D000D05A
:1009A000DE51D725E06F000ED821E16FE8BE05D0FB
:1009B000E1530EE1E05100080BE3D051C425E06F94
:1009C000C3C4E1F4E26FC8C4E3F4000186DD0401AE
:1009D000D02BACD7D2BF01D012D0E56B020EE46FA2
:1009E000CBC4E7F4CAC4E6F40001AFDE0150040151
:1009F000D1270250D223CE51C325C36F0AD0D35181
:100A0000D127D451D223CE51C325C36FCF51C42592
:100A1000C46FD92B7FD798D0E56B020EE46FCDC49D
:100A2000E7F4CCC4E6F4000190DE0401CA51015C95
:100A3000D16FCB510258D26FCA51D15DD36FCB5118
:100A4000D259D46FD96BCBBF7FD0CB5304E1D951EE
:100A5000CA5DD8A079D0D2BF01D012D0E56B020E0A
:100A6000E46FCDC4E7F4CCC4E6F400016EDE0150BF
:100A70000401D1270250D223CF51C425C46F0AD01C
:100A8000D351D127D451D223CE51C325C36FCF51D7
:100A9000C425C46F000ED880C955D06FC751010B53
:100AA000C925D0BF02D0D05D4DE2CDC4E5F4CCC4A1
:100AB000E4F4E76BC3C4E6F4000147DE02C0E1F4EE
:100AC00001C0E0F40401D051C425036A006EE8BE01
:100AD0000306E26F03C0E3F4CBC4E5F4CAC4E4F454
:100AE00003C0E7F4E66F000130DE02C003F00150FE
:100AF0000401E025016EE151032201C0DFF4DF5162
:100B0000D525E06F000ED621E16FE8BE19D000D0E8
:100B1000DF51D725E06F000ED821E16FE8BE05D088
:100B2000E1530EE1E05100080BE3D051C325E06F23
:100B3000E16FC4C4E2F4C8C4E3F40001CEDC0401F4
:100B4000D02BACD7D92B7FD70001000C010E0401AC
:100B5000D76FD86FDD6BCE51D05DDE6FDE51DEAF6B
:100B600003D0000ED880DE55036AD56F03C0D6F4DB
:100B7000CF51D15DDE6FDE51DEAF03D0000ED880E5
:100B8000DE55036AD36F03C0D4F4CE51D05D02E2C8
:100B9000FF0ED76FCF51D15D02E2FF0ED86FD45157
:100BA000D65D3BE303E1D351D55D37E3D890D3372E
:100BB000D437D551D35D006ED651D45900C0D9F485
:100BC000DA6FD551D95DDB6FD651DA59DC6FD65368
:100BD00003E1DD51D55D20E3CEC4E1F4CFC4E2F4FE
:100BE000D2C4E3F4000179DC0401DABF01D008D0FB
:100BF000D351D927D451DA23D751CE25CE6F0AD07D
:100C0000DB51D927DC51DA23D751CE25CE6FD8510D
:100C1000CF25CF6FDD2BDBD736D0D890D537D63761
:100C2000D351D55D006ED451D65900C0D9F4DA6FD6
:100C3000D351D95DDB6FD451DA59DC6FD45303E162
:100C4000DD51D35D20E3CEC4E1F4CFC4E2F4D2C4DD
:100C5000E3F4000142DC0401DABF01D008D0D55131
:100C6000D927D651DA23D851CF25CF6F0AD0DB51FF
:100C7000D927DC51DA23D751CE25CE6FD851CF25D5
:100C8000CF6FDD2BDBD70001000C070E0401BB2565
:100C9000BD6F7C0ECE6FBBC4CFF4D06FBDC4D1F49A
:100CA000BCC4D2F4000152DF010E0401BB25BD6FAC
:100CB000060EBB25BE6F7D0ECE6FBDC4CFF4D06FC8
:100CC000BEC4D1F4BCC4D2F4000140DF020E040162
:100CD000BB25BD6F050EBB25BE6F7E0ECE6FBDC49E
:100CE000CFF4D06FBEC4D1F4BCC4D2F400012EDF67
:100CF000030E0401BB25BD6F040EBB25BE6F7F0E26
:100D0000CE6FBDC4CFF4D06FBEC4D1F4BCC4D2F496
:100D100000011CDF000C0401C36B00017BEC01F03F
:100D20000401C36BC46BC66B170EC56F010EC76F92
:100D3000C86F000130DC0401C36B090EC46F7F0E65
:100D4000C56F090EC66F020EC76F010EC86F000196
:100D500026DD0401C36B0E0EC46FC66B250EC56F76
:100D6000010EC76FC86F000116DC0E0E0401BB6FC9
:100D7000010EBC6F000189DF0401C36B170EC46F45
:100D8000C66B330EC56F010EC76FC86F000103DC61
:100D9000640E0401C36F170EC46FC66BA70EC56F38
:100DA000010EC76FC86F0001CBEC02F0170E0401F3
:100DB000BB6F010EBC6F000168DF0401C36B200E26
:100DC000C46FC66B590EC56F010EC76FC86F0001A7
:100DD000CBEC02F0640E0401C36F200EC46FC66B2F
:100DE000A90EC56F010EC76FC86F0001CBEC02F0F2
:100DF000200E0401BB6F010EBC6F000146DF040131
:100E0000C36B290EC46FC66B750EC56F010EC76F1D
:100E1000C86F0001CBEC02F0640E0401C36F290E11
:100E2000C46FC66BAD0EC56F010EC76FC86F0001F2
:100E3000CBEC02F0290E0401BB6F010EBC6F000168
:100E400024DFA8EC01F0000C085230E10DC00EF0D8
:100E50000FC010F013C014F016C015F011C012F03E
:100E600092800D6A80B00D2A92860F6A80B60F2A92
:100E70009282136A80B2132A9284166A80B4162A68
:100E80009288116A80B8112A0E500D5C0CE1105046
:100E90000F5C09E11250115C06E11350145C03E190
:100EA0001650155C02E0010E086ECED7000C04014E
:100EB000BA51FB0FD8B03CD3050F0001ABEF0AF0DD
:100EC000010E0401B95DFC0FD8B0CDD0040F0001B4
:100ED0009AEF0AF020DF0401C36B110EC46F7F0E7E
:100EE000C56F110EC66F090EC76F010EC86F0001E6
:100EF00056DC0401C36B0E0EC46FC66B250EC56FA6
:100F0000010EC76FC86B0001CBEC02F00E0E04019E
:100F1000BB6FBC6B0001B9DEA8EC01F00401A3D0EB
:100F20000001F9DE0401C36B1A0EC46F7F0EC56F9A
:100F30001A0EC66F090EC76F010EC86F00012FDCB5
:100F40000401C36B170EC46FC66B330EC56F010E61
:100F5000C76FC86B0001CBEC02F0640E0401C36FD5
:100F6000170EC46FC66BA70EC56F010EC76FC86B97
:100F70000001CBEC02F0170E0401BB6FBC6B00014B
:100F800084DEA8EC01F004016ED00001C4DE04018F
:100F9000C36B230EC46F7F0EC56F230EC66F090E81
:100FA000C76F010EC86F0001CFEC03F00401C36BE3
:100FB000200EC46FC66B590EC56F010EC76FC86B8C
:100FC0000001CBEC02F0640E0401C36F200EC46F6D
:100FD000C66BA90EC56F010EC76FC86B0001CBECC5
:100FE00002F0200E0401BB6FBC6B00014EDEA8ECCA
:100FF00001F0040138D000018EDE0401C36B2C0E19
:10100000C46F7F0EC56F2C0EC66F090EC76F010E21
:10101000C86F0001CFEC03F00401C36B290EC46F4D
:10102000C66B750EC56F010EC76FC86B0001CBECA8
:1010300002F0640E0401C36F290EC46FC66BAD0EBF
:10104000C56F010EC76FC86B0001CBEC02F0290E13
:101050000401BB6FBC6B000118DEA8EC01F00401B9
:1010600002D00001040164D20001040161D2000138
:101070000401B951010A000103E0030A4DE098D0D0
:101080000401C36B00017BEC01F00401C36BC46B72
:10109000C66B330EC56F010EC76FC86F0001CBEC76
:1010A00002F00401C36B090EC46F7F0EC56F090EF9
:1010B000C66F020EC76F010EC86F0001CFEC03F0C0
:1010C0000401C36B110EC46F7F0EC56F110EC66F86
:1010D000090EC76F010EC86F0001CFEC03F00401C9
:1010E000C36B0E0EC46FC66B430EC56F010EC76F88
:1010F000C86B0001CBEC02F00401C36B170EC46F88
:10110000C66B4D0EC56F010EC76FC86F0001CBECEB
:1011100002F0A8EC01F04CD00401C36B00017BECA1
:1011200001F00401C36BC46BC66B330EC56F010EB7
:10113000C76FC86F0001CBEC02F00401C36B090E4E
:10114000C46F7F0EC56F090EC66F020EC76F010E0A
:10115000C86F0001CFEC03F00401C36B0E0EC46F27
:10116000C66B430EC56F010EC76FC86F0001CBEC95
:1011700002F00401C36B1A0EC46F7F0EC56F1A0E06
:10118000C66F090EC76F010EC86F0001CFEC03F0E8
:101190000401C36B170EC46FC66B4D0EC56F010EF5
:1011A000C76FC86B0001CBEC02F0A8EC01F000D0D7
:1011B0000401BED100010401B951010A000103E09C
:1011C000030A4DE098D00401C36B00017BEC01F0F1
:1011D0000401C36BC46BC66B590EC56F010EC76F9C
:1011E000C86F0001CBEC02F00401C36B090EC46FA1
:1011F0007F0EC56F090EC66F020EC76F010EC86F56
:101200000001CFEC03F00401C36B110EC46F7F0E1D
:10121000C56F110EC66F090EC76F010EC86F0001B2
:10122000CFEC03F00401C36B0E0EC46FC66B620EED
:10123000C56F010EC76FC86B0001CBEC02F0040153
:10124000C36B170EC46FC66B6B0EC56F010EC76FF5
:10125000C86F0001CBEC02F0A8EC01F04CD0040107
:10126000C36B00017BEC01F00401C36BC46BC66B64
:10127000590EC56F010EC76FC86F0001CBEC02F0AD
:101280000401C36B090EC46F7F0EC56F090EC66FD4
:10129000020EC76F010EC86F0001CFEC03F004010E
:1012A000C36B0E0EC46FC66B620EC56F010EC76FA7
:1012B000C86F0001CBEC02F00401C36B1A0EC46FBF
:1012C0007F0EC56F1A0EC66F090EC76F010EC86F6D
:1012D0000001CFEC03F00401C36B170EC46FC66BA3
:1012E0006B0EC56F010EC76FC86B0001CBEC02F02F
:1012F000A8EC01F000D004011BD100010401B95198
:10130000010A000106E0030A5DE0010AD8B4B3D087
:101310000BD10401C36B00017BEC01F00401C36B32
:10132000C46BC66B750EC56F010EC76FC86F000129
:10133000CBEC02F00401C36B090EC46F7F0EC56FC6
:10134000090EC66F020EC76F010EC86F0001CFEC09
:1013500003F00401C36B110EC46F7F0EC56F110E35
:10136000C66F090EC76F010EC86F0001CFEC03F006
:101370000401C36B0E0EC46FC66B800EC56F010EE9
:10138000C76FC86B0001CBEC02F00401C36B170EF2
:10139000C46FC66B860EC56F010EC76FC86F0001A4
:1013A000CBEC02F00401C36B200EC46FC66B8D0E34
:1013B000C56F010EC76FC86F0001CBEC02F0A8EC3F
:1013C00001F0B2D00401C36B00017BEC01F0040119
:1013D000C36BC46BC66B750EC56F010EC76FC86F4C
:1013E0000001CBEC02F00401C36B090EC46F7F0E49
:1013F000C56F090EC66F020EC76F010EC86F0001E0
:10140000CFEC03F00401C36B0E0EC46FC66B800EED
:10141000C56F010EC76FC86F0001CBEC02F004016D
:10142000C36B1A0EC46F7F0EC56F1A0EC66F090EFE
:10143000C76F010EC86F0001CFEC03F00401C36B4E
:10144000170EC46FC66B860EC56F010EC76FC86BD3
:101450000001CBEC02F00401C36B200EC46FC66B1D
:101460008D0EC56F010EC76FC86F0001CBEC02F087
:10147000A8EC01F059D00401C36B00017BEC01F032
:101480000401C36BC46BC66B750EC56F010EC76FCD
:10149000C86F0001CBEC02F00401C36B090EC46FEE
:1014A0007F0EC56F090EC66F020EC76F010EC86FA3
:1014B0000001CFEC03F00401C36B0E0EC46FC66BCA
:1014C000800EC56F010EC76FC86F0001CBEC02F034
:1014D0000401C36B170EC46FC66B860EC56F010E79
:1014E000C76FC86F0001CBEC02F00401C36B230E81
:1014F000C46F7F0EC56F230EC66F090EC76F010E36
:10150000C86F0001CFEC03F00401C36B200EC46F61
:10151000C66B8D0EC56F010EC76FC86B0001CBEC9B
:1015200002F0A8EC01F000D0040102D00001040197
:101530000001000CE824F76AF7364F0FF66E150E1F
:10154000F7220A00F550FA6E0800F550F96ED40E35
:10155000220F8C0FF80FE824F76AF736710FF66E3A
:10156000150EF7220A00F550FA6E0800F550F96ED4
:10157000C00E6A107010B611FC120401C7532FE0A0
:10158000C551C35D05E2C3C4CAF4C5C4CBF404D0DD
:10159000C5C4CAF4C3C4CBF4C651C45D05E2C4C417
:1015A000CCF4C6C4CDF404D0C6C4CCF4C4C4CDF4C9
:1015B000CA51CB5D13E3CCC4C9F4C951CD5D0CE372
:1015C000CAC4E1F4C9C4E2F4C8C4E3F400016DEC98
:1015D00002F00401C92BF1D7CA2BEAD732D0C3C419
:1015E000CEF4C4C4CFF4C5C4D0F4C4C4D1F4C8C4C8
:1015F000D2F40001A6EC05F0C3C4CEF4C6C4CFF407
:10160000C5C4D0F4C6C4D1F4C8C4D2F4A6EC05F065
:10161000C3C4CEF4C4C4CFF4C3C4D0F4C6C4D1F49C
:10162000C8C4D2F4A6EC05F0C5C4CEF4C4C4CFF44B
:10163000C5C4D0F4C6C4D1F4C8C4D2F4A6EC05F035
:1016400004010001000C006A016A0401CA51D8902B
:10165000CBB1002600320132CBB30026003201327A
:10166000CBB5002600320132CBB700260032013262
:10167000CBB9002600320132CBBB0026003201324A
:10168000CBBD002600320132CBBF00260032013232
:101690000001B9EF0BF00401C86BC66B0A0EC76FEF
:1016A000C56BC351C41103E1000E016EC3D0C85114
:1016B000C82B036AC325E96EC4510320EA6EEFCF3D
:1016C000C9F4C9512D080DE1010EC66FC851C82BD0
:1016D000036AC325E96EC4510320EA6EEFCFC9F453
:1016E0000DD0C9512B080AE1C851C82B036AC32584
:1016F000E96EC4510320EA6EEFCFC9F4C9512F0837
:10170000D8B090D0C9513908D8A08CD0C951300870
:1017100021E1036AC851C325E96EC4510320EA6E72
:10172000EF5078080AE0036AC851C325E96EC45136
:101730000320EA6EEF5058080DE1100EC76FC82B5A
:10174000C851C82B036AC325E96EC4510320EA6E51
:10175000EFCFC9F4C7510A081DE1C9512F0819E29A
:10176000C951390816E30A0ECA6FC5C4CBF400018B
:101770006AD7300E0401C95D0124C56FC851C82B5A
:10178000036AC325E96EC4510320EA6EEFCFC9F4A2
:10179000E4D748D0C751100845E1C951600806E2B6
:1017A000C9517A0803E3C951DF0B01D0C951C96F90
:1017B000C9512F0803E2C951390806E2C95140084E
:1017C00031E2C95146082EE3C9512F080CE2C95134
:1017D000390809E3C539CA6FF00ECA17300EC95D62
:1017E000CA25C56F09D0C539CA6FF00ECA17410E98
:1017F000C95D0A0FCA25C56FC851C82B036AC32526
:10180000E96EC4510320EA6EEFCFC9F4C9516008F4
:1018100006E2C9517A0803E3C951DF0B01D0C9516F
:10182000C96FC6D7C62D04D0C7510A0801E1C56DDE
:10183000C5C401F00001000C0401DA6BDB6B010E82
:10184000DC6FDA6AD96A040EDF6FD20EDE6F040E27
:10185000EA6ED60EE96EDFC4E2FFDEC4E1FFDCC44F
:10186000DDF4D890E550EE02F350DA23F450DB2398
:10187000DD2FF7D7DAC4DEFFDBC4DAF4DB6BD8B0D8
:10188000DB2BDE2BD8B4DF2BDC2BDC510508DFE1B2
:101890000001D2EF0CF00401D951DD19800BE36F88
:1018A000D9AF0BD0D61FD71FD81FD91FD62BD8B46E
:1018B000D72BD8B4D82BD8B4D92BDDAF0BD0DA1FA7
:1018C000DB1FDC1FDD1FDA2BD8B4DB2BD8B4DC2BFD
:1018D000D8B4DD2B006A016A026A036ADE6BDF6B33
:1018E000E06BE16BDD51DC11DB11DA112CE0200E35
:1018F000E26FD890D637D737D837D937DE37DF37CA
:10190000E037E137DD51E15D08E1DC51E05D05E103
:10191000DB51DF5D02E1DA51DE5D0FE3DA51DE5FBC
:10192000DB51D8A0DB3DDF5FDC51D8A0DC3DE05FC0
:10193000DD51D8A0DD3DE15FD880003601360236AA
:101940000336E22FD6D7E3AF0BD0001E011E021ED6
:10195000031E002AD8B4012AD8B4022AD8B4032A14
:10196000040EEA6EDE0EE96E0001000C0401CD6B80
:10197000CC6BCB6B010ECA6FCF6BD06BC6BF01D0E7
:101980001AD0010ECF6FC6C4D5F4C5C4D4F4C4C4F4
:10199000D3F4C3C4D2F4FF0ED96FD86FD76FD66F0C
:1019A00000014AD703C0C6F402C0C5F401C0C4F4A4
:1019B00000C0C3F40401CA5306E1CB5304E1CC5385
:1019C00002E1CD5377E0C6C4D9F4C5C4D8F4C4C489
:1019D000D7F4C3C4D6F4DD6BDC6BDB6BC7C4DAF4BD
:1019E000000159DF03C0CDF402C0CCF401C0CBF438
:1019F00000C0CAF4036A0401D051C825016EC95160
:101A0000032201C0D2F403C0D3F4EACFD5F4E9CF66
:101A1000D4F4C6C4D9F4C5C4D8F4C4C4D7F4C3C478
:101A2000D6F4DD6BDC6BDB6BC7C4DAF4000133DFAB
:101A3000EFCF00F0ECCF01F0ECCF02F0ECCF03F0F1
:101A4000D5C4EAFFD4C4E9FF03C0D9F402C0D8F476
:101A500001C0D7F400C0D6F4300E04010024006E9B
:101A6000000E0120000E0220000E0320D3C4EAFF66
:101A7000D2C4E9FF00C0EFFF036AD051C825E96E68
:101A8000C9510320EA6EEF5039080AE2036AD051C7
:101A9000C825E96EC9510320EA6E070EEF24EF6EE8
:101AA000D02BCDC4C6F4CCC4C5F4CBC4C4F4CAC4D2
:101AB000C3F481D7CF2D0AD0036AD051C825E96E6F
:101AC000C9510320EA6E2D0EEF6ED02BCE6BD8904D
:101AD000D031CE5D2FE2036ACE51C825E96EC951DF
:101AE0000320EA6EEFCFD1F4036ACE51C825016E10
:101AF000C951032203C0D3F4CE51D05DFF0F036A56
:101B0000C825E96EC9510320EA6EEFCFD4F4D3C4DF
:101B1000EAFF01C0E9FFD4C4EFFFCE51D05DFF0F53
:101B2000036AC825E96EC9510320EA6ED1C4EFFFEC
:101B3000CE2BCDD7036AD051C825E96EC9510320F9
:101B4000EA6EEF6AC8C401F0C9C402F00001000CDB
:101B50000401C36B00017BEC01F00401C36BC46B97
:101B6000C66B250EC56F010EC76FC86F0001CBECA9
:101B700002F00401C36B090EC46F7F0EC56F090E1E
:101B8000C66F020EC76F010EC86F0001CFEC03F0E5
:101B9000050E0401C36F140EC46F190EC56F230E1A
:101BA000C66FC76B010EC86F0001E7DC090E0401A8
:101BB000C36F180EC46FC66B950EC56F010EC76F4D
:101BC000C86F0001CBEC02F0230E0401C36F140EAA
:101BD000C46F370EC56F230EC66FC76B010EC86F7B
:101BE0000001CBDC270E0401C36F180EC46FC66B57
:101BF000980EC56F010EC76FC86F0001CBEC02F0E5
:101C0000410E0401C36F140EC46F550EC56F230E31
:101C1000C66FC76B010EC86F0001AFDC450E040133
:101C2000C36F180EC46FC66B9B0EC56F010EC76FD6
:101C3000C86F0001CBEC02F0050E0401C36F2D0E3E
:101C4000C46F190EC56F3C0EC66FC76B010EC86F0F
:101C5000000193DC090E0401C36F310EC46FC66B23
:101C60009E0EC56F010EC76FC86F0001CBEC02F06E
:101C7000230E0401C36F2D0EC46F370EC56F3C0ECB
:101C8000C66FC76B010EC86F000177DC270E040119
:101C9000C36F310EC46FC66BA10EC56F010EC76F47
:101CA000C86F0001CBEC02F0410E0401C36F2D0E92
:101CB000C46F550EC56F3C0EC66FC76B010EC86F63
:101CC00000015BDC450E0401C36F310EC46FC66BAF
:101CD000A40EC56F010EC76FC86F0001CBEC02F0F8
:101CE000A8EC01F024EC07F0162C07D0010E072613
:101CF0000750060802E2010E076E132C06D0010EF3
:101D0000075E075202E1060E076E112C02D00A0E82
:101D1000076E010E075CF60FD8B05EEF14F00A0FE5
:101D200067EF14F0410E0401C36F2D0EC46F550E02
:101D3000C56F3C0EC66F010EC76FC86B00011DDC7E
:101D4000410E0401C36F2D0EC46F550EC56F3C0EBE
:101D5000C66FC76B010EC86F00010FDC450E040192
:101D6000C36F310EC46FC66BA40EC56F010EC76F73
:101D7000C86F0001CBEC02F0230E0401C36F140EF8
:101D8000C46F370EC56F230EC66F010EC76FC86BC9
:101D90000001BDEC0AF0230E0401C36F140EC46FE2
:101DA000370EC56F230EC66FC76B010EC86F0001DB
:101DB000BDEC0AF0270E0401C36F180EC46FC66B8A
:101DC000980EC56F010EC76FC86F0001CBEC02F013
:101DD0000D524FE10F2C4DD00401C46B950EC36F13
:101DE000000159DC01C0B9F4010E0401B95FB95317
:101DF00015E1000E026E020E016EB40E006E036A53
:101E00000050980809E1015207E1025205E103522E
:101E100003E11C0EB96F02D01F0EB96FC66BC56B04
:101E2000C46BB9C4C3F40A0EC76FC96B950EC86FF3
:101E300000019CDD050E0401C36F140EC46F190E62
:101E4000C56F230EC66F010EC76FC86F0001BDECD2
:101E50000AF0090E0401C36F180EC46FC66B950E0D
:101E6000C56F010EC76FC86B0001CBEC02F0A8EC88
:101E700001F00D2C3DD00F523BE10401C46B950ED7
:101E8000C36F000108DC01C0BAF4010E0401BA27D7
:101E9000BA51200802E1010EBA6FC66BC56BC46B64
:101EA000BAC4C3F40A0EC76FC96B950EC86F0001A0
:101EB0005DDD050E0401C36F140EC46F190EC56FEE
:101EC000230EC66F010EC76FC86F0001BDEC0AF08C
:101ED000090E0401C36F180EC46FC66B950EC56F53
:101EE000010EC76FC86B0001CBEC02F0A8EC01F04B
:101EF0005EEF14F0050E0401C36F140EC46F190ECB
:101F0000C56F230EC66F010EC76FC86B0001BDEC15
:101F10000AF0050E0401C36F140EC46F190EC56FCD
:101F2000230EC66FC76B010EC86F0001BDEC0AF02F
:101F3000090E0401C36F180EC46FC66B950EC56FF2
:101F4000010EC76FC86F0001CBEC02F0410E040117
:101F5000C36F140EC46F550EC56F230EC66F010EEE
:101F6000C76FC86B0001BDEC0AF0410E0401C36FDE
:101F7000140EC46F550EC56F230EC66FC76B010ECE
:101F8000C86F0001BDEC0AF0450E0401C36F180EC6
:101F9000C46FC66B9B0EC56F010EC76FC86F000183
:101FA000CBEC02F00D523DE10F2C3BD00401C46B91
:101FB000980EC36F00014BEC0BF001C0BBF4010E97
:101FC0000401BB5FBB5302E10C0EBB6FC66BC56B5C
:101FD000C46BBBC4C3F40A0EC76FC96B980EC86F3D
:101FE0000001C4DC230E0401C36F140EC46F370E4E
:101FF000C56F230EC66F010EC76FC86F0001BDEC21
:102000000AF0270E0401C36F180EC46FC66B980E3A
:10201000C56F010EC76FC86B0001CBEC02F0A8ECD6
:1020200001F00D2C3ED00F523CE10401C46B980E20
:10203000C36F00014BEC0BF001C0BCF4010E0401B6
:10204000BC27BC510D0802E1010EBC6FC66BC56B0D
:10205000C46BBCC4C3F40A0EC76FC96B980EC86FBB
:10206000000184DC230E0401C36F140EC46F370E0D
:10207000C56F230EC66F010EC76FC86F0001BDECA0
:102080000AF0270E0401C36F180EC46FC66B980EBA
:10209000C56F010EC76FC86B0001CBEC02F0A8EC56
:1020A00001F05EEF14F0230E0401C36F140EC46F31
:1020B000370EC56F230EC66F010EC76FC86B0001C8
:1020C000BDEC0AF0230E0401C36F140EC46F370E6B
:1020D000C56F230EC66FC76B010EC86F0001BDEC44
:1020E0000AF0270E0401C36F180EC46FC66B980E5A
:1020F000C56F010EC76FC86F0001CBEC02F0050E73
:102100000401C36F2D0EC46F190EC56F3C0EC66F50
:10211000010EC76FC86B0001BDEC0AF0050E04018B
:10212000C36F2D0EC46F190EC56F3C0EC66FC76B03
:10213000010EC86F0001BDEC0AF0090E0401C36F67
:10214000310EC46FC66B9E0EC56F010EC76FC86F90
:102150000001CBEC02F00D523EE10F2C3CD004010B
:10216000C46B9B0EC36F00014BEC0BF001C0BDF4C0
:10217000010E0401BD5FBD5302E1630EBD6FC66B6E
:10218000C56BC46BBDC4C3F40A0EC76FC96B9B0E8D
:10219000C86F0001B6EC0CF0410E0401C36F140EC1
:1021A000C46F550EC56F230EC66F010EC76FC86F83
:1021B0000001BDEC0AF0450E0401C36F180EC46F98
:1021C000C66B9B0EC56F010EC76FC86B0001CBECD1
:1021D00002F0A8EC01F00D2C3ED00F523CE10401BE
:1021E000C46B9B0EC36F00014BEC0BF001C0BEF43F
:1021F000010E0401BE27BE51630801E1BE6BC66B30
:10220000C56BC46BBEC4C3F40A0EC76FC96B9B0E0B
:10221000C86F0001B6EC0CF0410E0401C36F140E40
:10222000C46F550EC56F230EC66F010EC76FC86F02
:102230000001BDEC0AF0450E0401C36F180EC46F17
:10224000C66B9B0EC56F010EC76FC86B0001CBEC50
:1022500002F0A8EC01F032D3410E0401C36F140E5A
:10226000C46F550EC56F230EC66F010EC76FC86BC6
:102270000001BDEC0AF0410E0401C36F140EC46FDF
:10228000550EC56F230EC66FC76B010EC86F0001D8
:10229000BDEC0AF0450E0401C36F180EC46FC66B87
:1022A0009B0EC56F010EC76FC86F0001CBEC02F02B
:1022B000230E0401C36F2D0EC46F370EC56F3C0E85
:1022C000C66F010EC76FC86B0001BDEC0AF0230E8C
:1022D0000401C36F2D0EC46F370EC56F3C0EC66F61
:1022E000C76B010EC86F0001BDEC0AF0270E040198
:1022F000C36F310EC46FC66BA10EC56F010EC76FE1
:10230000C86F0001CBEC02F00D523EE10F2C3CD027
:102310000401C46B9E0EC36F00014BEC0BF001C0B7
:10232000BFF4010E0401BF5FBF5302E10C0EBF6F8B
:10233000C66BC56BC46BBFC4C3F40A0EC76FC96B51
:102340009E0EC86F0001B6EC0CF0050E0401C36FC1
:102350002D0EC46F190EC56F3C0EC66F010EC76FF0
:10236000C86F0001BDEC0AF0090E0401C36F310E05
:10237000C46FC66B9E0EC56F010EC76FC86B0001A0
:10238000CBEC02F0A8EC01F00D2C3FD00F523DE158
:102390000401C46B9E0EC36F00014BEC0BF001C037
:1023A000C0F4010E0401C027C0510B0802E2010E67
:1023B000C06FC66BC56BC46BC0C4C3F40A0EC76FD5
:1023C000C96B9E0EC86F0001B6EC0CF0050E04013F
:1023D000C36F2D0EC46F190EC56F3C0EC66F010E74
:1023E000C76FC86F0001BDEC0AF0090E0401C36F8E
:1023F000310EC46FC66B9E0EC56F010EC76FC86BE2
:102400000001CBEC02F0A8EC01F058D2050E04015B
:10241000C36F2D0EC46F190EC56F3C0EC66F010E33
:10242000C76FC86B0001BDEC0AF0050E0401C36F55
:102430002D0EC46F190EC56F3C0EC66FC76B010E13
:10244000C86F0001BDEC0AF0090E0401C36F310E24
:10245000C46FC66B9E0EC56F010EC76FC86F0001BB
:10246000CBEC02F0410E0401C36F2D0EC46F550E6C
:10247000C56F3C0EC66F010EC76FC86B0001BDEC87
:102480000AF0410E0401C36F2D0EC46F550EC56FC7
:102490003C0EC66FC76B010EC86F0001BDEC0AF0A1
:1024A000450E0401C36F310EC46FC66BA40EC56F19
:1024B000010EC76FC86F0001CBEC02F00D523AE17C
:1024C0000F2C38D00401C46BA10EC36F00014BEC7C
:1024D0000BF001C0C1F4010E0401C15FC66BC56BF6
:1024E000C46BC1C4C3F40A0EC76FC96BA10EC86F19
:1024F0000001B6EC0CF0230E0401C36F2D0EC46F67
:10250000370EC56F3C0EC66F010EC76FC86F000156
:10251000BDEC0AF0270E0401C36F310EC46FC66B09
:10252000A10EC56F010EC76FC86B0001CBEC02F0A6
:10253000A8EC01F00D2C3ED00F523CE10401C46B1D
:10254000A10EC36F00014BEC0BF001C0C2F4010EF1
:102550000401C227C2513B0801E2C26BC66BC56BC6
:10256000C46BC2C4C3F40A0EC76FC96BA10EC86F97
:102570000001B6EC0CF0230E0401C36F2D0EC46FE6
:10258000370EC56F3C0EC66F010EC76FC86F0001D6
:10259000BDEC0AF0270E0401C36F310EC46FC66B89
:1025A000A10EC56F010EC76FC86B0001CBEC02F026
:1025B000A8EC01F083D1230E0401C36F2D0EC46F6C
:1025C000370EC56F3C0EC66F010EC76FC86B00019A
:1025D000BDEC0AF0230E0401C36F2D0EC46F370E3D
:1025E000C56F3C0EC66FC76B010EC86F0001BDEC16
:1025F0000AF0270E0401C36F310EC46FC66BA10E23
:10260000C56F010EC76FC86F0001CBEC02F0050E5D
:102610000401C36F140EC46F190EC56F230EC66F6D
:10262000010EC76FC86B0001BDEC0AF0050E040176
:10263000C36F140EC46F190EC56F230EC66FC76B20
:10264000010EC86F0001BDEC0AF0090E0401C36F52
:10265000180EC46FC66B950EC56F010EC76FC86F9D
:102660000001CBEC02F00D2C01D002D00F2C54D085
:10267000000E026E020E016E9C0E006E036A005088
:10268000A4081AE1015218E1025216E1035214E1C2
:10269000EA6AA40EE96EF2CFC3F4F29E000E50EC8B
:1026A00001F00A000900F550EE6E0009FBE104019B
:1026B000C3BFF28E13D00001EA6AA40EE96EF2CF16
:1026C000C3F4F29E000E46EC01F00A000900F5503A
:1026D000EE6E0009FBE10401C3BFF28E410EC36F31
:1026E0002D0EC46F550EC56F3C0EC66F010EC76F21
:1026F000C86F0001BDEC0AF0450E0401C36F310E36
:10270000C46FC66BA40EC56F010EC76FC86B000106
:10271000CBEC02F0A8EC01F0D1D00401C36B0001B6
:102720007BEC01F00401C36BC46BC66B250EC56F57
:10273000010EC76FC86F0001CBEC02F00401C36B40
:10274000090EC46F7F0EC56F090EC66F020EC76FEC
:10275000010EC86F0001CFEC03F0050E0401C36F3A
:10276000140EC46F190EC56F230EC66FC76B010E12
:10277000C86F0001BDEC0AF0090E0401C36F180E0A
:10278000C46FC66B950EC56F010EC76FC86F000191
:10279000CBEC02F0230E0401C36F140EC46F370E8E
:1027A000C56F230EC66FC76B010EC86F0001BDEC6D
:1027B0000AF0270E0401C36F180EC46FC66B980E83
:1027C000C56F010EC76FC86F0001CBEC02F0410E60
:1027D0000401C36F140EC46F550EC56F230EC66F70
:1027E000C76B010EC86F0001BDEC0AF0450E040175
:1027F000C36F180EC46FC66B9B0EC56F010EC76FFB
:10280000C86F0001CBEC02F0050E0401C36F2D0E62
:10281000C46F190EC56F3C0EC66FC76B010EC86F33
:102820000001BDEC0AF0090E0401C36F310EC46F44
:10283000C66B9E0EC56F010EC76FC86F0001CBEC53
:1028400002F0230E0401C36F2D0EC46F370EC56F47
:102850003C0EC66FC76B010EC86F0001BDEC0AF0DD
:10286000270E0401C36F310EC46FC66BA10EC56F76
:10287000010EC76FC86F0001CBEC02F0410E0401DE
:10288000C36F2D0EC46F550EC56F3C0EC66FC76B60
:10289000010EC86F0001BDEC0AF0450E0401C36FC4
:1028A000310EC46FC66BA40EC56F010EC76FC86F23
:1028B0000001CBEC02F0A8EC01F000D0086A075050
:1028C0000A0801E102D072EF0EF08AEF14F0E8245A
:1028D000F76AF736E90FF66E280EF7220A00F55070
:1028E000FA6E0800F550F96E241DF41EA620582239
:1028F0000C24B625BC28BC28BC281A27010E0401CC
:10290000B85DFC0FD8B0D9D0040F000132EF16F03B
:10291000A8EF0DF0066AA5D10401CFD00001040193
:10292000C36B00017BEC01F00401C36BC46BC66B8D
:10293000330EC56F010EC76FC86F0001CBEC02F0FC
:102940000401C36B090EC46F7F0EC56F090EC66FFD
:10295000020EC76F010EC86F0001CFEC03F0040137
:10296000C36B0E0EC46FC66B430EC56F010EC76FEF
:10297000C86F0001CBEC02F00401C36B170EC46FEB
:10298000C66B4D0EC56F010EC76FC86F0001CBEC53
:1029900002F0A8EC01F0066A04018FD000010401E6
:1029A000C36B00017BEC01F00401C36BC46BC66B0D
:1029B000590EC56F010EC76FC86F0001CBEC02F056
:1029C0000401C36B090EC46F7F0EC56F090EC66F7D
:1029D000020EC76F010EC86F0001CFEC03F00401B7
:1029E000C36B0E0EC46FC66B620EC56F010EC76F50
:1029F000C86F0001CBEC02F00401C36B170EC46F6B
:102A0000C66B6B0EC56F010EC76FC86F0001CBECB4
:102A100002F0A8EC01F0066A04014FD000010401A5
:102A2000C36B00017BEC01F00401C36BC46BC66B8C
:102A3000750EC56F010EC76FC86F0001CBEC02F0B9
:102A40000401C36B090EC46F7F0EC56F090EC66FFC
:102A5000020EC76F010EC86F0001CFEC03F0040136
:102A6000C36B0E0EC46FC66B800EC56F010EC76FB1
:102A7000C86F0001CBEC02F00401C36B170EC46FEA
:102A8000C66B860EC56F010EC76FC86F0001CBEC19
:102A900002F00401C36B200EC46FC66B8D0EC56FB0
:102AA000010EC76FC86F0001CBEC02F0A8EC01F07B
:102AB000066A040102D000010401000124EC07F0C1
:102AC0000D520AE10F2C08D0010E062606C0B9F4FB
:102AD000B8C4BAF457EC07F00D2C0AD00F5208E135
:102AE000010E065E06C0B9F4B8C4BAF457EC07F09C
:102AF000132C03D0066A086AB4D0112CB0D004019C
:102B0000B851020A000105E0010A32E0070A5FE05D
:102B1000A3D00650010A03E0030A15E028D0EA6AB0
:102B2000A70EE96EF2CFB9F4F29E000E00EC01F0B0
:102B30000A000900F550EE6E0009FBE10401B9BF7F
:102B4000F28E000114D0EA6AA70EE96EF2CFB9F452
:102B5000F29E000E09EC01F00A000900F550EE6E3D
:102B60000009FBE10401B9BFF28E000100D074D06E
:102B70000650010A03E0030A15E028D0EA6AA90E0C
:102B8000E96EF2CFB9F4F29E000E12EC01F00A00E9
:102B90000900F550EE6E0009FBE10401B9BFF28EA9
:102BA000000114D0EA6AA90EE96EF2CFB9F4F29EE0
:102BB000000E1CEC01F00A000900F550EE6E000951
:102BC000FBE10401B9BFF28E000100D045D00650F0
:102BD000010A05E0030A17E0010A29E03CD0EA6A8D
:102BE000AD0EE96EF2CFB9F4F29E000E27EC01F0C3
:102BF0000A000900F550EE6E0009FBE10401B9BFBF
:102C0000F28E000128D0EA6AAD0EE96EF2CFB9F477
:102C1000F29E000E31EC01F00A000900F550EE6E54
:102C20000009FBE10401B9BFF28E000114D0EA6A89
:102C3000AD0EE96EF2CFB9F4F29E000E3CEC01F05D
:102C40000A000900F550EE6E0009FBE10401B9BF6E
:102C5000F28E000100D000D0066A086A02D0086A2D
:102C60002DD7000CE824F76AF7367F0FF66E2C0E8E
:102C7000F7220A00F550FA6E0800F550F96E102997
:102C80001E299E291E2A8BEC06F024EC07F00D521B
:102C90000BE10F2C09D0010E062606C0B9F4040181
:102CA000BA6B000157EC07F00D2C0BD00F5209E165
:102CB000010E065E06C0B9F40401BA6B000157ECC0
:102CC00007F0162C23D0062C05D0010E0401B86F96
:102CD000000114DE0650020805E1020E0401B86F7F
:102CE00000010CDE0650030805E1030E0401B86F75
:102CF000000104DE0650040805E1040E0401B86F6B
:102D00000001FCDD065202E18BEC06F0086ABDD73B
:102D1000C7EF17F0F86AD09EEA6AE96AB886100E23
:102D2000AF6E000EB06EA60EAC6E900EAB6E066A65
:102D3000076A086AC150C00B0F09C16E070EB46E56
:102D4000056A430E176E6F0E186E6E0E196E660EC4
:102D50001A6E690E1B6E670E1C6E750E1D6E720E5E
:102D60001E6E610E1F6E630E206E690E216E6F0E59
:102D7000226E6E0E236E246A2D0E256E460E266E72
:102D8000650E276E630E286E680E296E610E2A6E20
:102D9000200E2B6E790E2C6E200E2D6E480E2E6E90
:102DA0006F0E2F6E720E306E610E316E326A2D0E06
:102DB000336E540E346E650E356E6D0E366E700EBB
:102DC000376E650E386E720E396E610E3A6E740E85
:102DD0003B6E750E3C6E720E3D6E610E3E6E200EA9
:102DE0003F6E406E416E426A2D0E436E446E430E3E
:102DF000456E650E466E6C0E476E730E486E690E1C
:102E0000496E750E4A6E730E4B6E4C6A2D0E4D6EEA
:102E10004E6E460E4F6E610E506E720E516E650E06
:102E2000526E6E0E536E680E546E650E556E690EC0
:102E3000566E740E576E586A2D0E596E500E5A6E9D
:102E4000720E5B6E650E5C6E730E5D6E690E5E6E6D
:102E50006F0E5F6E6E0E606F616B2D0E626F636F33
:102E6000500E646F610E656F730E666F630E676F51
:102E7000610E686F6C0E696F6A6B2D0E6B6F6C6FF5
:102E80004D0E6D6F690E6E6F6C0E6F6F690E706F09
:102E9000620E716F610E726F720E736F746B2D0E16
:102EA000756F560E766F650E776F6C0E786F6F0EBE
:102EB000796F630E7A6F690E7B6F640E7C6F610EA3
:102EC0007D6F640E7E6F7F6B2D0E806F816F6D0E38
:102ED000826F2F0E836F730E846F856B2D0E866F3E
:102EE000876F6B0E886F6D0E896F2F0E8A6F680E5D
:102EF0008B6F8C6B2D0E8D6F8E6F4E0E8F6F750ED0
:102F0000906F640E916F6F0E926F730E936F946B50
:102F1000300E956F310E966F976B300E986F310EA5
:102F2000996F9A6B300E9B6F310E9C6F9D6B9E6FED
:102F3000300E9F6FA06B310EA16F300EA26FA36B8E
:102F4000410EA46F4D0EA56FA66B430EA76FA86B25
:102F5000500EA96F610EAA6F200EAB6FAC6B6D0E99
:102F6000AD6F2F0EAE6F730EAF6F200EB06FB16BE3
:102F70000401B26BB36B010EB86F000104EC02F0F8
:102F8000640E0401B86F000158EF02F07CD6030014
:020000040030CA
:0E00000000C2190E008681000FC00FE00F40F5
:00000001FF
;PIC18F4680
;CRC=62D7  CREATED="03-mar-12 15:35"
