:040000001AEF07F0FC
:08000800046ED8CF05F0E0CF33
:1000100006F00001E9CF0CF0EACF07F0E1CF08F0DD
:10002000E2CF09F0D9CF0AF0DACF0BF0F3CF12F01C
:10003000F4CF13F0FACF14F0F5CF15F0F6CF16F099
:10004000F7CF17F000C00EF001C00FF002C010F0A3
:1000500003C011F09DA030EF00F09EB069EF00F0FA
:10006000A0A236EF00F0A1B26FEF00F0F2A83CEFD3
:1000700000F0F2B284EF00F09DAA42EF00F09EBAC9
:1000800089EF00F00EC000F00FC001F010C002F0C8
:1000900011C003F00CC0E9FF07C0EAFF078E08C0DB
:1000A000E1FF09C0E2FF0AC0D9FF0BC0DAFF12C0AE
:1000B000F3FF13C0F4FF14C0FAFF15C0F5FF16C01C
:1000C000F6FF17C0F7FF045006C0E0FF05C0D8FFD9
:1000D0001000382ACF6ACE6A9E9042EF00F0010EDF
:1000E0003E26D8B03F2AD8B4402AD8B4412A010EBF
:1000F0003A26D8B03B2AD8B43C2AD8B43D2AB36AB1
:10010000B26AA19242EF00F0010E396EF29242EF14
:1001100000F09E9A42EF00F09251D8B471D0006E78
:100120009651D8B46DD0002604E3810E002668E213
:1001300004D07F0E005E64E363E093C09AF09751B1
:100140009A1B938F978F95519903F4CF9CF09451FC
:100150009803F4CF03F0F3CF9BF09903F3509C275F
:10016000F4509B23000E032295519803F3509C27D3
:10017000F4509B23000E026A03220222935199033A
:10018000F3509B27F4500322000E02229351980350
:10019000F3500326F4500222000E016A0122955109
:1001A0009703F3509B27F4500322000E02220122F2
:1001B00094519703F3500326F4500222000E0122BB
:1001C00093519703F3500226F4500122002A01BEF6
:1001D00005D09B370336023601360006000E9BAF72
:1001E0000AD0032A02220122015005E1025003E154
:1001F000035001E1002A9ABF018E9AAF019E04D0FC
:10020000006A016A026A036A000C800ED8B2971B6A
:100210009C6B9D6B93C09BF097519B1B9251D8B4E4
:10022000DCD09A6F006E9651D8B4E0D09A5FD8B403
:1002300081D03DE397C0A0F0A08F98C09FF099C0F7
:100240009EF09D6BD890A0339F339E339D339A2FA1
:10025000F8D79BAF03D09C81DDD09C919A919C896B
:10026000EA6A950EE96EE9D09C999BBF0AD09AA1E3
:1002700013D0A0339F339E339D33002AD8B4C5D00A
:100280000BD0A0BF0CD0D8909D379E379F37A0379A
:100290000006D8B4BAD0F5D79C8D6BD09C9D93C086
:1002A0009BF093AF02D0A08FA9D0A09FA7D096C0FB
:1002B0009AF096C000F092519A5F93C0A0F0A08F80
:1002C00094C09FF095C09EF09D6BD890A0339F3353
:1002D0009E339D339A2FF8D79BAF03D09C839AD03F
:1002E0009C939A919C8BEA6A990EE96EA6D09C9B8E
:1002F0009BBF0AD09AA113D0A0339F339E339D3366
:10030000002AD8B482D00BD0A0BF0CD0D8909D3793
:100310009E379F37A0370006D8B477D0F5D79C8F8B
:1003200028D09C9F97C09BF097AF02D0A08F66D03B
:10033000A09F64D097C0A0F0A08F98C09FF099C0F4
:100340009EF09BAF04D0A09F9C8564D09C959D6B34
:100350009A91EA6A950EE96E70D09BBF1CD093C04B
:100360009BF09AA106D0A0339F339E339D33002A81
:100370004CE09DAF0BD09E2B09E19F2B07E1A02BFA
:1003800005E1A0339F339E33002A3FE09CBD86D712
:100390009CBFC7D71CD0800EA01BA0AF04D03AD002
:1003A00097C09BF00AD093C09BF0A05306E19F53E7
:1003B00004E19E5302E1006A21D0A0BF08D0D8908A
:1003C0009D379E379F37A037002EF7D71ED09BAFA3
:1003D00002D0A08F13D0A09F11D096C000F097C07C
:1003E000A0F098C09FF099C09EF008D092C000F095
:1003F00093C0A0F094C09FF095C09EF0A0C001F003
:100400009FC002F09EC003F034D0006A016A026A05
:10041000036A2FD09D6B9E1F9F1FA01F9D1F9D2BAA
:1004200005E19E2B03E19F2B01E1A02B9CB115D789
:100430009CB356D79CB58AD7B3D7EF509E2705E318
:100440009F2B03E1A02BD8B49A81ED52EF509F2748
:1004500003E3A02BD8B49A81ED52EF50EFBE01D048
:10046000800AA027D8B09A819CB9FED69CBB3FD702
:1004700074D7000C9251B608926F036A93C096F03D
:10048000938FD890933394339533033202320132F1
:100490000032922FF6D796AF0BD0001E011E021E1F
:1004A000031E002AD8B4012AD8B4022AD8B4032AD9
:1004B000E8EF02F0D8B203D0EA6A9A0EE96E006A59
:1004C000016A026A036A9A6B9B6B9C6B9D6B9951E4
:1004D0009811971196112CE0200E9E6FD8909237AC
:1004E0009337943795379A379B379C379D37995177
:1004F0009D5D08E198519C5D05E197519B5D02E18E
:1005000096519A5D0FE396519A5F9751D8A0973D07
:100510009B5F9851D8A0983D9C5F9951D8A0993D78
:100520009D5FD88000360136023603369E2FD6D71F
:100530009AC0EFFF9BC0ECFF9CC0ECFF9DC0ECFF9E
:10054000000CE9508A6F89518C6F19E088C095F0D2
:1005500087C094F086C093F085C092F0996B986B39
:10056000200E976F820E966FD7DD03C088F002C011
:1005700087F001C086F000C085F08C2FE7D77E0E93
:10058000006E016A86BF018E026A036AD89288C033
:1005900095F087C094F086C093F085C092F003C0B8
:1005A00099F002C098F001C097F0966F2EDE03C05C
:1005B00088F002C087F001C086F000C085F088C0D6
:1005C00095F087C094F086C093F085C092F052D722
:1005D00003C088F002C087F001C086F000C085F03B
:1005E00088AF0DD08A078A8B851F861F871F881FBB
:1005F000852BD8B4862BD8B4872BD8B4882B3B0E48
:10060000916F9A0E906FCA0E8F6F8E6B0A0E8C6F61
:100610008951D8B48A2BD882EA6A850EE96E88C0DF
:1006200095F087C094F086C093F085C092F091C099
:1006300099F090C098F08FC097F08EC096F03ADF96
:10064000015000520FE189298C5D0CE08A510CE0C9
:100650000F0B8C5D01E03BE28ABF39D08ABD04D02C
:10066000200E30D0200E8A178AAB0DD08A9B89517C
:10067000D8A48A0700508A6F2D0E9EA8FED7AD6EB3
:100680008A51006E8A6B89518C5D0BE100508A6F34
:100690002E0E9EA8FED7AD6E8A51006E200E8A17D0
:1006A000000E300E8AAB0ED08A9B8951D8A48A07DF
:1006B00000508A6F2D0E9EA8FED7AD6E8A51006E37
:1006C0008A6B300E002600509EA8FED7AD6ED892E1
:1006D00091C095F090C094F08FC093F08EC092F0CE
:1006E000996B986B976B0A0E966FE4DE03C091F0DE
:1006F00002C090F001C08FF000C08EF08C2F8BD71D
:10070000D5EF04F08E0E006E86C001F085C002F0B9
:10071000036A015209E102C001F0026A080E005E9C
:10072000015202E1006A08D0D89001BE04D002361E
:1007300001360006F9D7019E000C8551D8B4A5D02A
:10074000916F8951D8B4A1D0915F05E37F0E9127B5
:10075000D8B09BD006D0810E915FD8A096D0D8B4E7
:1007600094D091C000F0016A026A036A906B86C05F
:100770008FF08F8F87C08EF088C08DF0190E916F2B
:100780008C518D5F0DE2010E8E5F0AE28F5F08E2F1
:10079000905F06E2902B8F2B8E2B8C518D2728D0CB
:1007A0008B518E5F12E2010E8F5F0FE2905F0DE2C0
:1007B000902B8F2B8B518E278C518D2719E38E2BED
:1007C00017E18F2B15E1902B13D08A5180098F5F91
:1007D0000EE2010E905F0BE2902B8A5180098F2769
:1007E0008B518E27E9E38F2BE7E1902BE5D7038030
:1007F000912F01D00BD0D8908D378E378F3790370F
:10080000D8900336023601369237BAD792A106D075
:10081000D890013202320332923302D0000635E022
:1008200092BF1ED0D8908D378E378F3790378C512E
:100830008D5F07E2010E8E5F04E28F5F02E2905F40
:100840001AE38B518E5F05E2010E8F5F02E2905F2B
:1008500012E38A5180098F5F03E2010E905F0BE380
:10086000032A09E1022A07E1012A05E1002A0DE035
:1008700001320232033286C091F08A51911B91AF4E
:1008800002D0018E06D0019E04D0006A016A026A7D
:10089000036A000CEACF8DF0E9CF8CF086AF08D068
:1008A0008C8F8CA98C2B851F861F852BD8B4862B0B
:1008B0008639F009886F8827E20F896F320F8B6FB6
:1008C00086510F0B892789278B27E90F8A6F8A2783
:1008D0008A2785390F0B8A278B278A378B378B1FFF
:1008E0008B3785510F0B8B278837070E876F0A0EC2
:1008F0008A078B27FDE389078A27FDE38807892775
:10090000FDE387078827FDE3EA6A870EE96E070E95
:100910008C158C9DE9068C1507E18CB9E92A8CB9F8
:1009200003D0200E006E1CD0E9268B0EE95CD8B4F3
:100930008C8DEF50006E08E18CBD06D08CB914D0C0
:100940008CB702D0200E0BD08CAF06D02D0E006ECF
:10095000ED508C9D8C9F04D08C878C99300E002696
:1009600000509EA8FED7AD6EEE508CADDED7000CC9
:100970009D80F288F19CCF6ACE6A385014081DE23F
:10098000336A326A316A306A52509EA8FED7AD6E21
:10099000890EE96E33C088F032C087F031C086F02E
:1009A00030C085F0020E896FCCD50A0E9EA8FED706
:1009B000AD6E386A396ACF6ACE6A392CC0D0CE5053
:1009C000CFCF03F0856FCFCF86F09CDE03C02FF032
:1009D00002C02EF001C02DF000C02CF02FC095F009
:1009E0002EC094F02DC093F02CC092F0BD0E996FE4
:1009F000370E986F060E976F6D0E966F8CEC00F0A9
:100A000003C02FF002C02EF001C02DF000C02CF06A
:100A1000866B38C085F076DE03C095F002C094F096
:100A200001C093F000C092F0BD0E996F370E986F21
:100A3000060E976F7B0E966F8CEC00F003C037F0BC
:100A400002C036F001C035F000C034F0D8922FC09B
:100A500095F02EC094F02DC093F02CC092F037C0CA
:100A600099F036C098F035C097F034C096F005EC98
:100A700001F003C02FF002C02EF001C02DF000C025
:100A80002CF0EE0E886FEB0E876F400E866F7B0E9C
:100A9000856F2FC08CF02EC08BF02DC08AF02CC03B
:100AA00089F04BDE03C033F002C032F001C031F0F8
:100AB00000C030F033C088F032C087F031C086F01B
:100AC00030C085F0B80E8C6FAF0E8B6F030E8A6F3F
:100AD0007E0E896F32DE03C033F002C032F001C0F7
:100AE00031F000C030F033C095F032C094F031C026
:100AF00093F030C092F0996B986B200E976F820E36
:100B0000966F8CEC00F003C033F002C032F001C0ED
:100B100031F000C030F052509EA8FED7AD6E100EDE
:100B2000E96E31C086F030C085F0B4DE0D0E9EA8AF
:100B3000FED7AD6E386A396ACF6ACE6A0BD03D52A5
:100B400007E13C5205E13B5203E13A50180801E24B
:100B500001D013D79D90F2987CEF07F0EF5210E090
:100B6000EACF86F0E9CF85F0EF509EA8FED7AD6EB4
:100B700086C0EAFF85C0E9FFE92AD8B4EA2AEED7A1
:100B8000000CEA6A850EE96EEF500DE0020E016E70
:100B9000006A002EFED7012EFBD7970E006E002EA6
:100BA000FED7EF2EF3D7000C016A026A006A036ACF
:100BB0008A5102E1895118E0100E8B6FD890873767
:100BC0008837003603368A51035C02E18951005CA4
:100BD00007E38951005ED8A003068A51035ED880DE
:100BE000013602368B2FEAD78EEF06F08851016A64
:100BF000875D03E287C000F00CD0006A080E896FA1
:100C0000873700368851005CD8B0006E0136892FD6
:100C1000F7D7000C015085C087F0640E886FE6DFBF
:100C200000C085F00150300E07E186A30DD086B7D5
:100C30000BD086B9200E03D086978699868101262F
:100C400001509EA8FED7AD6E85C087F00A0E886F52
:100C5000CDDF00C085F00150300E06E186B709D027
:100C600086A107D086B9200E012601509EA8FED786
:100C7000AD6E300E852785519EA8FED7AD6E000C57
:100C8000000E016EC250C30B0110C26E060E006E44
:100C9000002EFED70000C282C2B2FED7C3CF44F0FE
:100CA000C4CF45F00A0E856F6CDF040E016EC25092
:100CB000C30B0110C26E060E006E002EFED70000A0
:100CC000C282C2B2FED7C3CF46F0C4CF47F00A0EED
:100CD000856F57DF080E016EC250C30B0110C26E44
:100CE000060E006E002EFED70000C282C2B2FED7F2
:100CF000C3CF48F0C4CF49F046504424856F4750D5
:100D00004520866F485085274950862386C088F045
:100D100085C087F08A6B030E896F46D702C043F007
:100D200001C042F0435205E14250660802E34A6ABC
:100D300058D0435206E14250CD0803E3010E4A6EFB
:100D400050D04350010807E303E14250340803E365
:100D5000020E4A6E46D04350010807E303E14250B9
:100D60009B0803E3030E4A6E3CD04350020807E39E
:100D700003E14250020803E3040E4A6E32D04350AE
:100D8000020807E303E14250690803E3050E4A6ED7
:100D900028D04350020807E303E14250D00803E3A0
:100DA000060E4A6E1ED04350030807E303E142508B
:100DB000370803E3070E4A6E14D04350030807E3D5
:100DC00003E142509E0803E3080E4A6E0AD04350E6
:100DD000020807E2FF0A03E142509E0802E2090E00
:100DE0004A6E4C0E9EA8FED7AD6E4AC085F01B0E13
:100DF000866F10DF0D0E9EA8FED7AD6EF9EF07F0DF
:100E000095801A9083B01A8095821A9283B21A82C2
:100E100095841A9483B41A841AB402D0040E1B2643
:100E20001AB202D0020E1B261AB002D0010E1B26E7
:100E300039EF08F0F86AD09E078EEA6AE96A196A03
:100E4000B8960C0EAF6EA20EAC6E900EAB6E948682
:100E50009488040EC86E280EC66EC79EC79C1A944E
:100E60001B6A1F6A1E6A396A416A406A3F6A3E6AA3
:100E7000496A486A4A6A1A864C90C150C00B0F09E9
:100E8000C16E070EB46E540E4E6E500E4F6E410E74
:100E9000506E480E516E560E526E536A546A556A21
:100EA000C150C00B0C09C16EC050C00B0609C06E0A
:100EB000C08EC280B50ECD6EB16EA082C00EF21291
:100EC000415208E1405206E13F5204E13E5014080D
:100ED000D8B0E5D01AA605D03D6A3C6A3B6A3A6AAA
:100EE0001A963A5206E13B5204E13C5202E13D526D
:100EF00005E01AB803D03CD51A88D0D03D5207E19E
:100F00003C5205E13B5203E13A50190846E21ABA55
:100F100044D0320E766F360E776F330E786F796B62
:100F20004E509EA8FED7AD6E21C0EAFF20C0E9FF5B
:100F300015DE0D0E9EA8FED7AD6E380E7A6F350EFB
:100F40007B6F340E7C6F310E7D6F7E6B4F509EA891
:100F5000FED7AD6E25C0EAFF24C0E9FFFFDD0D0E10
:100F60009EA8FED7AD6E310E7F6F350E806F320EAC
:100F7000816F340E826F310E836F846B50509EA848
:100F8000FED7AD6E29C0EAFF28C0E9FFE7DD0D0EF0
:100F90009EA8FED7AD6E1A8A81D03D5207E13C5221
:100FA00005E13B5203E13A50320817E21ABC15D072
:100FB000020E1D6E8E0E1C6E51509EA8FED7AD6E99
:100FC000100EE96E1DC086F01CC085F063DC0D0EAE
:100FD0009EA8FED7AD6E1A8C61D03D5207E13C52FF
:100FE00005E13B5203E13A504B0837E21ABE35D0D7
:100FF00047D6080E4A6E4A5204E1090E4A6E4A521A
:1010000003E0010E4B6E1AD04A5007080AE31D5048
:10101000020807E303E11C50ED0803E3020E4B6EE8
:101020000DD04A5007080AE31D50010807E2FF0AE5
:1010300003E11C50EE0802E2030E4B6E570E9EA811
:10104000FED7AD6E4BC085F01B0E866FE3DD0D0E37
:101050009EA8FED7AD6E1A8E21D03D5207E13C52BC
:1010600005E13B5203E13A50640805E24CB003D07D
:10107000C7D64C8013D03D5207E13C5205E13B52AC
:1010800003E13A507D080AE21A981A9A1A9C1A9EAD
:101090004C90416A406A3F6A3E6A1A8611D710D75F
:0210A00003004B
:020000040030CA
:0E00000000C2190E008681000FC00FE00F40F5
:00000001FF
;PIC18F4680
;CRC=EA3A  CREATED="02-abr-12 23:32"
