:04050000DDEF07F034
:08050800046ED8CF05F0E0CF2E
:1005100006F00001E9CF0CF0EACF07F0E1CF08F0D8
:10052000E2CF09F0D9CF0AF0DACF0BF0F3CF12F017
:10053000F4CF13F0FACF14F000C00EF001C00FF0AA
:1005400002C010F003C011F09DAAAAEF02F09EBAFB
:10055000E6EF02F00EC000F00FC001F010C002F094
:1005600011C003F00CC0E9FF07C0EAFF078E08C006
:10057000E1FF09C0E2FF0AC0D9FF0BC0DAFF12C0D9
:10058000F3FF13C0F4FF14C0FAFF045006C0E0FFED
:1005900005C0D8FF1000F2CF0DF0F29EF76AB00F41
:1005A000F66E050EF7220900F5500DBEF28E120010
:1005B000280C01069EAAFED7ABCF16F0AECF01F0F5
:1005C00016A202D0AB98AB88F2EF02F0036A375064
:1005D000170FE96E000E0320EA6EEACF77F0E9CF3D
:1005E00076F0E8D777C0EAFF76C0E9FF01C0EFFFF9
:1005F00037C073F0372A3750200801E1376A385086
:10060000375C02E173C037F09E9AAAEF02F00C54F7
:10061000656D7020000043000C50726573696F6E49
:10062000200050610000EA6A670EE96EEF500DE0AD
:10063000020E016E006A002EFED7012EFBD7970E28
:10064000006E002EFED7EF2EF3D7000C6EB102D055
:100650008C9801D08C8895986EB302D08C9A01D07A
:100660008C8A959A6EB502D08C9C01D08C8C959C0E
:100670006EB702D08C9E01D08C8E959E00008A8E23
:10068000939E00D000D08A9E939E000C6F6B95883D
:10069000000E83B8010E6F13958A000E83BA010E07
:1006A000006ED890003600506F13958C000E83BCFE
:1006B000010E006E00360036FC0E001600506F135F
:1006C000958E000E83BE010E006E00360036003699
:1006D000F80E001600506F136FC001F0000C9588E3
:1006E000958A958C958E8A8C939C00008A8E939E19
:1006F0000000CCDF01C06EF08A9E939E00008A8EBF
:10070000939E00D0C3DF01C06DF08A9E939E9598A2
:10071000959A959C959E6E39006EF00E00160050CD
:100720006D11016E97EF03F08A989398D8D701C0A6
:100730006DF001BEFBD76B5302E18A9801D08A8825
:10074000939800008A9C939C00008A9E939E6C392B
:100750006D6F0F0E6D176DC06EF078DF6C510F0B63
:100760006D6F6E6F73DF000C9598959A959C959EB2
:10077000939E9398939C8A9893988A9C939C8A9E24
:10078000939E0F0E676F4FDF010E5A6E5A5003088B
:1007900008E3030E6E6F5ADF050E676F44DF5A2AB7
:1007A000F5D7020E6E6F52DF5A6A5A5003080EE3F5
:1007B000036A5A50F2CF5BF0F29EEDDE5BBEF28E22
:1007C0005B6E6B6B6C6FB0DF5A2AEFD7F9EF07F0F7
:1007D0003850375CFDE0036A3850170FE96E000EA1
:1007E0000320EA6EEFCF5AF0010E38241F0B386E4B
:1007F0005AC001F039EF08F063516519800B676F3B
:1008000063AF05D0621F631F622BD8B4632B65AF43
:1008100005D0641F651F642BD8B4652B6251640337
:10082000F3CF01F0F4CF00F06503F35000266351DD
:100830006403F3500020026E67AF05D0011E021E54
:10084000012AD8B4022A96EF04F0606B5E6A0A0EA1
:100850005F6E5D6A5C6A5A505B1004E1000E016EC7
:10086000026EE6D06051602B036A5A24E96E5B5039
:100870000320EA6EEFCF61F061512D080DE1010E0A
:100880005E6E6051602B036A5A24E96E5B50032050
:10089000EA6EEFCF61F00DD061512B080AE1605193
:1008A000602B036A5A24E96E5B500320EA6EEFCF97
:1008B00061F061512F08D8B0ADD061513908D8A08E
:1008C000A9D06151300821E1036A60515A24E96ED0
:1008D0005B500320EA6EEF5078080AE0036A60512B
:1008E0005A24E96E5B500320EA6EEF5058080DE180
:1008F000100E5F6E602B6051602B036A5A24E96E04
:100900005B500320EA6EEFCF61F05F500A0821E1EF
:1009100061512F081DE2615139081AE3636B0A0E19
:10092000626F5DC065F05CC064F066D7300E615DDB
:1009300001245C6E000E02205D6E6051602B036A24
:100940005A24E96E5B500320EA6EEFCF61F0E0D7E6
:1009500061D05F5010085EE16151600806E26151AC
:100960007A0803E36151DF0B01D06151616F61517E
:100970002F0803E26151390806E2615140084AE25A
:100980006151460847E361512F0819E26151390866
:1009900016E35C34626F5D34636F623763376237CE
:1009A000633762376337F00E6217300E615D622580
:1009B000016E000E632101C05CF05D6E16D05C34E8
:1009C000626F5D34636F62376337623763376237F4
:1009D0006337F00E6217410E615D0A0F6225016EEA
:1009E000000E632101C05CF05D6E6051602B036AF4
:1009F0005A24E96E5B500320EA6EEF50616F600885
:100A000006E261517A0803E36151DF0B01D06151C5
:100A1000616FADD75F500A0807E15E2C05D05C1E00
:100A20005D1E5C2AD8B45D2A5CC001F05DC002F096
:100A300088EF08F0682D01D003D0400E696F01D017
:100A4000696B010E675D6927695180096A6F6B6B7D
:100A50006C6F6ADE4DEF05F066510C0A05E0060A80
:100A60000BE0020A0FE013D06B6B010E6C6F5CDEC3
:100A7000020E676FD8DD11D0010E676F020E686F2E
:100A8000D9D70BD06B6B100E6C6F4EDE06D0010EFB
:100A90006B6F66C06CF048DE00D0000C0900F552A8
:100AA0000CE0F6CF5AF0F7CF5BF0F5CF66F0D4DF6D
:100AB0005AC0F6FF5BC0F7FFF1D7000CEACF62F037
:100AC000E9CF61F05BAE08D0618F61A9612B5A1E3E
:100AD0005B1E5A2AD8B45B2A5B38F0095D6E5D262E
:100AE000E20F5E6E320F606F5B500F0B5E265E266C
:100AF0006027E90F5F6E5F265F265A380F0B5F266F
:100B000060275F366037601F60375A500F0B6027D1
:100B10005D36070E5C6E0A0E5F066027FDE35E061B
:100B20005F26FDE35D065E26FDE35C065D26FDE3D4
:100B3000EA6A5C0EE96E070E6115619DE9066115B2
:100B400007E161B9E92A61B903D0200E006E1CD01B
:100B5000E926600EE95CD8B4618DEF50006E08E1C3
:100B600061BD06D061B91BD061B702D0200E0BD099
:100B700061AF06D02D0E006EED50619D619F04D0D7
:100B800061876199300E0026EACF5BF0E9CF5AF019
:100B900000C066F061DF5BC0EAFF5AC0E9FFEE50BB
:100BA00061ADD7D798EF08F0626B606B0A0E616F8A
:100BB0005F6A5E6A5D6A5C6A5A505B1005E1006AB2
:100BC000016A026A036A3DD16251622B036A5A24A8
:100BD000E96E5B500320EA6EEFCF63F063512D089E
:100BE0000DE1010E606F6251622B036A5A24E96EB7
:100BF0005B500320EA6EEFCF63F00DD063512B08FA
:100C00000AE16251622B036A5A24E96E5B500320A9
:100C1000EA6EEFCF63F063512F08D8B0FAD063517A
:100C20003908D8A0F6D06351300821E1036A625137
:100C30005A24E96E5B500320EA6EEF5078080AE010
:100C4000036A62515A24E96E5B500320EA6EEF504A
:100C500058080DE1100E616F622B6251622B036A1E
:100C60005A24E96E5B500320EA6EEFCF63F06151C6
:100C70000A0844E163512F0840E2635139083DE31B
:100C8000D8905C34656F5D34666F5E34676F5F3437
:100C9000686F5C34006E5D34016E5E34026E5F34EA
:100CA000036E003601360236033600360136023650
:100CB0000336F80E00166551002666510122675171
:100CC00002226851032203C05FF002C05EF001C03F
:100CD0005DF000C05CF0300E635D5C26000E5D22AE
:100CE0005E225F226251622B036A5A24E96E5B50D6
:100CF0000320EA6EEFCF63F0BDD78BD061511008AF
:100D0000D8A487D06351600806E263517A0803E3F0
:100D10006351DF0B01D06351636F63512F0803E20E
:100D20006351390807E263514008D8B072D063516B
:100D300046086FE363512F082DE2635139082AE317
:100D40005C34656F5D34666F5E34676F5F34686F07
:100D500065376637673768376537663767376837A7
:100D60006537663767376837F00E6517300E635D95
:100D70006525006E000E6621016E000E6721026E71
:100D8000000E68215F6E02C05EF001C05DF000C021
:100D90005CF02AD05C34656F5D34666F5E34676FDB
:100DA0005F34686F6537663767376837653766372A
:100DB000673768376537663767376837F00E651706
:100DC000410E635D0A0F6525006E000E6621016EFF
:100DD000000E6721026E000E68215F6E02C05EF099
:100DE00001C05DF000C05CF06251622B036A5A24BE
:100DF000E96E5B500320EA6EEF50636F600806E215
:100E000063517A0803E36351DF0B01D06351636FD1
:100E100084D761510A080DE1602D0BD05C1E5D1E68
:100E20005E1E5F1E5C2AD8B45D2AD8B45E2AD8B490
:100E30005F2A5CC000F05DC001F05EC002F05FC0E0
:100E400003F0BDEF08F0006A016A026A036A6E6B84
:100E50006F6B706B716B6D516C116B116A112CE0C3
:100E6000200E726FD89066376737683769376E37EC
:100E70006F37703771376D51715D08E16C51705D7E
:100E800005E16B516F5D02E16A516E5D0FE36A51DE
:100E90006E5F6B51D8A06B3D6F5F6C51D8A06C3DFD
:100EA000705F6D51D8A06D3D715FD88000360136FE
:100EB00002360336722FD6D7EA6A6E0EE96E000C40
:100EC000E9505E6E5DAE0DD05E065E8A5A1E5B1EF8
:100ED0005C1E5D1E5A2AD8B45B2AD8B45C2AD8B4EA
:100EE0005D2A3B0E656F9A0E646FCA0E636F626B6C
:100EF0000A0E606F5DC069F05CC068F05BC067F0AF
:100F00005AC066F065C06DF064C06CF063C06BF0F1
:100F100062C06AF098DF0150EFCF5AF0ECCF5BF07F
:100F2000ECCF5CF0ECCF5DF000520FE16051010AB4
:100F30000CE05E500CE00F0B605D01E024E25EBE51
:100F400022D05EBC04D0200E1AD0200E5E165EAAFF
:100F500009D05E9A00C05EF02D0E666F7DDD5EC02A
:100F600000F05E6A300E5EAA0AD05E9A00C05EF0A3
:100F70002D0E666F71DD5EC000F05E6A300E0026D9
:100F800000C066F069DD65C069F064C068F063C0E8
:100F900067F062C066F06D6B6C6B6B6B0A0E6A6F0C
:100FA00052DF03C065F002C064F001C063F000C00E
:100FB00062F0602F9FD7D5EF08F0F86AD09E078EB9
:100FC000EA6AE96A700ED36ED350B8960C0EAF6E13
:100FD000A20EAC6E900EAB6E376A386AC150C00B71
:100FE0000F09C16E070EB46E166A396A3A6AB4EF19
:100FF00003F09D8AC00EF2129698D190800ED56EA5
:10100000CD6A000ECA6E000ECB6EB16A070EB46ECA
:101010009550956E9650966E060E006E002EFED779
:101020000000B450A19CB56AC150C00B3F09C16E0D
:10103000720ED36E800E9B6ED350456A446A496A25
:10104000486A476A466A596A596A59500E080AE35B
:10105000036A59504A0FE96E000E0320EA6EEF6AE8
:10106000592AF3D7596A3850375CD8B4A7D0E8EF7B
:1010700003F0416A01C040F04050540813E141526E
:1010800011E1010E3F6E596A59500E080AE3036AD6
:1010900059504A0FE96E000E0320EA6EEF6A592A92
:1010A000F3D7596A4050500813E1415211E1020E42
:1010B0003F6E596A59500E080AE3036A59504A0FA5
:1010C000E96E000E0320EA6EEF6A592AF3D7596AD7
:1010D0003F2C33D040500D0802E141520FE0405008
:1010E000540802E141520AE0036A59504A0FE96E7E
:1010F000000E0320EA6E40C0EFFF592A40500D0851
:101100001CE141521AE15B6A4A0E5A6E25EF04F067
:1011100002C045F001C044F00E0EF66E060EF76EEA
:10112000BDDC100EE96E45C05BF044C05AF0C6D479
:10113000160EF66E060EF76EB1DC3F5002083DE16A
:1011400040500D0802E141520FE04050500802E1CA
:1011500041520AE0036A59504A0FE96E000E03201B
:10116000EA6E40C0EFFF592A40500D0826E1415277
:1011700024E15B6A4A0E5A6E17D503C049F002C0DB
:1011800048F001C047F000C046F0180EF66E060E9B
:10119000F76E84DC410EE96E49C05DF048C05CF03A
:1011A00047C05BF046C05AF08BD6200E666F54DC09
:1011B000220EF66E060EF76E71DC55D745D73DD779
:0211C00003002A
:020000040030CA
:0E00000000C9190E008681000FC00FE00F40EE
:00000001FF
;PIC18F4680
;CRC=71CF  CREATED="27-feb-12 11:25"
