:04050000DEEF02F038
:08050800046ED8CF05F0E0CF2E
:1005100006F00001E9CF0CF0EACF07F0E1CF08F0D8
:10052000E2CF09F0D9CF0AF0DACF0BF0F3CF12F017
:10053000F4CF13F0FACF14F000C00EF001C00FF0AA
:1005400002C010F003C011F09DAAAAEF02F09EBAFB
:10055000D6EF02F00EC000F00FC001F010C002F0A4
:1005600011C003F00CC0E9FF07C0EAFF078E08C006
:10057000E1FF09C0E2FF0AC0D9FF0BC0DAFF12C0D9
:10058000F3FF13C0F4FF14C0FAFF045006C0E0FFED
:1005900005C0D8FF10009EAAFED7ABCF17F0AECF94
:1005A00001F017A202D0AB98AB88000CF4DF01C0B9
:1005B0001AF0010E186E9E9AAAEF02F0F86AD09E09
:1005C000078EEA6AE96AB8960C0EAF6EA20EAC6EA0
:1005D000900EAB6E186AC150C00B0F09C16E070EAA
:1005E000B46E176A9EAA06D0D6DF01C019F0010EBC
:1005F000186EF8D7182C03D094948B74186AF2D71D
:020600000300F5
:020000040030CA
:0E00000000C21E1E0086B1000FC00FE00F40B0
:00000001FF
;PIC18F4680
;CRC=25F7  CREATED="05-mar-12 10:56"
