:0400000020EF00F0FD
:0800080084EF02F0000000008B
:1000100000000000000000008CEF02F010009EA81D
:06002000FED7AD6E000CDE
:10004000F86AD09EEA6AE96AB886400EAF6E030E7F
:10005000B06EA60EAC6E900EAB6EC150C00B0F0909
:10006000C16E070EB46E968484B401D049D848DAC4
:0200700003008B
:0401000066D8000CB1
:06010A007E6B7F6B7F514C
:10011000010829E37DC003F07CC0E9FF7DC0EAFF50
:10012000EF5040080EE27E51100DF3CF80F07CC0FE
:10013000E9FF7DC0EAFFEF508025BF0F0A0F7E6FF9
:100140000CD07E51100DF3CF80F07CC0E9FF7DC054
:10015000EAFFEF508025D00F7E6F7F517F2B7C2BE5
:10016000D8B47D2BD4D77EC001F0000CF250036EC2
:10017000F29EA68EA6840F01550EA76EAA0EA76E3C
:10018000A68200000350F2120001000CD08CA69C45
:10019000F6503F0B006EC00EF6160A0078C001F054
:1001A000006607D0EECFF5FF015204E00F00010614
:1001B00003D000060B000C003F0EF6143F0AF0E1DE
:1001C000A688D4DFD3DF0166EBD7F86A000C46922D
:1001D0004C6A4B6A46B2E3D0056A036A0550060FC3
:1001E000E96E000E0320EA6E9EAAFED7AECFEFFFA7
:1001F0000550052A036A060FE96E000E0320EA6E19
:10020000EF500D0803E005504008E7E2130E07DF4A
:10021000468006503A08D8A4BBD07D6B070E7C6F91
:1002200074DF01C057F07D6B090E7C6F6EDF01C07B
:1002300078F07D6B0B0E7C6F68DF78C04AF001C0F0
:1002400049F07D6B0D0E7C6F60DF01C048F04BC044
:100250004FF04CC050F049C04DF04AC04EF0482C11
:1002600002D0468295D0505205E14F5203E14E50E4
:10027000000808E2505206E14F5204E14E500408D3
:10028000D8B086D05052D8A483D04F502F08D8A0D1
:100290007FD0476A010E566E030E055C565C14E271
:1002A000036A5650060F016E000E032201C078F05B
:1002B00003C079F003C07DF001C07CF026DF01505F
:1002C0004726020E5626E8D7FF0ED8804754010F66
:1002D000476E030E055C036A060F016E000E0322D3
:1002E00001C078F003C079F003C07DF001C07CF05C
:1002F0000CDF0150475C02E046904AD0485237E19B
:10030000090E566E556A030E055C565C23E2555085
:10031000552A036A580F016E000E032201C078F0BF
:1003200003C079F0036A5650060F016E000E0322D7
:1003300001C07AF003C07BF003C07DF001C07CF007
:10034000E4DE79C0EAFF78C0E9FF01C0EFFF020EEA
:100350005626D9D74FC0F8FF4EC0F7FF4DC0F6FF65
:10036000EA6A580EE96E57C078F010DF11D0485095
:1003700004080EE17D6B0F0E7C6FC7DE01C078F0C4
:100380007D6B110E7C6FC1DE78C04CF001C04BF06C
:1003900046A002D0060E43DE110E41DE1BD7060E2C
:0803A0003EDE110E3CDE000CF4
:04050000FFD7000C15
:020000040030CA
:0E00000000C21E1E0086B1000FC00FE00F40B0
:00000001FF
;PIC18F4680
;CRC=A760  CREATED="30-mar-12 08:28"
